:020000040001F9
:1060000048370020E1610100FB610100FD610100F2
:106010000000000000000000000000000000000080
:10602000000000000000000000000000FF6101000F
:106030000000000000000000016201000362010096
:1060400005620100056201000562010005620100B0
:106050000562010000000000056201000562010008
:106060000562010005620100056201000562010090
:106070000562010005620100056201000562010080
:1060800005620100978F01000562010005620100B1
:10609000B98F0100056201002F9401000562010023
:1060A0000562010005620100000000000000000020
:1060B00000000000000000000000000000000000E0
:1060C00000F002F800F030F80CA030C808382418AE
:1060D0002D18A246671EAB4654465D46AC4201D120
:1060E00000F022F87E460F3E0FCCB6460126334222
:1060F00000D0FB1AA246AB4633431847E4C0000069
:1061000004C100000023002400250026103A01D31A
:1061100078C1FBD8520700D330C100D50B6070475F
:106120001FB51FBD10B510BD0AF0EAF91146FFF703
:10613000F7FF00F05AFE0AF002FA03B4FFF7F2FF8D
:1061400003BC0AF031FA0000401E00BF00BF00BFD0
:1061500000BF00BF00BF00BF00BF00BF00BF00BF47
:1061600000BFF1D170470000401E00BF00BF00BF5C
:1061700000BF00BF00BF00BF00BF00BF00BF00BF27
:1061800000BFF1D170470000401E00BF00BF00BF3C
:1061900000BF00BF00BF00BF00BF00BF00BF00BF07
:1061A00000BFF1D17047000070B505460C46164699
:1061B00002E00FCC0FC5103E102EFAD2082E02D3EB
:1061C00003CC03C5083E042E07D301CC01C5361FFE
:1061D00003E021782970641C6D1C761EF9D270BD15
:1061E00003210C4802680A4302600B4802680A4314
:1061F00002600A4880470A480047FEE7FEE7FEE7DC
:10620000FEE7FEE7FEE7000006480749074A084B9D
:10621000704700002405004054050040D962010089
:10622000C16001004827002048370020482F002087
:10623000482F002032483349086070473248008CAC
:10624000C0B2012812D13048808C0007000F00280E
:106250000CD12D48806AF0210840402806D12A48F8
:10626000C06A0840002801D1012070470020FCE7E7
:106270002548008CC0B201282CD12348808C00070F
:10628000000F002826D12048806AF021084000280D
:1062900006D11D48C06A0840002801D1012070477E
:1062A0001948806AF0210840102806D11648C06AB3
:1062B0000840002801D10120F1E71348806AF0214D
:1062C0000840302806D11048C06A0840002801D193
:1062D0000120E4E70020E2E710B5FFF7C9FF00283E
:1062E00005D00A480A494860C8130A498861FFF77F
:1062F000A5FF002802D001200749886010BD0000DA
:106300000024F40000200020C00F00F0DFFF07C0D1
:1063100000050040006C00400006004030B513044A
:106320008C0023430524240707252D0264198500CA
:10633000635130BD0F2000F09DFD00BFBFF34F8FB4
:10634000FD48FE49C860BFF34F8F00BF00BFFEE7A6
:1063500004460D462A462146F948FFF7EBFF70B583
:10636000F849F94802F007FAC5B22946F74801F0A2
:10637000F8F80446002C0DD0082C0BD0F4488442C9
:1063800008D0F448844205D000BFF3A2D5212046AE
:10639000FFF7D0FF70BD10B50446FFF7E0FF10BD5A
:1063A000F8B504460127BF0201202070ED49EE48F0
:1063B00002F0E1F9FF211731484385B27D21C90080
:1063C000694308467D21C90008F0C4FEE7490988F1
:1063D0004018E6490880E649E448008808F0BAFE1B
:1063E000E44909684018E3490860E149DF4800884A
:1063F00008F0B0FE88B2DD490880DE4800686060C1
:106400000988691A79430846294608F0A3FEDA4943
:1064100009884018208101206070D849D84802F0CE
:10642000AAF90621484386B27D21C9007143084676
:106430007D21C90008F08EFED24909884018D14953
:106440000880FF216931CF48008808F083FECE49DB
:1064500009884018CC490880FF216931C948008863
:1064600008F078FE88B2C7490880C7480088608174
:106470000988711A79430846314608F06BFEBE4917
:1064800009884018A081BC480088C019BA49088012
:10649000F8BD7FB505466846FFF782FF6946BB48F1
:1064A00001F0E1FA0446002C0ED0082C0CD0A848CC
:1064B000844209D0A748844206D000BFA6A2FF218B
:1064C00031312046FFF736FFB1480078002819D057
:1064D0000121AE48243001F0CAFD0446002C0BD047
:1064E000082C09D09A48844206D000BF9AA2FF2106
:1064F0003B312046FFF71EFF9548844202D0002022
:10650000A34908707FBD10B5082000F0AAFC09203F
:1065100000F0A7FC0F2000F0A4FC10BDF8B500BFF0
:1065200000209C4B05220421009002F049FD054605
:1065300000BF2E46002E06D000BF87A2FF215A3191
:106540003046FFF7F7FE00BF00BF934A0121934892
:1065500002F0B3FD044600BF2546002D06D000BF63
:106560007DA2FF2160312846FFF7E4FE00BF8C4A80
:1065700001218C4802F0A1FD044600BF2546002DF4
:1065800006D000BF74A2FF2166312846FFF7D2FE75
:1065900000BFF8BD3EB500BF68460078010909019B
:1065A000491C009168460078F02188431030009023
:1065B00000BF0A227CA168467CDF044600BF254656
:1065C000002D06D000BF64A2FF217A312846FFF7D4
:1065D000B1FE00BF774878DF044600BF2546002D96
:1065E00006D000BF5CA2FF217D312846FFF7A2FE46
:1065F00000BF002001900290FF2191316846818008
:106600004900C18000210181FF219131418101A810
:106610007ADF044600BF2546002D06D000BF4EA2FB
:10662000FF2187312846FFF785FE00BF3EBD30B50C
:1066300093B006210491604A07CA01AB07C3382111
:1066400005A808F07BFD02216846017501218175CE
:10665000018304A907910321818501A90C910021DF
:1066600005A801F0EFFF044600BF2546002D06D027
:1066700000BF39A2FF21A8312846FFF75BFE00BF0B
:1066800014214E4808F05AFD00204C49087048601B
:10669000087228200882B420488213B030BD024618
:1066A0000878012802D0022808D103E0314B48685D
:1066B000186004E00120364B187000E000BF00BFF6
:1066C0000120704730B5A1B0282117A808F036FD89
:1066D00000201790072010A9088500BF18A800788F
:1066E00001090901491C18A801700078F0218843AC
:1066F000103018A9087000BF00BF18A880790109E0
:106700000901491C18A881718079F0218843103053
:1067100018A9887100BF00BF17A8407A00090001BE
:10672000401C17A9487217A8407AF02188431030FE
:1067300017A9487200BF43E00400FA0500ED00E02D
:10674000EFBEADDEE42100200820002064210020FF
:1067500004300000013400002E2E5C6D61696E2E45
:1067600063000000F42100201020002040200020C1
:10677000340800002C2000203E20002004220020AD
:1067800018200020422000203C2000207C210020F6
:1067900030200020142200209763010020200020D8
:1067A00093640100242000204E6F726469635F438C
:1067B0005343000085040000CC1302005021002048
:1067C00000BF18A8C07801090901491C18A8C170A8
:1067D000C078F0218843103018A9C87000BF072185
:1067E00018A88172F8481B90F8481C900A2118A834
:1067F00001750421019101A81F9000BF20A84078D5
:1068000000090001401C20A9487020A84078F02110
:106810008843103020A9487000BF17A9EC4801F048
:10682000CDF8044600BF2546002D06D000BFE94A3A
:10683000FF21F0312846FFF77DFD00BF142112A88B
:1068400008F07CFC00BF10A8407D01090901491C2B
:1068500010A84175407DF0218843103010A948757B
:1068600000BF00BF12A8807B00090001401C12A9D4
:10687000887312A8807BF0218843103012A9887396
:1068800000BF00BF12A8C07B00090001C87312A896
:10689000C07BF021884312A9C87300BF00BF10A8B5
:1068A000007E01090901491C10A80176007EF02133
:1068B0008843103010A9087600BF002012900121F3
:1068C00010A8017300201490642110A8017512A96A
:1068D000C14800F025FE044600BF2546002D05D026
:1068E00000BFBC4ABD492846FFF724FD00BF402138
:1068F00002A808F023FCBAA102A801F009FF00BF1A
:1069000010A8007901090901491C10A8017100793A
:10691000F0218843103010A9087100BF00BF11A8F2
:1069200040780009000111A9487011A84078F021B1
:10693000884311A9487000BF02A800F0C9FB0446B3
:1069400000BF2546002D06D000BFA24A8321890042
:106950002846FFF7EFFC00BF21B030BD10B5512035
:10696000A449086064204860012088600873A24838
:1069700001F0F4FE0A20A1490860282048600120A7
:106980008860002008739E4801F0E8FE14209D49AD
:1069900008606E20486003208860002008739A48D1
:1069A00001F0DCFE0020994908609949087010BD8B
:1069B00070B50022012109049648006802F0C4FB6A
:1069C000044600BF2646002E06D000BF814A8349F8
:1069D00036313046FFF7AEFC00BF0125ED03002243
:1069E00029468D48006802F0AFFB044600BF2646EA
:1069F000002E06D000BF774A8F2189003046FFF76E
:106A000099FC00BF70BD38B5684604F010FF04461D
:106A100000BF2546002D06D000BF6E4A6F494931A0
:106A20002846FFF787FC00BF0098002803D001200C
:106A30007A49087038BD7A4873DF044600BF25469E
:106A4000002D06D000BF634A644952312846FFF743
:106A500071FC00BF082000F00DFA00BFEAE770B536
:106A600005462878002810D13B216E48008876DF43
:106A7000044600BF2646002E06D000BF554A57499F
:106A800069313046FFF756FC00BF70BD044600BFB9
:106A9000504A524974312046FFF74CFC30B587B05C
:106AA0001C21684608F04AFB002000900520C00326
:106AB00001900F20000402900321684601734448AE
:106AC00041896846C18100210174574805905748A3
:106AD0000690684602F043FD044600BF2546002D9F
:106AE00006D000BF3B4AA32189002846FFF722FCBD
:106AF00000BF07B030BD70B50446002520881028BF
:106B000004D011280CD0192829D113E0092000F055
:106B1000B1F9082000F0B3F9A088424908801FE0CD
:106B2000092000F0ACF90020C0433E490880FFF77F
:106B30006AFF15E0A079002810D1082000F09FF925
:106B400034DF054600BF2E46002E06D000BF214A86
:106B50002249AD313046FFF7EDFB00BF00E000BF3A
:106B600000BF70BD10B50446022C02D0032C0BD11F
:106B700000E000BF29480078002804D00020274901
:106B80000870FFF740FF00E000BF00BF10BD10B568
:106B90000446204603F0EAFC21460D4800F057FD6C
:106BA00021460D4800F0BFFB204602F0ACFD204618
:106BB000FFF7A1FF10BD10B50446204604F091FA7E
:106BC0002046FFF7CFFF10BD9F6601003220002056
:106BD0007C21002058670100642100200102000090
:106BE0004E6F7264696353656D69636F6E6475633C
:106BF000746F7200E421002008200020F42100209E
:106C00001020002004220020182000202C2000202A
:106C100030200020202000202420002031200020CF
:106C200050210020042000205F6A01008D6A0100CD
:106C3000F8B500BF002350229349082002F0AFFBB3
:106C4000054600BF2E46002E06D000BF8F4A5F21AA
:106C5000C9003046FFF76EFB00BF00BF0020009068
:106C60000090684660DF044600BF2546002D05D031
:106C700000BF864A86492846FFF75CFB00BF85486F
:106C800002F0C3FB044600BF2546002D06D000BF1E
:106C90007E4A7F49091D2846FFF74CFB00BF7E480E
:106CA00002F0BCFB044600BF2546002D06D000BF05
:106CB000764A774908312846FFF73CFB00BFF8BD0C
:106CC00010B5032200210846FFF728FB032200210C
:106CD0000120FFF723FB10BDF8B506460F4614460A
:106CE00000BF2546002D06D000BF684A6849243100
:106CF0002846FFF71FFB00BF0020F8BD7FB504F05A
:106D000093FA044600BF2546002D06D000BF5F4A17
:106D10005F4933312846FFF70DFB00BF01205F4973
:106D20000969C1400140002900D100E00020039022
:106D300003A802F09DFF044600BF2546002D06D0A3
:106D400000BF524A6721C9002846FFF7F3FA00BF87
:106D5000062101A8023008F0EFF91E216846C18023
:106D6000007A40084000401C694608726846007A74
:106D700002218843694608726846007A1C218843CC
:106D80000C30694608726846007A202188436946BB
:106D900008720721684641721021817240480090B4
:106DA00001216846017169463E4802F0D0FF044661
:106DB00000BF2546002D06D000BF344A3449483173
:106DC0002846FFF7B7FA00BF7FBD70B540DF044625
:106DD00000BF2546002D06D000BF2C4A35210901F1
:106DE0002846FFF7A7FA00BF70BD682006F040FBF9
:106DF000012007F04AFC04F03BFD2B4806F003F9A4
:106E0000044604F03EFD294806F0FDF8044604F06F
:106E100038FD182005F014F9022005F0FDF93220A4
:106E200004F04DFE052005F082F8FFF76CFBFFF73C
:106E300047FFFFF773FBFFF7FBFEFFF75FFFFFF76F
:106E4000A9FBFFF7F4FBFFF73DFCFFF787FDFFF71A
:106E500025FEFFF7ADFDFFF7D6FD00BFFFF7B5FF3D
:106E6000FCE703210522120707231B02D218830027
:106E7000D150704701218140084A9160704701213B
:106E80008140064AD16070477C2400205867010089
:106E9000FF0200008F6B0100B76B0100000500507E
:106EA000D96C010028200020442000204D20002023
:106EB00070B504460D4600BF002D01D0012000E052
:106EC00000200646002E05D100BFE6A23321FFF7C1
:106ED00031FA00BF00BF00BF002C01D0012000E04C
:106EE00000200646002E05D100BFDEA23421FFF7A8
:106EF00021FA00BF00BF2878207029882879FF2355
:106F00001B02194000200206080A1043607028790D
:106F10001B022968194000200204080C1043A070CD
:106F200029791B022868184000210902000E084335
:106F3000E07028792071287A6071190CA8680840DF
:106F4000000AA0710902A8680840000CE07170BD39
:106F5000F8B505460E46002400BF002E01D00120E2
:106F600000E000200746002F05D100BFBDA24B2145
:106F7000FFF7E0F900BF00BF00BF002D01D00120E6
:106F800000E000200746002F05D100BFB5A24C212C
:106F9000FFF7D0F900BF00BF32782046611CCCB2A9
:106FA0002A542919708800F054F90019C4B229191B
:106FB000B08800F04EF90019C4B22919F08800F029
:106FC00048F90019C4B200BF072C01D1012000E02C
:106FD00000200746002F05D100BFA2A25421FFF7D1
:106FE000A9F900BF00BFF8BDF0B58FB007460D4648
:106FF00014461E4600BF002D01D0012000E00020F5
:1070000000900098002805D100BF96A26D21FFF7DF
:1070100091F900BF00BF00BF002C01DD012000E09E
:10702000002000900098002805D100BF8DA26E219D
:10703000FFF780F900BF00BF1C2107A808F07EF809
:107040006946087F02218843801C69460877002032
:1070500008900A900B900C900D9000BF012108A899
:1070600081766846078700BF002001903178684626
:10707000017171784171807906218843811C6846CD
:107080008171807908218843014668468171807941
:107090001021884301466846817180794108490082
:1070A00068468171142102A808F048F80EA80290E1
:1070B00001A80390684604820021418284820695DB
:1070C00002AA07A974480088149BA2DF0FB0F0BD84
:1070D0007FB5044600BF0121684681736F498181F5
:1070E00000BF6D4A03A90120A0DF0546002D02D094
:1070F000284604B070BD208800280DDD6848009047
:10710000228823463C3367486168FFF76DFF0546D8
:10711000002D01D02846ECE7208900280EDD6248CA
:107120000090228923463C335E48401FE168FFF708
:107130005BFF0546002D01D02846DAE7208A0028AB
:107140000EDD5A480090228A23463C335548001FE2
:107150006169FFF749FF0546002D01D02846C8E7C1
:10716000208B00280EDD52480090228B23463C33B2
:107170004C48801EE169FFF737FF0546002D01D01E
:107180002846B6E7208C00280EDD4A480090228C65
:1071900023463C334348C01E616AFFF725FF05467E
:1071A000002D01D02846A4E7208D00280EDD42489E
:1071B0000090228D23463C333A48401EE16AFFF797
:1071C00013FF0546002D01D0284692E7206B0028CA
:1071D00013D001A8216BFFF76BFE384823463C33E0
:1071E000082201A900902F48801FFFF7FDFE0546E9
:1071F000002D01D028467CE700BF606B00280FD02F
:107200002F480090606B027923463C330168254883
:10721000401CFFF7E9FE0546002D01D0284668E72F
:10722000A06B002813D001A8A16BFFF791FE2548A1
:1072300023463C33072201A900901A482730FFF764
:10724000D3FE0546002D01D0284652E700BF00209E
:107250004FE702460A70FF200002104000124870FB
:10726000022070472E2E5C2E2E5C2E2E5C2E2E5C65
:107270002E2E5C536F757263655C626C655C626C2C
:10728000655F73657276696365735C626C655F6484
:1072900069732E6300000000562000200A180000C9
:1072A00058200020292A00006020002068200020AB
:1072B00070200020782000208020002088200020DE
:1072C00090200020982000208A8842827047002267
:1072D000D24342827047F8B504460E46207D00280E
:1072E00020D0B51D2988608981421AD1288B0228B7
:1072F00017D12068002814D000BF00BFA97EEA7E05
:10730000120211430846C107C90F002902D000200C
:10731000009001E0012000906946204622689047D5
:1073200000BF00BFF8BD70B505460C462088102888
:1073300004D0112807D050280FD109E02146284653
:10734000FFF7C2FF0AE021462846FFF7C0FF05E02D
:1073500021462846FFF7BFFF00E000BF00BF70BD19
:10736000F0B591B004460D46207D002819D00020CC
:10737000099000BF08A8007901090901491C08A863
:1073800001710079F0218843103008A9087100BF0D
:10739000697B08A84171807906218843801C08A96F
:1073A00088711C210AA807F0C9FE08A8007A0221EA
:1073B0008843811C08A80172007A10218843217D2E
:1073C000002901D0012100E0002109011022114013
:1073D000084308A9087200200B900D900E90207DA4
:1073E000002801D009A800E000200F900020109094
:1073F00000BF0121684681737749818100BF002069
:107400000290A97B68460172E97B4172807A06216D
:107410008843811C68468172807A0821884301462E
:1074200068468172807A10218843014668468172DD
:10743000807A4108490068468172297B01911421B4
:1074400004A807F07BFE03A8049002A80590012180
:1074500068460183002141830121818301A80890AE
:10746000A088A31D04AA0AA9A2DF0646002E02D006
:10747000304611B0F0BDA86800284DD000BF0121F2
:10748000684681735549818100BF00200290287CA5
:107490006946087200BF6846407A010909016846DA
:1074A0004172407AF02188436946487200BF6846BD
:1074B000807A06218843811C68468172807A08217F
:1074C0008843014668468172807A102188430146CC
:1074D00068468172807A4108490068468172A968CD
:1074E00001F0F8F80746142104A807F027FE03A8C6
:1074F000049002A805906846078300214183018B10
:1075000081830890E08822460E3204A9A3DF064654
:10751000002E03D03046ACE70020E0810020A8E731
:10752000F8B504460D46286820600020C0436082FC
:1075300028792075FF20207400BF012168468170E2
:107540002749018000BF221D69460120A0DF0646B1
:10755000002E01D03046F8BD29462046FFF700FF37
:10756000F9E733B585B004460025207C6946097EDD
:1075700088422FD0012104916846007E2074E08863
:1075800006AB04AA0021A4DF0546002D02D0284640
:1075900007B030BD608A1349884219D0207D002889
:1075A00016D00020009001900290039001210491D8
:1075B000E18868460180012181700021818004A852
:1075C000029006A80390608A6946A6DF054600E09F
:1075D000082500BF2846DBE7192A0000082900001B
:1075E0000F180000FFFF00008A88C2837047002246
:1075F000D243C283704738B505460C46208B02281B
:1076000017D12868002814D000BF00BFA17EE27EF9
:10761000120211430846C107C90F002902D00020F9
:10762000009001E001200090694628462A689047B2
:1076300000BF38BD70B504460D46AE1D3188608967
:10764000814203D131462046FFF7D5FF70BD70B5AA
:1076500005460C4621462846243000F0DCFC2088F4
:10766000102804D0112807D050280FD109E0214656
:107670002846FFF7B9FF0AE021462846FFF7B7FF83
:1076800005E021462846FFF7D5FF00E000BF00BF18
:1076900070BDF7B50D461646002701240098008CF2
:1076A000204000281CD02878002819D0012007434A
:1076B000311968680870FF2212020240120A4A70EB
:1076C000FF2212040240120C8A70020ECA700422B9
:1076D0001019C4B23119288900F0FBF90019C4B29D
:1076E0000098008C02210840002810D068780028FB
:1076F0000DD0022007433119688900F0EAF900191A
:10770000C4B23119A88900F0E4F90019C4B2377085
:107710002046FEBD30B599B004460D4600201190BC
:1077200000BF10A8007901090901491C10A80171C6
:107730000079F0218843103010A9087100BF297921
:1077400010A84171807906218843811C10A881719D
:107750001C2112A807F0F2FC10A8007A102188431F
:10776000103010A90872002013901590169011A8DF
:1077700017900020189000BF012108A88173D949F3
:107780006846818500BF00200A9000BF08A8007AE3
:107790000109090108A80172007AF021884308A9AB
:1077A000087200BF00BF08A8407A0109090108A8B3
:1077B0004172407AF021884308A9487200BF08A8A6
:1077C000807A06218843811C08A88172807A08216A
:1077D0008843014608A88172807A102188430146B7
:1077E00008A88172807A41084900491C08A8817262
:1077F00014210CA807F0A2FC0BA80C900AA80D906D
:1078000001AA06A92046FFF744FF01466846018702
:10781000002141871421818701A81090A088A31D11
:107820000CAA12A9A2DF19B030BD70B590B0044601
:107830000D461C2109A807F081FC08A9087902213E
:107840008843801C08A9087100200A900C900D90B4
:107850000E900F9000BF012168468173A149491C19
:10786000818100BF00200290A87A6946087200BF9B
:107870006846407A0109090168464172407AF02160
:1078800088436946487200BF6846807A062188436B
:10789000811C68468172807A0821884301466846C7
:1078A0008172807A10218843014668468172807A0D
:1078B0004108490068468172142104A807F03EFC83
:1078C000A88901A900F005F9064603A8049002A8BA
:1078D00005906846068300214183868301A80890AD
:1078E000A08823460E3304AA09A9A2DF10B070BDF8
:1078F00070B590B005460C461C2109A807F01EFC87
:1079000008A9087902218843801C08A90871002071
:107910000A900C900D900E900F9000BF01216846C8
:1079200081737049891C818100BF0020029025204D
:10793000005D6946087200BF6846407A0109090186
:1079400068464172407AF02188436946487200BF18
:107950006846807A06218843811C68468172807A55
:1079600008218843014668468172807A1021884345
:10797000014668468172807A4008400069468872F4
:10798000142104A807F0DAFB0126206A002802D09F
:10799000206A0078019003A8049002A80590684628
:1079A000068300214183868301A80890A8882B467E
:1079B000163304AA09A9A2DF10B070BD70B588B053
:1079C00005460C46206828600020C043E883A08953
:1079D000288400BF0121684681774349818300BF25
:1079E0002A1D07A90120A0DF0646002E02D030463E
:1079F00008B070BD21462846FFF78CFE0646002ED3
:107A000001D03046F4E721462846FFF70EFF064630
:107A1000002E01D03046EBE7206A002808D021462E
:107A20002846FFF765FF0646002E01D03046DFE707
:107A3000E0690690217E68460175A17BC1712069CD
:107A40000390606904900322E11D01A807F00EFB7A
:107A5000E98A6846C182A988018101A928462430A3
:107A600000F048F8C4E7F0B587B004460F46E08B55
:107A70001E49884229D01E480178019101260696A8
:107A800000200290039004900590E18868460181EF
:107A9000012181720021818106A8049001A805902E
:107AA00013480068401C124908600846006804F04A
:107AB0003EFAE08B02A9A6DF0546002D04D16846F8
:107AC000008BB04200D00C2500E00825284607B006
:107AD000F0BD02460A70FF200002104000124870FC
:107AE000022070475B2A000016180000FFFF00000C
:107AF000A020002030B58FB004460D460020C043C2
:107B0000A081002126200155287C2077287C002890
:107B100008D0E868002805D0227F20460E30E968AA
:107B200007F0A4FAA8886080A8682062E87820702E
:107B3000688AA0846869A0620020079000BF684638
:107B4000007F01090901491C68460177007FF02187
:107B5000884310306946087700BF29786846417726
:107B6000807F06218843811C684681771C2108A8F4
:107B700007F0E4FA08A8007820218843411808A8F3
:107B80000170007808218843083008A90870002097
:107B900009900B900C9007A80D9000200E9000BF4C
:107BA000012168468171FE49818000BF002000905C
:107BB00000BF684600780109090168460170007835
:107BC000F02188436946087000BFA9786846417073
:107BD000807806218843811C68468170807808215E
:107BE0008843014668468170807810218843411897
:107BF00068468170807841084900491C6846817058
:107C0000142102A807F09AFA01A80290684603908E
:107C10000021018241821321818200200690608828
:107C2000231D02AA08A9A2DF0FB030BD70B503461C
:107C30000C460021012C01DA072070BD0846491CC2
:107C4000185C1070107801280AD0022804D003288C
:107C500003D0042811D112E011E0585C10720EE03C
:107C60005818057846783602354386783604354309
:107C7000C67836063543556001E00720DDE700BFD2
:107C80000020DAE7F0B50346002010260446401C29
:107C900016550E780446401C16554E780446401C76
:107CA00016554C78012C11D10C78042C0CD10024E1
:107CB00006E01D460E352E5D0546401C5655641CDB
:107CC0001D7FA542F5DC00E000BF00BFF0BD02460D
:107CD0000B46002107E010460E30405C984201D16F
:107CE00001207047491C107F8842F4DC0020F8E72F
:107CF0007CB50446022000900026208901AB6A462C
:107D00000021A5DF0546002D05D0A06A002802D07D
:107D10002846A16A884700BF00BF6A461179527998
:107D20001202114308460221014049080E4630461E
:107D30007CBD30B585B004462620005D02283AD1CE
:107D40002D20015D0491002000900190029003908D
:107D5000A18868460180022181700021818004A8E9
:107D6000029020462E300390A0896946A6DF054682
:107D7000002D06D12D20005D6946098A884200D079
:107D80000C25002D04D087482818002808D103E0CE
:107D90000321262001550DE002212620015509E08E
:107DA000002126200155A06A002802D02846A16A99
:107DB000884700BF00BF05B030BD70B590B0044625
:107DC0000E46794A07CA0DAB07C302216846017502
:107DD000002101832046FFF78BFF00280BD02620CF
:107DE000005D002802D16946088308E0FF20813049
:107DF0006946088303E0FF20823069460883A08932
:107E000005A9A8DF0546002D05D0A06A002802D0EC
:107E10002846A16A88476846008B002801D010B028
:107E200070BD022126200155022008A94871317E2B
:107E30000DAA30461A30FFF7F9FE0546002D05D091
:107E400008A8017D01710221417198E008A8017D17
:107E50000171007D012852D002286AD003280ED07B
:107E600004287DD12078C007C00F002803D001204E
:107E700008A9487102E0022008A948717EE0207834
:107E8000C007C00F002836D008A8017F2046FFF7A2
:107E90001EFF00282BD008A8017F0291012101912B
:107EA000417100216846017308A8017F684601748A
:107EB000206A002805D003A92046226A904708A915
:107EC000487108A84079012810D1A08C02AB01AA02
:107ED0000021A4DF0546002D08D0A06A002802D0AA
:107EE0002846A16A8847042008A9487106E00320B3
:107EF00008A9487102E0022008A948713EE02078F4
:107F000002210840022810D1012108A841716846C9
:107F100001730E980490206A002809D003A9204616
:107F2000226A904708A9487102E0022008A9487116
:107F300024E0207804210840042817D101212620BC
:107F40000155022069460873206A002811D003A950
:107F50002046226A904708A948714879012800E024
:107F600008E006D002212620015502E0022008A9DF
:107F7000487103E0022008A9487100BF00BF2246F3
:107F80002E3209A92046FFF77DFEC1B22D200155F2
:107F90002620005D022802D12046FFF7CAFE05E038
:107FA000552A0000FCCFFFFFD813020000BF36E7C0
:107FB00070B505460E46B41C2078022807D16088AB
:107FC000A988884203D1A11C2846FFF7F6FE70BDA0
:107FD00010B504462620005D022802D12046FFF796
:107FE000A8FE10BD8A888281002326221354704780
:107FF0000022D24382810023262213547047CA886C
:1080000083889A4206D12622125C032A02D10023D9
:1080100026221354704770B505460C462088112857
:108020000FD004DC01281BD010281DD104E05128FA
:108030000CD0532818D10EE021462846FFF7D2FF76
:1080400013E021462846FFF7D3FF0EE0211D284606
:10805000FFF7AEFF09E021462846FFF7D0FF04E016
:108060002846FFF7B5FF00E000BF00BF70BD70B548
:108070008EB004460D4600262620005D012802D061
:1080800008200EB070BD08A845720221017205AA31
:108090000AA92046FFF7F6FD81B204910020009066
:1080A000019002900390A1886846018002218170AE
:1080B0000021818004A8029005A80390A089694648
:1080C000A6DF0646002E02D10021262001553046AB
:1080D000D7E70000F7B584B004460F460698067847
:1080E000B01C1F2803DC6078801C1F2802DD0C20D8
:1080F00007B0F0BD1F20801B801E85B20295B11C09
:10810000781802A97DDF03900398002801D0039816
:10811000EEE72078022808D168460089A84204DCEE
:1081200009200190684605890BE0082001906078DD
:10813000002804D06078A84201DC657801E0684638
:108140000589681CC2B23046711CCEB23A54304622
:10815000721CD6B20199395406980178A81C0818E7
:10816000C1B2069801700020C2E7F8B505460C467A
:108170002078001D1F2801DD0C20F8BD684679DF3E
:108180000646002E01D03046F7E703212278501C26
:108190002070A95419212278501C2070A9542078ED
:1081A00041196846008800F08AFA2178401820704A
:1081B0000020E2E7F8B505460F4616461C466868FB
:1081C000002801D10720F8BD2078801C298840189C
:1081D0001F2801DD0C20F6E72878401CC1B2227868
:1081E000501C2070B1542178481C207077542A8884
:1081F00023789819696806F039FF207829784018A3
:1082000020700020DFE730B503461078C01C1F281F
:1082100001DD0C2030BD02241578681C10704C550F
:108220000A241578681C10704C551578681C10705D
:108230004B550020EEE7FFB587B006461D46109C63
:108240000020069020780590002747E0B90070686C
:1082500041180A886846028149884181002203A9A1
:1082600002A865DF04900498002802D004980BB09F
:10827000F0BD6846017B099881422ED106980028FE
:1082800001D0002000E00220019020786946097B9F
:108290004118019808181F2801DD0C20E7E706980F
:1082A000002809D12078401C20702278511C0898A1
:1082B0002170A854012006902078421903A902A831
:1082C00065DF04900498002801D00498CFE7207857
:1082D0006946097B4018207000BF7F1C3088B84277
:1082E000B4DC0698002806D021780598401C081AAE
:1082F000C1B2059829540020B9E7FFB581B00746FF
:1083000015460A9E009602223846049B0299FFF702
:1083100092FF0446002C02D0204605B0F0BD009626
:10832000102229463846049BFFF785FF0446002C9F
:1083300001D02046F1E70020EFE701460888062833
:1083400008DB08881922D201904205DD0888E04A3E
:10835000904201D0072070474888062808DB4888EB
:108360001922D201904205DD4888D94A904201D0B5
:108370000720F0E70888D64A904208D04888904203
:1083800005D008884A88904201DD0720E3E70020F5
:10839000E1E7F8B506460D4614462078801D1F28F3
:1083A00001D90C20F8BD3046FFF7C7FF0746002F64
:1083B00001D03846F6E705212278501C2070A954D8
:1083C00012212278501C2070A9542278511930882B
:1083D00000F075F9217840182070227851197088C2
:1083E00000F06DF92178401820700020DAE7F8B528
:1083F00005460E4614462879801CC7B22078801C9A
:10840000C0191F2801DD0C20F8BD781CC1B22278EC
:10841000501C2070B154FF212278501C2070B154A0
:1084200022789119288800F04AF9217840182070A4
:10843000A88800280EDDA868002801D10720E3E7FE
:10844000AA8823789819A96806F010FE207829795F
:10845000401820700020D7E7FEB507460E461446A8
:10846000386B002801D10720FEBD0020019032E0CA
:10847000396B0C22019850430D182879801CC0B22A
:1084800000900098401CC1B22278501C2070B1545A
:1084900016212278501C2070B15422789119288816
:1084A00000F00DF9217840182070A88800280EDD12
:1084B000A868002801D10720D6E7AA882378981950
:1084C000A96806F0D3FD207829794018207001981A
:1084D000401CC0B201903420C15D01988142C7DCCC
:1084E0000020C1E7F8B504460F46164600250020D7
:1084F00030702078002809D0324639462046FFF7F0
:10850000E9FD0546002D01D02846F8BDA0780028D9
:1085100008D031463846FFF728FE0546002D01D029
:108520002846F2E7A08800280ADD33463A460121B2
:10853000201DFFF73FFE0546002D01D02846E4E749
:10854000E06800280BD00020E16808563246394622
:10855000FFF759FE0546002D01D02846D5E7208AB1
:1085600000280CDD3B4606220221204610300096F2
:10857000FFF7C3FE0546002D01D02846C5E7208B36
:1085800000280CDD3B4607220321204618300096C8
:10859000FFF7B3FE0546002D01D02846B5E7208C35
:1085A00000280CDD3B461522142120462030009681
:1085B000FFF7A3FE0546002D01D02846A5E7A06AD7
:1085C000002809D032463946A06AFFF7E2FE054688
:1085D000002D01D0284698E7E06A002809D03246ED
:1085E0003946E06AFFF703FF0546002D01D0284613
:1085F0008BE73420005D002809DD324639462046ED
:10860000FFF72AFF0546002D01D028467DE72846C2
:108610007BE701468888002808D08868002805D0B4
:108620008868007804221040002801D10720704794
:108630000020FCE701468888002801DD07207047FC
:108640000020FCE7F3B593B00D4600211291119183
:108650001398002814D01398FFF7DBFF0446002C72
:1086600002D0204615B0F0BD12AA09A91398FFF751
:1086700039FF0446002C01D02046F3E709AE00E0A4
:108680000026002D13D02846FFF7D4FF0446002C07
:1086900001D02046E6E711AA01A92846FFF722FFEC
:1086A0000446002C01D02046DCE701AF00E00027A3
:1086B00010A803793A46017A304672DFD2E70246C3
:1086C0000A70FF200002104000124870022070471C
:1086D000FFFF0000F8B505460E460024327821461B
:1086E000641C6A5472782146641C6A5400BF022CD0
:1086F00001D1012000E000200746002F05D100BF76
:1087000008A22021FDF716FE00BF00BF2046F8BDDD
:1087100070B504460D46284606F086FC208065604C
:1087200070BD00002E2E5C2E2E5C2E2E5C2E2E5C3C
:108730002E2E5C536F757263655C626C655C626C57
:10874000655F73657276696365735C626C655F73A0
:1087500072765F636F6D6D6F6E2E63000A7B002A09
:1087600004D04A6802600022027103E00A680260D5
:108770000122027170470246107900280FD0486824
:108780001368C01A8B68984204D910688B68C018A7
:10879000106013E048681060002010710EE010684F
:1087A0000B68C01A8B68984204D910688B68C01A8D
:1087B000106003E0086810600120107110687047B5
:1087C00010B5002819DAFB4A03071B0F083B9B086A
:1087D0009B00D2588307DC0EFF23A3409A438B07EC
:1087E0001B0E8407E40EA3401A43F24B0407240F28
:1087F000083CA408A4001A5118E0EF4A03231B0206
:10880000D21883089B00D2588307DC0EFF23A340B5
:108810009A438B071B0E8407E40EA3401A43E64BD2
:10882000032424021B198408A4001A5110BD10B59A
:108830000446E248846003211120FFF7C1FF10BD08
:1088400010B501200004DE494860DD494039486028
:10885000112000F0F5FC112000F0E4FC0120D949C2
:1088600008602F20FDF770FC0120D749087010BD6B
:1088700010B5112001218140CF4A8032116000BF24
:1088800001200004CE498860CD494039886001202C
:10889000CC4948602F20FDF757FC0120C94988606A
:1088A0000020CA4908602F20FDF74EFC0020C64971
:1088B000087010BDF0B5024624205043C44B1B681D
:1088C000C118C4480068401C002802D1C148026099
:1088D00059E0C0484B68006824246043BC4C2468BD
:1088E00000194068834217D8BA48006824235843C7
:1088F000B74B1B68C01840684B68C31AB54800687E
:1089000024246043B24C246800194360B1480068D5
:108910000862B048026036E04B68AE4D2C682868AB
:108920000DE024254543AA4E3668AD196D685B1BE2
:10893000044624254543A64E3668AD19286A451CD1
:10894000002D07D024254543A14E3668AD196D682A
:108950009D42E6D3451C002D0CD0242545439C4E5A
:108960003668AD196D68EE1A24254543984F3F6867
:10897000ED196E604B60086224256543944E36689D
:10898000AD192A6200BFF0BDF8B5064691480568EA
:108990002C4609E0B44200D109E02546242060437A
:1089A0008B4909684018046A601C0028F2D100BF96
:1089B000601C002800D1F8BDA54210D18548006890
:1089C00024214843824909684018006A81490860A7
:1089D00008460068401C002801D1FFF749FF242009
:1089E00060437B4909684018476824206043784900
:1089F00009684018016A24206843754A1268801883
:108A0000016224206843724909684018046A601CA6
:108A100000280CD0242060436D4909684018406844
:108A2000C119242060436A4A12688018416000BF5F
:108A3000C1E710B5112000F0FCFB10BD10B51420EB
:108A400000F0F7FB10BD70B50446634800680028CD
:108A500013D0614AE169A06912689047054600BFDA
:108A60002E46002E07D000BF5CA2FF2164313046A5
:108A7000FDF760FC00BF00BF02E0A169E069884724
:108A800070BDF8B553480068401C00283AD0002754
:108A900000F008FC04464D480168204600F005FC43
:108AA00006464C48056811E0242068434849096897
:108AB00044186068B04200D90BE06068361A6068FC
:108AC000C719256A2046FFF7BEFF00BF681C0028B3
:108AD000EAD100BF4D4800784D490978884209D154
:108AE0004B480078401CC0B249490870022801D1A7
:108AF0000020087046480078800046490F50FFF774
:108B00009DFF00BFF8BD014640480078404A1278FA
:108B100090421DD03D480078401C3C4A10701046E1
:108B20000078022801D100201070384800788000B9
:108B3000384A10580860254A086812688018234A85
:108B40001060104600680002000A106001207047A3
:108B50000020086000BFFAE7FEB51E4800680190DB
:108B60002D480078009076E00098C0002B490968F5
:108B7000441825786BE01820684361680F18681C5A
:108B8000C5B2A078A84200D100253878022802D0CA
:108B9000032859D144E02421786848430C490968E6
:108BA0004618307D002804D07868FFF7EDFE0020DD
:108BB00030754AE01CED00E000E100E000150140E6
:108BC0004013014000100140CC200020B8200020BC
:108BD000A8200020B4200020C82000202E2E5C2ECB
:108BE0002E5C2E2E5C2E2E5C2E2E5C536F757263C7
:108BF000655C6170705F636F6D6D6F6E5C617070EE
:108C00005F74696D65722E6300000000C42000204F
:108C1000C5200020BC200020AC200020B020002077
:108C20000CE0F849096824225143F74A1268881871
:108C300000210175F34A016A116000BFF148006824
:108C4000401C0028EDD100E000BF00BF00BF6078ED
:108C5000A84290D100BF0098411EC9B200910028DF
:108C600082D1E84801680198814201D00120FEBD0F
:108C70000020FCE7F0B50346002426E0E14E36680C
:108C800024277E43E04F3F68F01946689E4203D98F
:108C90004668F61A46601DE046689B1B4668341914
:108CA000002646600675D74E3568D64F066A3E6088
:108CB0000669002E08D00E193602360A866006694B
:108CC000C66016680662156000BFCE480068401C8A
:108CD0000028D3D100BFF0BDFEB50746C9480068E3
:108CE0000290CA48007801906BE00198C000C84922
:108CF000096845185DE0781C002807D03E4624200E
:108D00007043C14909684418276A23E02978182369
:108D100059436A6850182978491C29702978AA781B
:108D2000914201D100212970466824217143B64A3D
:108D300012688C180178012902D1217D002900D008
:108D400037E08168A160C168E16001692161416922
:108D5000E16100BFAF49A0680968401A0002000A3B
:108D6000AD49884208D2AB49A068096800F09DFA75
:108D7000E1684018606011E0A648A168006800F052
:108D800094FA0090E1680098814204D9E168009863
:108D9000081A606001E00020606000BF0020A06051
:108DA000E06001202075801E20623046FFF782FDC2
:108DB00000BF781C00289ED12878697888429AD113
:108DC00000BF0198411EC9B2019100288DD18D4884
:108DD00001680298814201D00120FEBD0020FCE71D
:108DE000FEB588480068401C002834D085480068DB
:108DF00024214843844909684018456800F052FA24
:108E00000190844804682146019800F04EFAC61C7F
:108E100082480078002801D1FFF712FDAE4201D24E
:108E2000284600E0304604192402240A20467C49E2
:108E3000086000BF00F036FA00900199009800F039
:108E400034FAC71C2046019900F02FFA874201D955
:108E5000FFF7EFFD01E0FFF70BFDFEBDFEB50020C3
:108E6000C04301906B480468664807686846FFF78E
:108E70004AFE0546FFF770FE0646002D05D001AA02
:108E800021460098FFF7F6FE01260198FFF724FF20
:108E9000002800D00126002E02D03846FFF7A0FFA0
:108EA000FEBD4170704770B502460B465078411CBC
:108EB0009078884200D100211078884201D10020AA
:108EC00070BD196050781826704355682C182046DC
:108ED000F6E7FFB581B005460E461746E9004C4A55
:108EE000126888186946FFF7DEFF0446002C02D19D
:108EF000042005B0F0BD01202070666000F0D2F9BA
:108F0000A060E760049820610A986061E900404A27
:108F1000126888180099FFF7C4FFFFF78FFD002043
:108F2000E7E7F8B504460E46E100394A12688818AA
:108F30006946FFF7B8FF0546002D01D10420F8BDB2
:108F4000022028706E60E100314A1268881800998A
:108F5000FFF7A7FFFFF772FD0020F0E738B50446E2
:108F6000E1002B4A126888186946FFF79CFF054606
:108F7000002D01D1042038BD03202870001F686037
:108F8000E100234A126888180099FFF78AFFFFF76B
:108F900055FD0020EFE710B50020224908600021B0
:108FA000204841608160C16000201E49403908604E
:108FB0004860FFF766FD10BD10B5FFF74FFF10BD0D
:108FC000FFB581B00E4617461C4620468107890F23
:108FD000002901D1012100E00021002902D1072050
:108FE00005B0F0BD002C01D10720F9E7FFF740FCE8
:108FF0000D490A9808600D48067003480460002572
:1090000023E00000B4200020A8200020AC20002095
:10901000B0200020B8200020FFFF7F00CC200020DF
:109020004015014040110140C8200020A42000202C
:109030000021242068439F4A126811542420684369
:109040009C4A1268801801756D1CB542F0DB242023
:109050007043041903209849087098480460183434
:1090600000250CE0E900954A12688818002101707B
:10907000417087704460182179430C196D1C032DD1
:10908000F0DB0020C0438E49086000208D49087045
:109090008D490870142000F0D3F803211420FFF745
:1090A0008FFB142000F0BEF80198FFF7C0FB00F022
:1090B000F9F886490860002092E770B503460C462F
:1090C0007C480068002801D1082070BD002A01D129
:1090D0000720FAE7002B01D10720F6E700211CE06A
:1090E00024204843734D2D68285C002814D10125A5
:1090F000242048436F4E36683554242048436D4D34
:109100002D6840194470242048436A4D2D68401949
:10911000826119600020D8E7491C6D4800788142BF
:10912000DEDB0420D1E710B500F092F8012802D070
:10913000032804D101E0002403E0012401E002241B
:1091400000BF00BF204610BDFEB504460D461646C2
:1091500058480068002801D10820FEBD5C4800780E
:10916000844201D2052D01D20720F6E72420604376
:1091700050490968085C012801D00820EDE7242047
:1091800060434C49096840184078012801D12846BD
:1091900000E000200746FFF7C6FF3B462A4621466F
:1091A00000960190FFF795FED7E770B50446414859
:1091B0000068002801D1082070BD4548007884422D
:1091C00001D30720F8E7242060433A490968085C86
:1091D000012801D00820EFE7FFF7A5FF054621464B
:1091E000FFF79FFEE8E710B532480068002801D17C
:1091F000082010BDFFF797FF0446FFF7AFFEF8E722
:1092000010B5044600F04EF82060002010BD70B587
:1092100005460E4614463146284600F046F82060C2
:10922000002070BDC206D20E01219140294A116072
:109230007047C206D20E01219140274A1160704743
:10924000C206D20E01219140234A8032116070473C
:1092500010B522484068C105C90D002920D00A4632
:10926000103A50B200280DDA1C4B1C330407240FAF
:10927000083CA408A4001B598407E40EE3401B0625
:109280009B0F0BE0134B032424021B198408A4003A
:109290001B598407E40EE3401B069B0FD8B210BD98
:1092A0000420FCE70E48406870470246501A00024E
:1092B000000A7047A8200020AC200020B020002029
:1092C000B4200020C4200020C5200020B8200020A9
:1092D000A420002000E100E000E200E000ED00E05A
:1092E0000015014070B506460C4615462946204635
:1092F000FDF72EF870BDF8B55A480078002800D167
:10930000F8BD59480068002801D1012000E0002084
:10931000054656480068002801D1012000E00020E1
:10932000064600BF002D14D1684651DF0446052CC7
:1093300001D101250CE0002C06D000BF4CA2692110
:109340002046FCF7F7FF03E0474900980968884783
:1093500000BF002E1AD15448008800906946534837
:10936000006861DF0446052C01D101260DE0002CC8
:1093700006D000BF3EA280212046FCF7DBFF04E0C0
:109380004A48006839490968884700BF002D02D063
:10939000002E00D000E0C5E700BF00BFB0E7FFB57A
:1093A00081B00C4616461F46002C02D1072005B09E
:1093B000F0BD20468107890F002901D1012100E07D
:1093C0000021002901D10720F1E738480460364820
:1093D0000680374807603749019810DF0546002DA1
:1093E00001D02846E3E701201E490870162026DF39
:1093F000DDE710B511DF0446002C01D0012000E0AC
:10940000002018490870204610BD0146002901D1EE
:109410000E207047154801600020FAE70146002938
:1094200001D10E207047104801600020FAE770B5A6
:109430001F480068002811D01D4800688047044676
:1094400000BF2546002D07D000BF09A2FF21333100
:109450002846FCF76FFF00BF00BF01E0FFF74BFF9E
:1094600070BD0000DA200020E0200020DC20002079
:109470002E2E5C2E2E5C2E2E5C2E2E5C2E2E5C5301
:109480006F757263655C73645F636F6D6D6F6E5C47
:10949000736F66746465766963655F68616E646C3A
:1094A00065722E6300000000D8200020D420002028
:1094B000D0200020E592010001464888B74A128872
:1094C000904206DB4888B54A5288904201DC012070
:1094D00070470020FCE738B50546B1480088B1491F
:1094E00088423BD0B0480078401CAF490870AF4874
:1094F000007B097888420FDBA849A948008875DFFE
:109500000446002C07D0A9488069002803D0A7484A
:1095100081692046884721E00020A3490870A348BC
:10952000007C00280FD03B219D48008876DF044650
:10953000002C07D09D488069002803D09B48816992
:109540002046884700BF99484069002806D000207F
:109550000090964841696846884700BF38BD70B59D
:1095600005461C2229469148FCF71EFE0020904922
:109570000870286800280BD008228848296805F060
:1095800075FD86487ADF0446002C08D0204670BD61
:1095900082487BDF0446002C01D02046F7E70020FC
:1095A000C0437F49088000207F490870814A00211C
:1095B0008148FFF782FDEAE710B57F480068FFF7B2
:1095C000F4FD10BD38B57D48FFF776FF002829D19E
:1095D0007748007800280AD074484069002820D0D5
:1095E00000200090714841696846884719E06E483C
:1095F0000078002802D16D48456801E06B48856815
:10960000002229466C480068FFF79EFD0446002CA6
:1096100007D066488069002803D0644881692046E5
:1096200088470AE061484069002806D00120009080
:109630005E4841696846884700BF00205C49087061
:1096400038BD10B50446A088554908800822214637
:109650000E315A4805F00AFD00205349087053485E
:10966000C089002801D1FFF7ADFF10BD70B50546D8
:109670000020C0434A49088000204B4908704E48EA
:109680000068FFF792FD0446002C07D04748806928
:10969000002803D0454881692046884770BD70B5D1
:1096A0000546AC1D20884149C989884220D1208BBC
:1096B00002281DD100BF00BFA17EE27E120211432D
:1096C0000846C107C90F002902D0FFF77BFF0FE052
:1096D00039480068FFF769FD0646002E07D0334879
:1096E0008069002803D0314881693046884700BF2F
:1096F00070BD10B504460822A11D304805F0B6FC27
:10970000FFF760FF10BD10B504462088102806D072
:10971000112808D012280ED0502810D107E020467A
:10972000FFF78FFF0CE02046FFF7A0FF08E0204680
:10973000FFF7B5FF04E02046FFF7DBFF00E000BFC6
:1097400000BF10BD38B5044608222146134805F075
:109750008DFC12487ADF0546002D1CD11748FFF713
:10976000ABFE00280BD10120114908700B490C48B1
:10977000008875DF054601200B4908700BE00B4897
:109780004069002806D001200090084841696846D9
:10979000884700BF0025284638BD0000E42000208F
:1097A000EE200020FFFF0000EC200020CC24002051
:1097B000FC200020D7940100F8200020F020002099
:1097C00070B503460C460820002115E00C254D43DA
:1097D000FE4EAD19AD7A2540002D0CD0FC4DAB42AC
:1097E00005D00C254D43AD192D899D4202D1116044
:1097F000002003E00520491C0029E7D000BF70BD10
:1098000010B504461C216143F24A891808461130FC
:10981000062105F091FC1C216143EE4A88181021B5
:1098200005F08AFCFF211C206043EA4A801801747D
:109830001C206043801881760021C9431C206043AE
:1098400080180183204601F024F910BD7CB505463F
:10985000A9B26A46E04801F00FFE0446002C09D187
:109860005821684601F087FF0446002C02D12846A3
:10987000FFF7C6FF20467CBDF8B505460E461746E5
:109880000520009000241BE0002D06D11C20604321
:10989000D0494018008BB8420DD0002D0FD01C21AC
:1098A0006143CC4A8918084610300722294605F042
:1098B0008EFB002803D134600020009002E0641C7D
:1098C000072CE1D300BF0098F8BD10B50446012174
:1098D0000C206043BD4A80188172891E0C206043B1
:1098E00080180181FF210C2060438018C1720C2177
:1098F00061438818072105F01FFC10BD10B5044610
:10990000002010BDF0B589B007460C461C20019020
:1099100061780C225143AD4A8918088901AA02A92D
:10992000AADF0646002E3FD161784901AB4A89186B
:10993000081D69468A8802A905F049FB002811D153
:1099400060780C214843A1494018807A02210840E0
:10995000022829D061784901A04A8818202105F001
:10996000EDFB21E0607840019C490858002801D0B7
:109970009B4D00E09B4D6946888861784901974A74
:109980005050617849018918081D69468A8802A9E2
:10999000FCF70AFC60784001904A811834232022A9
:1099A0003846A847064600BF002009B0F0BD024671
:1099B0000020704770B505460C4661784901874A1A
:1099C000881834232022294601F064FE0646002E22
:1099D0000AD16078400181490858401C002803D111
:1099E000617849017D4A5050304670BD02460020E2
:1099F0007047F8B504460026002760784001774993
:109A0000085800281CD060780C2148436F49401842
:109A1000807A40210840402812D160780C214843C8
:109A20006A494018807A20210840202808D06078B0
:109A300040016A494018061D60784001085A87B203
:109A400061780C225143614A891808893A463146A7
:109A5000A9DF0546002D00D0634D2846F8BD01461C
:109A6000002070470146002902D15F483338704713
:109A7000FF20087048708870C8700020F7E7FFB5B5
:109A80008BB00F461D4600BF58480068002801D122
:109A90000FB0F0BD00BF1498582800D9F8E7012096
:109AA000029007A8FFF7DEFF064600BF0196019E61
:109AB000002E06D000BF4E4A4E490198FCF73AFCF2
:109AC00000BF00BF00216846017708A80170069515
:109AD000149805900020019016E0019881B203AA25
:109AE0003D4801F0C9FC0646002E0AD1082203A910
:109AF0000B9805F06CFA002803D169460198887725
:109B000005E00198401C019001980728E5D300BFAB
:109B10006846807FFF2873D0042F0AD114985828F4
:109B200003D1202008A908707EE0402008A9087011
:109B30007AE02849681A1C2105F002FB0446072C2C
:109B40001DD205A809900D98002810D16946887F7C
:109B500001218140284A12681140002901D00121C9
:109B600000E00021002902D1002002905CE069465B
:109B7000887F00F08EFF202008A9087054E01F495C
:109B8000681A182105F0DCFA0446002C0DD105A84E
:109B90000990202108A8017068464477807F1C2125
:109BA00048430C49401806903EE00C48281A4409E6
:109BB000002C34D1302108A8017068464477012177
:109BC000C1770C206043014940181AE0E4250020C9
:109BD000FFFF0000E824002000210020C425002011
:109BE000CBB5010001B5010041800000F025002047
:109BF00098210200C304000008210020AC250020A9
:109C000034E0807A0221084002280DD06946497F5D
:109C10004901FB4A8818202105F090FA04E0002051
:109C20000290402008A90870029801281ED1042F34
:109C300006D108A908780321084308A908700EE096
:109C4000032F06D108A908780121084308A9087044
:109C500005E008A908780221084308A9087005A8AA
:109C6000099008A907A80D9A00F056FF00BF0FE75A
:109C70007FB50646002E02D1E24804B070BD002434
:109C80000BE000BF00210C206043DF4A11500C2084
:109C900060438018817200BF641C002CF1D0002446
:109CA00003E02046FFF711FE641C002CF9D02021B0
:109CB000D34805F043FA002406E02046FFF7A0FD54
:109CC000FF20D2490855641C072CF6D3582168465A
:109CD00081810721C181CE480290CE4902A801F0BE
:109CE00005FB0546002D30D10120CB4908703078A6
:109CF000002821D100241CE0A1B26A46C54801F029
:109D0000BBFB0546002D0FD11C216143C34A8818B7
:109D100000231C22694601F0BDFC0546002D07D03A
:109D20000020BD49087006E00020BB49087002E031
:109D3000641C072CE0D308E06A469089D28950431E
:109D400081B2B44801F017FD0546284695E770B585
:109D500005460C4600BFB0480078002802D1A9484B
:109D6000801F70BD00BF002D01D1A648F9E7002C6F
:109D700001D1A448F5E72068002801D1A148F0E707
:109D8000A148006800280FD19F492068086006227A
:109D9000A11D9D48001D05F069F920799A49887236
:109DA00000202870002601E0964E0A3E3046D8E793
:109DB00070B5044600BF98480078002802D1914849
:109DC000801F70BD00BF002C01D18E48F9E700BF95
:109DD0002078012806DA20780C2148438A4908585F
:109DE000002802D18748801FEBE700BF00BF6078E2
:109DF000012807DA60780C21484389494018807AA5
:109E0000012802D17F48801CDBE700BF7D4DAD1FDC
:109E100060780C21484382494018807A022108402A
:109E2000022809D161780C2251437D4A891808899A
:109E30007549091D7EDF05462846C2E7024600BF78
:109E400075480078002802D16E48801F704700BF17
:109E5000002A01D16B48F9E7002901D16948F5E7EB
:109E600000BF1078012806DA10780C235843664B9F
:109E70001858002802D16348801FE7E700BF00BFE1
:109E80005078012807DA50780C235843644BC018E7
:109E9000807A012802D15B48801CD7E700BF507848
:109EA0000C2358435E4BC018807A042318400028C6
:109EB00002D0012008700EE050780C235843584B14
:109EC000C018807A40231840002802D00220087071
:109ED00001E0002008700020B8E7F0B5044600BF9C
:109EE0004D480078002802D14648801FF0BD00BFD1
:109EF000002C01D14348F9E7002901D14148F5E799
:109F00000868002801D13F48F0E78868002801D19F
:109F10003C48EBE700BF2078012806DA20780C25C2
:109F20006843394D2858002802D13648801FDDE7A4
:109F300000BF00230022002024E01C254543374EAB
:109F4000AD19AD7EED07ED0F002D08D11C25454361
:109F5000AD1997008E68F5512C4EB054521C1C253B
:109F600045432E4EAD19AD7E02263540002D08D159
:109F70001C254543294EAD1910359F000E68F5513B
:109F80005B1C401C072805D20D799D4202D90D7B30
:109F90009542D2D80B710A730020A7E702461948F0
:109FA0008230704770B5044600BF1B480078002817
:109FB00002D11448801F70BD00BF002C01D1114890
:109FC000F9E700BF2078012806DA20780C21484301
:109FD0000D490858002802D10A48801FEBE700BF4E
:109FE00000BFA078072807DAA0781C2148430B4956
:109FF0004018807EFF2815D10248801CDBE7000056
:10A00000C42500200E800000F02500200D21002036
:10A010007F9A0100002100200C210020E82400206C
:10A02000E425002000BFA078FFF710FC0546284675
:10A03000C1E770B5044600BFFE480078002801D192
:10A04000FD4870BD00BF002C02D1FB48801DF8E721
:10A0500000BF2078012806DA20780C214843F74910
:10A060000858002801D1F448EBE700BF002600257E
:10A070000BE01C206843F2494018807EFF2803D083
:10A080002846FFF7E3FB06466D1C072DF1D330464B
:10A09000D7E7FEB504460D4600BFE6480078002825
:10A0A00001D1E548FEBD00BF002C02D1E248801D71
:10A0B000F8E7002D02D1E048801DF3E700BF2078CB
:10A0C000012806DA20780C214843DC49085800288A
:10A0D00001D1D948E6E700BF00BF6078012807DA60
:10A0E00060780C214843D7494018807A012802D172
:10A0F000D1480830D6E700BF00BFA078072807DAAC
:10A10000A0781C214843CE494018807EFF2802D108
:10A11000C9480830C6E700BFA868002811D06868A1
:10A1200000280ED068681C280BD22878012808D196
:10A1300063785B01C44FDB19181D6A68A96804F0D5
:10A1400095FFA1786A46C14801F096F9064628783D
:10A150008000BF490A582146684690470646304667
:10A16000A0E77CB504460D4600BFB2480078002841
:10A1700001D1B1487CBD00BF002C02D1AE48801D8A
:10A18000F8E7002D02D1AC48801DF3E700BF20782E
:10A19000012806DA20780C214843A84908580028ED
:10A1A00001D1A548E6E700BF00BFA078072807DA7D
:10A1B000A0781C214843A2494018807EFF2802D184
:10A1C0009D480830D6E700BF60780C2148439D4980
:10A1D0004018807A02210840022802D0964889302F
:10A1E000C8E7A86800280FD168681C280CD2287816
:10A1F000012809D16078400193494018001DA860EA
:10A200006078400108586860A1786A468F4801F07C
:10A2100033F90646287880008E490A582146684658
:10A22000904706463046A5E7014600BF81480078C2
:10A23000002801D18048704700BF002902D17E4824
:10A24000801DF8E700BF0878012806DA08780C229C
:10A2500050437A4A1058002801D17748EBE700BFF5
:10A2600000BF8878072807DA88781C225043744A90
:10A270008018807EFF2802D16F480830DBE700BFDE
:10A280006D488830D7E702466B48893070470246F0
:10A2900069488930704701466748893070470246EF
:10A2A00000BF64480078002801D16348704700BFB0
:10A2B000002902D16048801DF8E7002A02D15E48DB
:10A2C000801DF3E700BF1078012806DA10780C2310
:10A2D00058435A4B1858002801D15748E6E700BFA9
:10A2E000107808700020E1E7FEB504460E46A1781C
:10A2F0006A46564801F0C0F80546002D49D16078FD
:10A300000C2148434F494018807A202108402028DA
:10A3100001D0022E01D1504F04E0012E01D14F4F48
:10A3200000E04F4FA0781C225043454A811800237B
:10A330001C226846B8470546002D1AD1022E18D0B7
:10A3400060780C2148433F494018807A2021884397
:10A3500061780C2251433B4A891888726078182230
:10A360005043404A81181C2318226846B8470546C6
:10A3700000BF022E0DD020780C2148432F494018F1
:10A38000807A800032490A5821466846904705463F
:10A3900000BFFEBD70B504460D4600BF25480078DD
:10A3A000002801D1244870BD00BF002C02D12248F2
:10A3B000801DF8E7002D02D11F48801DF3E700BF84
:10A3C0002078012806DA20780C2148431B490858D8
:10A3D000002801D11848E6E700BF00BFA078072891
:10A3E00007DAA0781C21484315494018807EFF28D1
:10A3F00002D111480830D6E700BF6078FF2839D174
:10A400002878022836D0A1781C2251430C4A89189A
:10A41000084610300722294604F028FEA0780121C2
:10A420008140114A126811430F4A116000BF022196
:10A4300020461BE00C21002008800000F0250020B1
:10A44000E8240020E4250020C4250020002100206D
:10A45000E4130200F4130200CBB5010001B50100C2
:10A46000FD980100AC25002008210020FFF73CFFEB
:10A47000002600E0FE4E304695E770B504460E46D5
:10A4800000BFFC480078002802D1F948401C70BD8C
:10A4900000BF002C02D1F648C01DF8E7002E02D103
:10A4A000F348C01DF3E700BF2078012806DA2078C2
:10A4B0000C214843F0490858002802D1EC48401CC0
:10A4C000E5E700BFEA4DAD1EA078FF2817D1607800
:10A4D000FF282AD060780C214843E8494018807A48
:10A4E00002210840022820D160780C225043E34A20
:10A4F00081180722304604F0B9FD002515E0A07848
:10A500001C214843DE494018807E02210840002873
:10A510000BD1A0781C225043D94A80180146103133
:10A520000722304604F0A2FD00252846AFE77CB59F
:10A530000446A1786A46D34800F09EFF0546002DE8
:10A5400013D1617818225143CF4A88181C2318224E
:10A55000694601F09FF8C848807A8000CB490A58C4
:10A56000214668469047054600BF7CBDF0B589B0DE
:10A5700004460026FF20029000BFBE480078002855
:10A5800001D109B0F0BD00BF00BFBB480068002882
:10A5900000D1F6E700BF06A8FFF764FA054600BF42
:10A5A0002F46002F06D000BFB94ABA493846FBF7FC
:10A5B000C1FE00BF00BF0020019007900025201DB4
:10A5C0000490342168468182FF2181760021017642
:10A5D000002008902088102813D0A08808AA022103
:10A5E000FFF7EEF80546002D0BD10C2108984843E3
:10A5F000A2494018C17A684681760898C1B2684677
:10A6000041762088142879D006DC10280BD0112838
:10A6100079D0132874D1F5E0172872D0182871D09A
:10A620005228F7D10FE208AF3A4601219A48FFF7C6
:10A63000C7F800900098002807D102210C22386842
:10A6400050438E4A8018817201E0042000900098E7
:10A650000546002D51D10126112168460173089845
:10A66000C1B268464176A1880C2208985043834ABB
:10A670008018018102210C22089850437F4A8018DB
:10A6800081720C22089951437C4A88180722A11D27
:10A6900004F0ECFC607B304000280AD0607B40086E
:10A6A0007E49085CFF280AD0607B4008085C029065
:10A6B00005E0794A02A9A01DFFF7DEF80546002D46
:10A6C0001BD10298C1B20C22089850436B4A8018E3
:10A6D000C1720C210898484311464018807A08211D
:10A6E00008430C2208995143644A891888726946C4
:10A6F0000298887606A8FFF71AFFAEE141E002E073
:10A70000AAE1DAE07EE10C21089848435B49401851
:10A71000807A022188430C2208995143574A8918AC
:10A7200088720C210898484311464018807A082105
:10A73000084008280ED10C210898484311464018BB
:10A74000807A4021084040280FD1002106A8FFF759
:10A75000CBFD0AE06846807EFF2806D06946887EE9
:10A76000FFF74EF8FF206946887610210C220898E2
:10A770005043424A801881720126122069460873AC
:10A780006BE10C21089848433C494018C07AFF28E7
:10A7900023D1E28902A90020FFF76EF80546002DBB
:10A7A0001BD10298C1B20C2208985043334A80183A
:10A7B000C1720C210898484311464018807A08213C
:10A7C00008430C22089951432C4A8918887269461B
:10A7D0000298887606A8FFF7AAFE0C21089848433D
:10A7E00026494018C07AFF2806D018210898484307
:10A7F00025494018001D0190A0880022019981DFA1
:10A8000005462AE1132069460873A0881A4A121DDA
:10A8100000217FDF0546002D02D0079500264BE082
:10A820000C210898484315494018807A04210843B0
:10A830000C2208995143114A8918887201260C216B
:10A840000898484311464018C07AFF2834D000BF0A
:10A8500016206946087308994901114A8918081D8C
:10A860001C2104F06BFC0C2108984843034919E0B3
:10A87000078000000C210020F0250020E4250020A6
:10A88000E824002000210020AC250020F413020061
:10A890009821020037090000FFFF00000D21002071
:10A8A000C42500204018807A202108430C220899F2
:10A8B0005143B94A89188872CFE00C21089848435F
:10A8C000B5494018807A042188430C2208995143E5
:10A8D000B14A891888721420694608730126A07944
:10A8E000002802D0A07907908BE0182108984843EF
:10A8F000AA494118E07A8870182108984843A74966
:10A900004118A07A4870182208995143A34A89181F
:10A91000081D142221460C3104F0A8FB0C210898D4
:10A9200048439D494018807A40210840402868D11A
:10A930000C210898484398494018807A0821084318
:10A940000C2208995143944A891888720C2108985E
:10A95000484311464018C07AFF2840D10C2208987D
:10A9600050430A46811802A800F09BF80546002DC6
:10A9700033D16946029888760298C1B20C220898B1
:10A980005043854A8018C172A1891C220298504305
:10A99000834A80180183E07A4007C00F002817D04F
:10A9A0001C22089951437E4A8818102221462031E2
:10A9B00004F05CFB1C210898484379494018807ECC
:10A9C000410849001C2208985043754A8018817636
:10A9D000012106A8FFF788FC13E0079511E00C2180
:10A9E000089848436C494018807A202108430C227B
:10A9F00008995143684A89188872002106A8FFF710
:10AA000073FC2AE00C210898484363494018807A77
:10AA1000402108430C22089951435F4A89188872E3
:10AA20001520694608730020079001265D48807A4A
:10AA300080005D4A115806A888470546002D01D0C0
:10AA40005A48079009E05748807A8000564A1158C2
:10AA500006A88847079000E000BF00BF002E16D070
:10AA600003A906A8079A00F057F86846007B122849
:10AA70000DD100BF0C210898484347494018807AFF
:10AA8000012802D00898FEF720FF00BF00BF00BFDA
:10AA900077E501218140464A12688A4344490A60A9
:10AAA0007047F8B505460E46404FBF1C00242EE007
:10AAB0001C2060433A494018807EFF2826D1307818
:10AAC000022814D01C2060434018807E0221884355
:10AAD0001C216143324A891888761C2161438918F8
:10AAE000084610300722314604F0C0FA0BE01C2063
:10AAF00060432B494018807E410849001C20604378
:10AB0000274A801881762C70002702E0641C072CED
:10AB1000CED300BF3846F8BDF8B504460D461646FC
:10AB200020480768324629462046B847F8BD024605
:10AB30000020704770B505460E4631462846FEF7A0
:10AB4000E1FE0446002C02D100BF00BF04462046AF
:10AB500070BD02460020704770B505460E4631466E
:10AB60002846FEF727FF0446002C02D100BF00BF95
:10AB70000446204670BD01460020704770B505466A
:10AB80002846FEF736FF0446002C02D100BF00BF66
:10AB90000446204670BD0000E4250020AC250020BE
:10ABA000E8240020F0250020041402004180000069
:10ABB00008210020002314214143FC4A535414214E
:10ABC000414389184B8001231421414389188B602C
:10ABD0000023142141438918CB6014214143891873
:10ABE0000B611421414389188B80704710B50020F8
:10ABF000EF490880EF490870EC49091F0870487058
:10AC00008870002403E02046FFF7D4FF641C0A2C60
:10AC1000F9D310BDFFB583B004460F461546032691
:10AC2000E448007800280BD1002D06D106980028B2
:10AC300003D10220DF49087002E00120DD490870DD
:10AC4000DC480078030005F012FD07FD05314E8455
:10AC5000BAD7FD00D8484069401C002808D001221E
:10AC60001207126991B2D44A506904F069FA02E0FD
:10AC7000012000074069401E01210907096989B2C6
:10AC8000484302900120000700690004820C012063
:10AC90000007006980B278430146029821DF06462A
:10ACA000002E02D10220C3490870D0E0384620DFD0
:10ACB0000646002E16D1002D11D1069800280AD183
:10ACC0002078042803D10720BA4908700AE005203B
:10ACD000B849087006E00420B649087002E0032075
:10ACE000B4490870B3E0B4484069401C002808D05B
:10ACF00001221207126991B2AF4A506904F020FA9A
:10AD000002E0012000074069401E0121090709698E
:10AD100089B24843012109070290096989B2794340
:10AD200008462A46029921DF0646002E10D10698D1
:10AD300000280AD12078042803D106209D490870F4
:10AD400006E005209B49087002E00420994908703C
:10AD50007DE099484069401C002808D00122120774
:10AD6000126991B2944A506904F0EAF902E00120B4
:10AD700000074069401E01210907096989B248435B
:10AD8000A90040186188401801210907029009694B
:10AD900089B27943AA00891862888818069A0299AC
:10ADA00021DF0646002E09D12078042803D1062091
:10ADB0008049087002E005207E49087047E00120C4
:10ADC0000007006980B27843AB00C0180290608829
:10ADD00082082169029821DF0646002E0BD1002D42
:10ADE00006D10698002803D107207249087002E0B6
:10ADF0000620704908702AE06F484069401C00280E
:10AE000008D001221207126991B26B4A506904F00E
:10AE100097F902E0012000074069401E012109075F
:10AE2000096989B24843019001200007006981B295
:10AE3000019804F085F9029020DF0646002E04D127
:10AE4000072000E002E05B49087000E000BF00BF9F
:10AE5000304607B0F0BDF0B585B00F275348001F4E
:10AE600000781421484351494418E56820780228A5
:10AE700004D0042823D005286FD16FE02069039007
:10AE80004B48008886026088801B049003988019D4
:10AE90000390A088801945190121890204988842ED
:10AEA00006D2049882082846039921DF074605E068
:10AEB000FF2201322846039921DF074681E0A0687E
:10AEC00000013E49401800890490A0680001401824
:10AED00040890390A06800014018406802900298E1
:10AEE000A84205D10399049848436188884202D05A
:10AEF000A06802280DD101200007006981B2284610
:10AF000004F01EF92A4909884618304620DF074612
:10AF100022E001200007006981B2284604F010F900
:10AF2000064601200007006980B27043281A800895
:10AF3000019001200007006980B2711C48436188BC
:10AF40004919401A8008009031462046009B019A1A
:10AF5000FFF760FE074600BF33E031E00120000745
:10AF6000006981B2284604F0EBF80646A088411932
:10AF700001200007006980B27043081A800804901D
:10AF8000A08840196188421801200007006980B23A
:10AF9000711C4843801A8008039031462046039B69
:10AFA000049AFFF737FE07460BE00000002600205A
:10AFB0001C2100201F21002000100010C8260020A6
:10AFC00000BF00BF002F02D10120F9498870384628
:10AFD00005B0F0BDFFB581B0064617460024F44821
:10AFE00040780A2837D0F2480078F149497840186B
:10AFF000C4B20A2C02DB20460A38C4B214206043D3
:10B00000EB49091D0E5414206043401807611420B9
:10B0100060434118029805C8CA60886014206043E4
:10B02000E34A121D8018049941801420604380185F
:10B030000A9981800025101F8078002805D1FFF72C
:10B040000AFF0546112D00D10025D9484078401C43
:10B05000D749487000E00425284605B0F0BD10B57A
:10B060000024D3484078002807DDFFF7F4FE0446AB
:10B07000002C02D0112C00D10024204610BDF8B5C0
:10B080000446CB48007814214843C949091D0E5C89
:10B09000081F007814214843C549091D40188068DD
:10B0A0000001C4490D58C248007814214843C049E2
:10B0B000091D40184088091F009009781422514347
:10B0C000BB4A121D89180B69111F097814225143BC
:10B0D000B74A121D89180846083022463146A8474B
:10B0E000F8BDFEB505460026B148807801287DD11F
:10B0F0000020AF498870B0480078082811D1022D8F
:10B1000003D10020AC49087002E00020AB49087070
:10B11000FFF7A5FF0646002E02D03046FFF7AFFF2F
:10B12000FEBD022D02D0032D79D174E0A048007835
:10B13000142148439E49091D4418A1480088401C19
:10B140009F4908802078022807D10846008880029D
:10B150006188884201DB012000E00020074620785A
:10B16000052805D194480078072801D1012000E086
:10B17000002002902078042805D18F480078072805
:10B1800001D1012000E000200190207804280BD19B
:10B190008B48008880026188884205DB86480078F9
:10B1A000002801D1012000E0002000900298002832
:10B1B00007D10198002804D10098002801D1002F60
:10B1C0001FD000207C4908703046FFF758FF7849AF
:10B1D0000878FFF7EFFC0020794908807448407830
:10B1E000401E734948700846007800E01AE0401C91
:10B1F0000870084600780A2803DB084600780A38F9
:10B200000870FFF72CFF0646002E02D03046FFF7ED
:10B2100036FF05E003E00D20FFF731FF00E000BF3F
:10B2200000BF00BF00BF7BE770B5FFF7DFFC002069
:10B230006449088064484069401C002808D0012205
:10B240001207126991B2604A506903F079FF02E077
:10B25000012000074069801E01210907096989B2A0
:10B2600048435A49086000205549088000BF0DE056
:10B27000002102014F4B99500201D21811810201A5
:10B28000D21891810201D2185181401C0028EFD0C0
:10B290000820494908704C484069401C002808D0E3
:10B2A00001221207126991B2474A506903F048FF20
:10B2B00002E0012000074069401E012109070969D9
:10B2C00089B24843064601200007006981B2304632
:10B2D00003F036FF054620DF0446002C04D1012090
:10B2E0003349887035490870204670BDF8B504466A
:10B2F0000D4600BF31480078002801D10820F8BD74
:10B3000000BF002C01D10E20F9E7002D01D10E2045
:10B31000F5E72068002801D10E20F0E7A088012180
:10B320000907096989B2884202DCA088102801DA7D
:10B330000720E4E7E088002830D023484069401C1B
:10B34000002808D001221207126991B21E4A5069E2
:10B3500003F0F6FE02E0012000074069401E0121D3
:10B360000907096989B24843E188A2885143174A0D
:10B3700012688918884211D3E088A18848430121C6
:10B380000907096989B288420ADDA18801221207EA
:10B39000126990B203F0DEFE002901D00720AEE76B
:10B3A00020798007800F002812D00720A7E700002F
:10B3B000FC250020C82600201F2100201E2100207F
:10B3C0001C21002014210020001000101821002052
:10B3D000FE480088012801D1042090E7FB4800883E
:10B3E0002860FB4800686860F84909880901F94A43
:10B3F000891868684860F549098809012068505033
:10B40000A088F2490988090189180881E088EF4974
:10B4100009880901891848810027A688E1884E43D8
:10B4200000BF781C87B201200007006980B2B042DB
:10B4300005D201200007006980B2361A00E000261C
:10B4400001200007006980B2E14909684018E0491D
:10B45000086001200007006980B2B042E1D9DB48F2
:10B4600000880001DB4940188781D8480088401CCB
:10B47000D6490880002042E73CB5034600BFD648C5
:10B480000078002801D108203CBD00BF002B01D16D
:10B490000E20F9E7002A01D10E20F5E718680028F0
:10B4A00005D118680001CB4C2058002801D1072095
:10B4B000EAE75C68186801940090019C1868000134
:10B4C000C44D40190089484320180190009800019C
:10B4D0002C4600194089009C24016419248960438A
:10B4E000009C2401641964680019019CA04201D8E1
:10B4F0000720C9E7019C0098546010600020C3E752
:10B50000F8B504460E4615461F4600BFB2480078FF
:10B51000002801D10820F8BD00BF002E01D10E2067
:10B52000F9E7002C01D10E20F5E72068002805D1AD
:10B5300020680001A7490858002801D10720EAE740
:10B5400020680001A3494018408921680901A14AE7
:10B5500089180989484321680901891849684018F0
:10B560006168884201D80720D5E7002D06D0206801
:10B570000001984940180089A84201DA0720CAE76B
:10B58000E81921680901934A89180989884201DD6F
:10B590000720C0E7304600F05CF9002804D03846A8
:10B5A00000F057F9002801D11020B4E7606800F0DE
:10B5B00050F9002801D11020ADE72B463246214634
:10B5C00002200097FFF706FDA5E7F8B504460E46F2
:10B5D00015461F4600BF80480078002801D108208A
:10B5E000F8BD00BF002E01D10E20F9E7002C01D1DB
:10B5F0000E20F5E72068002805D120680001754974
:10B600000858002801D10720EAE7206800017149A5
:10B6100040184089216809016E4A89180989484300
:10B62000216809018918496840186168884201D871
:10B630000720D5E7002D06D0206800016549401895
:10B640000089A84201DA0720CAE7E8192168090140
:10B65000604A89180989884201DD0720C0E7304621
:10B6600000F0F7F8002804D0384600F0F2F800287F
:10B6700001D11020B4E7606800F0EBF8002801D198
:10B680001020ADE72B463246214605200097FFF7F4
:10B69000A1FCA5E7FFB581B00C4615461E4600BFCC
:10B6A0004D480078002802D1082005B0F0BD00BF49
:10B6B000002C01D10E20F8E70198002801D10E20BE
:10B6C000F3E72068002805D12068000141490858A7
:10B6D000002801D10720E8E7206800013D49401813
:10B6E0004089216809013B4A891809894843216832
:10B6F00009018918496840186168884201D8072003
:10B70000D3E7002D06D02068000132494018008997
:10B71000A84201DA0720C8E7A819216809012D4AC3
:10B7200089180989884201DD0720BEE7019800F0E9
:10B7300090F8002804D0304600F08BF8002801D1A2
:10B740001020B2E7606800F084F8002801D11020D2
:10B75000ABE7606881192A46019803F087FC0095E1
:10B76000206800011B490F58002203212046019B3D
:10B77000B847002099E7F8B504460D4600BF1648C3
:10B780000078002801D10820F8BD00BF002C01D1AD
:10B790000E20F9E72068002805D1206800010D4936
:10B7A0000858002801D10720EEE720680001094968
:10B7B0004018408921680901064A891809894843C7
:10B7C0002168090189184968401807E01421002000
:10B7D00018210020C82600201E2100206168884210
:10B7E00001D80720D0E7606800F033F8002801D1C5
:10B7F0001020C9E723681B011A4FDB1962685B68D8
:10B80000D01A226812013B46D218118903F098FC25
:10B81000002901D00720B7E700202B460246214629
:10B8200000900420FFF7D6FB06463046ACE7014601
:10B8300000BF0D480078002801D10820704700BFE4
:10B84000002901D10E20F9E708484078086000205F
:10B85000F4E701468807800F002801D101207047D6
:10B860000020FCE7C82600201E210020FC25002027
:10B8700010B5C82301229202FD49FE4803F003F8E7
:10B8800010BD10B586B00446FBA000680390FBA075
:10B8900000680290FAA000680190FAA00068009089
:10B8A000A007800F03A9095C68460175E006800FB8
:10B8B00003A9095C684641752006800F03A9095C4D
:10B8C00068468175A007800F02A9095C684601746B
:10B8D000E006800F02A9095C684641742006800FCB
:10B8E00002A9095C6846817405AA0321E64802F0B2
:10B8F00062FF002803D00020C04306B010BD04AA98
:10B900000321E148001D02F056FF002802D000206C
:10B91000C043F2E70198059000980490042020406D
:10B9200000280AD06846017D012001436846017560
:10B93000007C01210843694608742020204000282B
:10B940000AD06846417D0120014368464175407C2C
:10B950000121084369464874FF2001302040002837
:10B960000AD06846817D0120014368468175807C4C
:10B97000012108436946887405AA0321C248303072
:10B9800002F019FF002802D00020C043B5E704AA46
:10B990000321BD480E3002F00EFF002802D0002027
:10B9A000C043AAE7B94804810020A6E710B586B0D5
:10B9B0000446B648007A8007000F20580390B34829
:10B9C000008904210840002802D0039840420390D7
:10B9D000AE48007AC006800F800020580490AB4823
:10B9E000008920210840002802D004984042049099
:10B9F000A648007A0006800F800020580590A348D2
:10BA00000089FF2101310840002802D005984042FA
:10BA100005909F49039804F0F9FD8900800F0843C1
:10BA200003909B49049804F0F1FD8900800F0843BE
:10BA300004909749059804F0E9FD8900800F0843B8
:10BA400005900398010E6846017003980002010EEC
:10BA50006846417003980004010E6846817003989F
:10BA6000C1B26846C1700498010E6846017104981D
:10BA70000002010E6846417104980004010E6846F8
:10BA800081710498C1B26846C1710598010E68467B
:10BA9000017205980002010E684641720598000483
:10BAA000010E684681720598C1B26846C1726A4645
:10BAB0000C213D20000102F07EFE06B010BD30B525
:10BAC00085B0044673A207CA02AB07C3C82C03DDC6
:10BAD0000020C04305B030BD2146C82003F03AFB2A
