:020000040001F9
:10500000F02E002095CC0100979E0100EB9E010040
:105010000000000000000000000000000000000090
:105020000000000000000000000000001BB50100AF
:1050300000000000000000001FB50100EFB60100F5
:1050400017B701004BB7010083B70100DFBC0100B7
:105050007BCD01000000000087CD01002DCE0100B6
:105060002FCE010031CE010033CE010035CE01003C
:1050700037CE010039CE01003BCE01003DCE01000C
:105080003FCE01007795010041CE010043CE0100E3
:10509000B195010069CC0100D9A6010045CE0100FF
:1050A00047CE010049CE01000000000000000000D2
:1050B00000000000000000000000000000000000F0
:1050C00088490968012282409143864A11607047ED
:1050D00084490968C1400800C007C00F704700211B
:1050E000B74A0C234343D1500021B54A0C23434314
:1050F000D2189172704770B503000825280000256A
:105100002C00002C1AD1AF4D0C266643AD19AD7A98
:10511000294211D09BB2AC4DAB4207D0A94D0C2611
:105120006643AD192D899BB2AB4203D114600025B3
:10513000280003E005252800641CE2E770BDF8B5EF
:1051400004000D00A148060000200700072F32D2FE
:10515000BA481C2179434018807EFF2829D128783D
:10516000022815D0B5481C2179434018817EFD20C6
:105170000840B2491C227A4389188876AF481C211E
:105180007943401810302900072200F0A9FE0BE0F7
:10519000AA481C2179434018817EFE200840A74977
:1051A0001C227A4389188876380020700020060077
:1051B00001E07F1CCAE73000F2BDF0B583B0040007
:1051C00006200190002000909C481C216143451856
:1051D0001135009A0199280000F0B0FE1026002534
:1051E00096481C21614347182A003100380000F01E
:1051F000A5FEFF2091491C22624389180874FF20F4
:105200008E491C226243891888766F488B491C227C
:105210006243891808832000FFF752FFF7BDF8B5F5
:1052200005000F0016000520009000200400072C48
:105230001CD2002D07D181481C2161434018008BEE
:10524000B6B286420CD0002D0ED0072229007B4832
:105250001C236343C018103000F09AFE002803D1CD
:105260003C600020009001E0641CE0E70098F2BD83
:10527000F8B505000F0016005148046832003900E7
:105280002800A047F1BDF8B50400012090490C2288
:105290006243891888724C488D490C2262438918F0
:1052A0000881FF208A490C2262438918C8720725A9
:1052B000002687480C216143471832002900380036
:1052C00000F03CFEF1BD10B50400814821680C22BD
:1052D00051434018807A012802D02068FFF7D3FF9D
:1052E00010BD0000A426002010B40400002010BC53
:1052F0007047020000207047F1B588B00C00142000
:10530000694608806A4603A92E4863780C256B43DA
:10531000C0180089AADF0190019800284DD1684685
:10532000028803A96B48637818256B43C018001DD9
:1053300000F02EFE002814D1224861780C2251433F
:105340004018807A800738D4182500266148617893
:1053500018225143471832002900380000F0EEFDB2
:105360002BE05C486178182251434058002802D055
:105370005948029001E05948029068460088554912
:10538000627818235A4388506846068803AD51480E
:1053900061781822514347183F1D32002900380018
:1053A00000F09EFD342318224A486178182779437B
:1053B00041180898029FB8470190002009B0F0BD3D
:1053C000FC250020F0250020FFFF000043800000A6
:1053D00002000020704770B504000E00310020006C
:1053E000FFF78AFF0500002D04D131002000FFF7F0
:1053F000EFFF0500280070BD020000207047F8B5DF
:1054000005000C00342318222900AC4866781827C0
:105410007E43801901F091FB00280ED1A7496278E4
:1054200018235A4389580022D243914205D10021C2
:10543000A24A637818267343D150F2BDD4230020CA
:1054400002000020704770B504000E0031002000FB
:10545000FFF7D5FF0500002D04D131002000FFF734
:10546000EFFF0500280070BD01000020704770B5F7
:1054700003000021002217485D7818267543405923
:10548000002816D012485D780C2675434019807AA2
:1054900060250540402D0CD10E485D7818267543D7
:1054A0004019001D01000B485D78182675434059CE
:1054B000020092B2064E5D780C20454370190089B7
:1054C000A9DF0400002C01D0B7480400200070BD03
:1054D000F02500206C250020516A01005D69010063
:1054E00001000020704738B504002000FFF7BFFF1F
:1054F0000500002D03D12000FFF7F2FF0500280072
:1055000032BDF7B58CB01D00149FA8480068002874
:1055100000D1D1E0512F00D3CEE00126684600F043
:1055200095F9059005980400002C04D0A04AA149E3
:10553000200001F059FC00206946087000206946EF
:105540000872079506970024072C15D20AAA210095
:1055500089B2B14801F0ACF905900598002809D14D
:1055600008220AA90C9800F013FD002802D1684611
:10557000847001E0641CE7E768468078FF2800D16A
:105580009AE00DA80078042809D1502F03D12020DB
:10559000694608726AE040206946087266E09F48E2
:1055A000281A1C2102F099F901900198072815D2B8
:1055B00006A803900E98002808D168468078FFF767
:1055C00087FD002802D1002006004FE06846807861
:1055D000FFF776FD20206946087247E09048281AB8
:1055E000182102F07AF90190019800280FD106A83D
:1055F00003902020694608720198694648708748E0
:10560000694689781C225143401807902EE02B48A8
:10561000281A182102F061F901900198002820D180
:105620003020694608720198694648700120694631
:10563000C8707C4801990C2251434018807A800739
:1056400014D418200990002008901C486946497815
:10565000182251434418089A0999200000F06EFC62
:1056600004E000200600402069460872F6B2002ED1
:1056700022D00DA80078042806D16846007A0321BC
:1056800001436846017210E00DA80078032806D196
:105690006846007A012101436846017205E06846C8
:1056A000007A022101436846017206A803900E9A0F
:1056B00002A96846FFF7DCFD0FB0F0BD6C250020A5
:1056C000F1B586B00698002801D157486AE000205D
:1056D0000400002C04D12000FFF701FD641CF8E752
:1056E00000200400002C04D12000FFF7CCFD641C36
:1056F000F8E71820029000264C4F3200029938003B
:1057000000F01CFC00200400072C07D22000FFF74B
:1057100054FDFF2046490855641CF5E750206946B2
:10572000888007206946C880424800903A49684608
:1057300001F006F80500002D33D101203E49087024
:1057400006980078002822D100200400072C28D2D7
:1057500003AA210089B2304801F0AAF80500002D03
:1057600011D100231C2203A92C481C266643801952
:1057700001F0E3F90500002D03D000202E49087048
:105780000FE0641CE2E700202B49087009E068463E
:1057900081886846C088414389B21F4801F056FAA3
:1057A0000500280007B0F0BD41800000FC25002066
:1057B000D8C90100C304000070B504000D001E48E4
:1057C0000078002801D11D4824E0002C01D11648A2
:1057D00020E0002D01D114481CE02868002801D1E8
:1057E000114817E016480068002810D128681449AD
:1057F000086014482900891D062200F071FB2879F1
:105800000F498872002020700020060001E00E4839
:105810000600300070BD000068260020D423002060
:1058200054250020F02500200E8000006C2500206B
:105830007026002003550100E626002008800000A5
:10584000FC250020002600200480000000B5010097
:10585000002901D1574808E0FF200870FF20487058
:10586000FF208870FF20C870002000BD0000FEB53A
:1058700004000D0001AAA17889B24F4801F018F880
:105880000700002F55D14D4861780C225143401834
:10589000807A800602D4EDB2022D02D1484806007B
:1058A00007E0EDB2012D02D14648060001E046486E
:1058B000060000231C2221488446A1781C20414375
:1058C0006046411801A8B0470700002F1CD1EDB277
:1058D000022D19D0394861780C22514340183749BC
:1058E00062780C235A438918897ADF220A4082722F
:1058F0001C231822354884466178182041436046AD
:10590000411801A8B0470700EDB2022D11D02100C7
:1059100001A80090084B2E48844622780C20424370
:1059200060468018827A042042439A580098904733
:105930000700F7BD00000000B0CD0100D423002017
:1059400038B505002A000121C748FFF7D4FB040041
:10595000002C07D1022019492A680C235A438918C0
:10596000887201E004200400200032BDF0B583B04D
:1059700005006A46A97889B20F4800F099FF040033
:10598000002C14D11C231822694610486E78182761
:105990007E43801901F0D1F80400290068460D4AC1
:1059A0000B4B9B7A04267343D25890470400F7BDF3
:1059B000000000000E80000068260020F025002076
:1059C000516A01005D690100E9520100542500207F
:1059D000FC250020C0CD0100F0B58BB004000026EE
:1059E000FF200290BF480078002800D166E2BE4840
:1059F0000068002800D161E201A8FFF727FF050039
:105A00002F00002F04D0B94AB949380001F0ECF951
:105A10000020049000200390002005002000001DBD
:105A20000690342005A90881FF2001A98870002074
:105A300069460871002000902088102812D06A461C
:105A40000221A088FFF757FB0500002D0AD1A948C5
:105A500000990C2251434018C07A01A9887000981F
:105A600001A948702088102811D0112872D013285D
:105A700000D1EAE0142800D1A7E0172800D13BE1CB
:105A8000182800D1DEE1522800D1FEE107E2684685
:105A9000FFF756FF0500002D5BD101200600112005
:105AA00069460875009801A94870A0889149009A34
:105AB0000C235A438918088102208E49009A0C232E
:105AC0005A43891888728B4800990C225143401818
:105AD0002100891D072200F003FA607B0100C9073D
:105AE000C90F002911D0D648617BC9B24908C9B293
:105AF000405CFF2810D0D248617BC9B24908C9B2C6
:105B0000405C02900020050006E0574A02A92000F0
:105B1000801DFFF784FB0500002D1AD102987549FE
:105B2000009A0C235A438918C872724800990C22B3
:105B300051434018817A082008436E49009A0C238B
:105B40005A4389188872029801A9887001A8FFF742
:105B50000DFFA4E1674800990C2251434018817A57
:105B6000FD2008406349009A0C235A438918887223
:105B7000604800990C2251434018807A00070CD5E8
:105B80005C4800990C2251434018807A40060FD59A
:105B9000002101A8FFF76BFE0AE001A88078FF282A
:105BA00006D001A88078FFF708FBFF2001A98870C4
:105BB00010205049009A0C235A43891888720120FA
:105BC000060012206946087569E14A4800990C22CE
:105BD00051434018C07AFF2822D1E28902A900204F
:105BE000FFF71DFB0500002D1AD102984149009ACC
:105BF0000C235A438918C8723E4800990C2251431D
:105C00004018817A082008433A49009A0C235A43E5
:105C100089188872029801A9887001A8FFF7A6FE6A
:105C2000344800990C2251434018C07AFF2806D00E
:105C3000A3480099182251434018001D04900022E7
:105C40000499A08881DF050029E1132069460875C1
:105C50009C4A0021A0887FDF0500002D06D0039517
:105C6000002006003CE000BFFFFF00002148009933
:105C70000C2251434018817A042008431D49009AA0
:105C80000C235A438918887201200600194800998C
:105C90000C2251434018C07AFF2821D00120060071
:105CA000162069460875142009900020089086483F
:105CB00000991822514347183F1D089A0999380046
:105CC00000F03CF90B4800990C2251434018817AAE
:105CD000202008430749009A0C235A4389188872E8
:105CE000DDE000BFE6260020FC250020D8C9010029
:105CF00037090000F0250020744800990C22514318
:105D00004018817AFB2008407049009A0C235A43BE
:105D10008918887214206946087501200600A07948
:105D2000002802D0A079039089E0E07A6449009AC3
:105D300018235A4389188870A07A6149009A182359
:105D40005A43891848705E480099182251434018F8
:105D5000001D21000C31142200F0C2F85B480099AC
:105D60000C2251434018807A400668D55748009964
:105D70000C2251434018817A082008435349009A65
:105D80000C235A4389188872504800990C225143B9
:105D90004018C07AFF2840D14C4800990C2251434A
:105DA000411802A8FFF7CBF90500002D33D1029866
:105DB00001A9887002984549009A0C235A43891812
:105DC000C872A0894249029A1C235A438918088341
:105DD000E07A01004907C90F002917D03C48009913
:105DE0001C225143401821002031102200F078F885
:105DF000374800991C2251434018817EFE200840FC
:105E00003349009A1C235A4389188876012101A836
:105E1000FFF72DFD13E0039511E02C4800990C22AB
:105E200051434018817A202008432849009A0C23C6
:105E30005A4389188872002101A8FFF718FD2EE047
:105E400070260020214800990C2251434018817A85
:105E5000402008431D49009A0C235A438918887230
:105E6000152069460875002003900120060001A84E
:105E70001849194A927A04235A43895888470500D9
:105E8000002D01D01548039009E001A81149124ADC
:105E9000927A04235A43895888470390FFE7F6B261
:105EA000002E0BD0039A05A901A8FFF7E1F9684677
:105EB000007D122802D16846FFF705FA0BB0F0BD4D
:105EC00054250020002600206C250020F02500200D
:105ED000D4230020D0CD0100FC250020418000000B
:105EE000124207D08B0706D00B78491C0370401C68
:105EF000521EF7D87047830706D00B78491C0370F1
:105F0000401C521EF9D1704770B4103A03D378C9BF
:105F1000103A78C0FBD2530701D318C918C001D575
:105F200008C908C0D20704D30B880380891C801CD1
:105F3000002A01D50B78037070BC70471206130A53
:105F40001A43130C1A4300BF094205D0830705D03A
:105F50000270401C491EF9D170470000130030B494
:105F600014001500103902D310393CC0FCD2490787
:105F700000D30CC000D504C0890002D30280801C6D
:105F8000002900D5027030BC704700000022E5E710
:105F900010B402E0401C491C521E002A09D00B78A4
:105FA00004789C42F6D002D20020C04302E00120D7
:105FB00000E0002010BC704700B5800701D101202F
:105FC00000E00020C0B200BD0021BB4A14234343BF
:105FD000D21811710021B84A14234343D218D1803A
:105FE0000121B54A14234343D218D1600021B24A9B
:105FF00014234343D21811610021AF4A14234343B1
:10600000D21851610021AC4A14234343D2181181A4
:10601000704710B50020A94908800020A8490870E1
:106020000020A54908700020A34948700020A2491B
:106030008870002004000A2C04D22000FFF7C4FF5F
:10604000641CF8E710BDFEB50400089D00269A48C0
:1060500040780A2841D098480078974949784018F4
:106060000600F6B20A2E00DB0A3E9348F6B214216F
:1060700071434018047101988F49F6B2142272439B
:1060800089184861009803C88B4AF6B214237343F9
:10609000D2180C3203C2083A684600898649F6B223
:1060A000142272438918C8808348F6B214217143C0
:1060B00040180581002007007F488078002806D11D
:1060C00000F01AFA0700112F01D1002007007A48CA
:1060D0004078401C7849487001E0042007003800EF
:1060E000FEBD10B50020040073484078002808D099
:1060F00000F002FA0400002C03D0112C01D1002082
:106100000400200010BDF8B504006B486A49097806
:1061100014225143401805796A486749664A127843
:1061200014235A438918C968102251434058060065
:10613000614861490978142251434018C088009091
:106140005D485D4909781422514340184369220093
:106150002900C9B258488446574807781420474355
:106160006046C0190C30B047F1BDF1B582B00020D7
:10617000009051488078002800D19CE000204E49D2
:1061800088704F480078082813D10298022803D15C
:1061900000204B49087002E000204B490870FFF7CF
:1061A000A0FF00900098002802D00098FFF7ABFFF6
:1061B00081E00298022802D0032878D07BE03E4894
:1061C0003D490978142251434018001D01903B4875
:1061D0000088401C394908800198007802280AD1BB
:1061E000364800888021C900414301984088814297
:1061F00001DB012700E0002701980078052805D180
:106200002F480078072801D1012400E000240198DC
:106210000078042805D12A480078072801D10125F3
:1062200000E000250198007804280ED1234800885A
:106230008021C900414301984088814205DB204804
:106240000078002801D1012600E000262800204324
:1062500030433843C0B200281FD0002018490870CE
:106260000098FFF750FF14480078FFF7ADFE0020BC
:106270001249088010484078401E0F4948700E4867
:106280000078401C0C4908700B4800780A2804DB91
:10629000094800780A3808490870FFF722FF009083
:1062A0000098002802D00098FFF72DFF03E00D2092
:1062B000FFF729FFFFE7F7BD08230020DA260020BB
:1062C000EC260020E0250020EB260020FBB5040092
:1062D000150003268548007800280AD10298284333
:1062E000002803D102208149087002E001207F4983
:1062F00008707E48007801280CD000D2F4E0032812
:106300004ED030D3052800D1B0E07BD3062800D191
:10631000C8E0E9E07648076875480068009075486D
:1063200000680021C943884207D07248006870495C
:10633000096889B201F0D1FA01E0C9480068BFB22A
:106340003A0092080199009B9BB25943401E684B4A
:106350001B689BB2584321DF0600002E02D10220A9
:1063600062490870C0E0019820DF0600002E16D1B7
:10637000002D11D1029800280AD12078042803D1D9
:1063800007205A4908700AE005205849087006E0BD
:1063900004205649087002E0032054490870A3E025
:1063A000544800680021C943884207D0514800681A
:1063B0004F49096889B201F090FA01E0A8480068E5
:1063C0004B4909682A00401E89B2484301000198E0
:1063D000474B1B689BB2584321DF0600002E10D1AB
:1063E000029800280AD12078042803D106203F49CA
:1063F000087006E005203D49087002E004203B4992
:10640000087071E03B4800680021C943884207D00A
:10641000384800683649096889B201F05EFA01E03F
:106420008F48006832490968029A401E89B2484381
:106430000421694340186188411801982C4B1B685E
:106440009BB2584304236B43C0186388C01821DFF4
:106450000600002E09D12078042803D10620234904
:10646000087002E00520214908703DE060880200C4
:106470009208216901981E4B1B689BB25843042364
:106480006B43C01821DF0600002E0AD10298284372
:10649000002803D107201549087002E0062013499F
:1064A000087021E0134800680021C943884207D0E2
:1064B000104800680E49096889B201F00EFA01E03F
:1064C000674800680A490968401E89B2484308497C
:1064D000096889B201F001FA20DF0600002E02D11E
:1064E000072002490870FFE73000FEBDEC260020BF
:1064F0001000001014100010F0B585B00F200090AF
:106500008B488B490978142251434018001D05001F
:10651000E86804002878022804D0042820D0052840
:106520006FD093E02969834800888022D2004243DB
:1065300016006888801B03008919A8888019241810
:106540008020C000834205D21A009208200021DF7B
:10655000009004E080225200200021DF009075E0CE
:106560007548A96810225143401807897248A968E4
:106570001022514340184089694608826E48A96834
:10658000102251434018406803900398A04206D15E
:10659000BFB26846008A78436988884202D0A868FA
:1065A00002280DD120006549096889B201F095F9EA
:1065B0006049098840180600300020DF00901FE085
:1065C00020005E49096889B201F087F906005B483E
:1065D000006880B27043201A800802903000401C8E
:1065E0005649096889B24843001B6988401A8008E7
:1065F0000190019B029A31002800FFF767FE00908E
:1066000024E020004D49096889B201F066F90600CE
:10661000A88820184949096889B27143401A80083E
:1066200001903000401C4549096889B24843001B6D
:10663000A988401A6988401A0700BF083B00019AE0
:1066400031002800FFF742FE0090FFE70098002885
:1066500002D1012036498870009805B0F0BD0000D5
:106660001400001010B5FFF7D4FC00208E490880FC
:106670008E4800680021C943884207D08B480068D3
:106680002E49096889B201F028F901E0AF48006895
:10669000801E2A49096889B24843AD490860002034
:1066A000244908800020002818D10021224A102304
:1066B0004343D1500021204A10234343D218118173
:1066C00000211D4A10234343D218918100211A4A08
:1066D00010234343D2185181401CE4E708209D4910
:1066E0000870724800680021C943884207D06F488B
:1066F00000681249096889B201F0EFF801E0934897
:1067000000680E490968401E89B248430B49096870
:1067100089B201F0E2F820DF0400002C05D101204D
:106720000349887001208C490870200010BD0000CA
:1067300008230020DA260020E025002010000010A9
:10674000F0B504000D0084480078002801D108202D
:10675000A9E0002C01D10E20A5E0002D01D10E20D2
:10676000A1E02068002801D10E209CE0B648006816
:10677000A18880B2884202D3A088102801DA0720BD
:1067800091E0E08800282CD0484800680021C943E7
:10679000884207D045480068AB49096889B201F0D2
:1067A0009CF801E069480068401EA749096889B261
:1067B000484367490968E288A3885A438918884290
:1067C0000FD3A148006880B2E188A2885143884273
:1067D00009DA9D48006880B2A18801F07BF80029A1
:1067E00001D007205FE0A088042101F076F800299D
:1067F00001D0072057E02C480088012801D104204F
:1068000051E029480088286051480068686069683C
:106810008E48254A128810235343C01841602068CF
:106820008A49214A128810235343C850A1888748B7
:106830001D4A128810235343C0180181E188834800
:10684000194A128810235343C018418100200600C2
:10685000A088E18848430700761C7B48006880B226
:10686000B84204D27848006880B23F1A01E00020A4
:106870000700374800687449096889B240183449EC
:1068800008607148006880B28742E5D26F480649C7
:10689000098810224A438018868103480088401CDA
:1068A000014908800020F0BDD826002014100010F7
:1068B000FCB503000C0028480078002801D108200E
:1068C00043E0002B01D10E203FE0002A01D10E2031
:1068D0003BE01868002806D15C4819681025694318
:1068E0004058002801D107202FE003CB083B6D461C
:1068F00003C5083D0198A4B254491D68102675438C
:1069000049190989614340180190019D4F48009938
:1069100010267143401846684C4800991027794367
:1069200040184789494884460099102041436046F1
:10693000401800894743F019854201D3072004E03D
:10694000684603C803C2083A0020F6BD14000010D0
:10695000C0260020EC260020EB260020F8B504001D
:106960000F0016001D00B8480078002801D108204B
:1069700068E0002F01D10E2064E0002C01D10E2030
:1069800060E02068002806D1304821681022514379
:106990004058002801D1072054E0606800902B483F
:1069A00021681022514340184268284B216810206A
:1069B00041435818438925488446216810204143A3
:1069C0006046401800894343D1180098884201D39B
:1069D000072037E0B6B2002E08D01C4821681022EC
:1069E000514340180089B6B2B04201D2072029E0D5
:1069F000164821681022514340180089B6B2ADB242
:106A00007119884201DA07201CE03800FFF7D4FA38
:106A1000002805D0ADB22800FFF7CEFA002801D13A
:106A200010200FE06068FFF7C7FA002801D110209E
:106A300008E0ADB2009533009BB23A00210002207D
:106A4000FFF701FBF2BD000010000010E025002060
:106A5000F8B504000F0016001D007B4800780028E0
:106A600001D1082068E0002F01D10E2064E0002C45
:106A700001D10E2060E02068002806D1A9482168D5
:106A8000102251434058002801D1072054E060688B
:106A90000090A44821681022514340184268A14B3D
:106AA000216810204143581843899E488446216834
:106AB000102041436046401800894343D118009894
:106AC000884201D3072037E0B6B2002E08D095489F
:106AD00021681022514340180089B6B2B04201D259
:106AE000072029E08F48216810225143401800896F
:106AF000B6B2ADB27119884201DA07201CE0380045
:106B0000FFF75AFA002805D0ADB22800FFF754FA73
:106B1000002801D110200FE06068FFF74DFA00282F
:106B200001D1102008E0ADB2009533009BB23A00CD
:106B300021000520FFF787FAF2BDFEB506000C0024
:106B4000150041480078002801D108207AE0002C87
:106B500001D10E2076E0002E01D10E2072E02068D7
:106B6000002806D16F482168102251434058002860
:106B700001D1072066E062686A4821681023594302
:106B800040184368674821681027794340184789AF
:106B900064488446216810204143604640180089BB
:106BA0004743D819824201D307204BE0ADB2002DF4
:106BB00008D05C4821681022514340180089ADB2CA
:106BC000A84201D207203DE05648216810225143D7
:106BD00040180089ADB2694609896918884201DA0E
:106BE00007202FE03000FFF7E7F9002805D06846BE
:106BF0000089FFF7E1F9002801D1102022E0606848
:106C0000FFF7DAF9002801D110201BE0ADB260686F
:106C100069460989401801902A0001993000FFF760
:106C20005FF9ADB20095330000220321200004007B
:106C30003C4884462768102047436046C7592000D7
:106C4000B8470020FEBD0000EB260020F8B5040088
:106C50000D0035480078002801D1082050E0002CB4
:106C600001D10E204CE02068002806D12D48216873
:106C7000102251434058002801D1072040E06268AB
:106C80002848216810235943401843682548216843
:106C900010277943401847892248844621681020EC
:106CA00041436046401800894743D819824201D3C6
:106CB000072025E06068FFF77FF9002801D1102048
:106CC0001EE060681749226810235A4389184968F2
:106CD000401A1449226810235A438918098900F080
:106CE000FCFD002901D007200AE0002000902B00C5
:106CF0009BB2002221000420FFF7A5F90600300016
:106D0000F2BD00B5010008480078002801D1082034
:106D100007E0002901D10E2003E004484078086014
:106D2000002000BDE0250020EB26002008230020E5
:106D300000B540B2002812D58B4940B20207120FAD
:106D4000083A920804235A4389588007800F082282
:106D50005043C140080080098007800F0FE0B1490F
:106D600040B20200920804235A4389588007800FDA
:106D700008225043C140080080098007800F00BDF1
:106D80000321A94A04234343D150704730B4D2B2FF
:106D90001304C9B28C001C43A34B042545435C512A
:106DA00030BC704701218140A04A11607047012129
:106DB0008140C44A11607047C3490968C140080056
:106DC000C007C00F704738B5C0480068C505ED0D55
:106DD000002D07D02C00103C200040B2FFF7A8FF88
:106DE000C0B200E0042032BDF1B584B00F0016003F
:106DF000002069460872FFF7E6FF0500012D10D05C
:106E000002A82EDF00900098022801D172B608E097
:106E100000980400002C04D0AD4ABB212000FFF7ED
:106E2000E3FF0A20FFF7ACFF0A20FFF7BBFF0124B6
:106E3000002CFDD1012D11D062B66846007A2FDFFB
:106E400001900198022809D001980090009800282C
:106E500004D09F4AC7210098FFF7C6FF05B0F0BDD8
:106E600038B504000D002A00A4B22100C348FFF782
:106E7000BBFF31BD38B59749974800F085FD050047
:106E80002900C9B2954800F04FFF0400002C0CD037
:106E9000082C0AD09248844207D09248844204D0F9
:106EA000B74AEE212000FFF79FFF31BD10B5040067
:106EB000FFF7E0FF10BD38B50400B24801F078FAE2
:106EC000B1480068401CB0490860AE48016889B20A
:106ED000AE4801F03CFE0500002D0DD0082D0BD072
:106EE0007F48854208D07F48854205D0784A8E2168
:106EF00049002800FFF778FFA3480068032100F04D
:106F0000ECFC002903D00120A149087002E0002018
:106F10009F490870FA20800001F097FE99480068A8
:106F2000401C9849086031BD38B504009848007885
:106F3000002809D09749984800F026FD050029004F
:106F400089B2924801F040FE31BD10B5040093486B
:106F500000780121414091480170904801788B48A8
:106F600001F05EFE10BD00001CED00E080B50820C1
:106F7000FFF706FF0920FFF703FF0F20FFF700FFD1
:106F800001BD70B582B000200090854B052206211E
:106F9000002002F011FB06003500002D05D0784AD4
:106FA000FF2166312800FFF71FFF7E4A01217E483E
:106FB00002F06DFB04002500002D05D0704AFF2172
:106FC0006C312800FFF710FF784A0121784802F061
:106FD0005EFB04002500002D05D0694AB821490058
:106FE0002800FFF701FF734A0121734802F04FFBAD
:106FF00004002500002D05D0614AFF2176312800CC
:10700000FFF7F2FE6D4A01216D4802F040FB0400DB
:107010002500002D05D05A4ABD2149002800FFF760
:10702000E3FE73BD00E400E00007005008050050D7
:10703000FEB5012069460870684600780007000F19
:1070400010210143684601700B22DE4968467CDF4F
:1070500004002500002D05D0494AC7214900280019
:10706000FFF7C2FED84878DF04002500002D05D0C8
:10707000434AFF2192312800FFF7B6FE0826002779
:1070800001AD3A0031002800FEF758FFC82040004B
:1070900069468880C820800001A94880002001A995
:1070A0008880C820400001A9C88001A87ADF0400B8
:1070B0002500002D05D0324AFF219C312800FFF722
:1070C00093FEF7BD0C0500501005005004ED00E0E4
:1070D0004CCA0100C025002078260020842500200D
:1070E0000430000001340000F0B593B0062069467A
:1070F000087001A8B5491CC91CC00C390C383825CA
:10710000002404AE220029003000FEF717FF022001
:1071100069460874012004A98870012004A98880A8
:1071200068460690032004A9088301A80B9000215B
:1071300004A802F06AFE07003E00002E05D0104AA7
:10714000DE2149003000FFF74FFE14240025E04EF9
:107150002A0021003000FEF7F1FE0020DC49087013
:107160000020DB4948600020D94908722820D8490E
:107170000882B420D649488213B0F0BDEFBEADDE20
:107180004CCA0100A8260020BC260020982400201C
:107190004E200020D025002080260020E926002057
:1071A00050200020AD6E0100AC260020B76E01001B
:1071B000B0260020296F0100B42600204B6F01008B
:1071C000B8260020F0B59BB003200AA9087014254A
:1071D00000246E46220029003000FEF7AFFE00209A
:1071E00000900120694608710AA802906846007B59
:1071F000F021014001200843694608736846007B7E
:107200000007000F10210143684601736846407B68
:10721000F0210140684641736846407B0007000F3B
:10722000694648736846807BF02101406846817357
:107230006846807B0007000F694688736846C07BFC
:10724000F0210140012008436946C8736846C07BAD
:107250000007000F102101436846C1736846007C97
:10726000F0210140684601746846007C0007000F69
:10727000694608746946C64801F032FC07003E00C2
:10728000002E04D0CC4AAB493000FFF7ADFD1425E9
:10729000002405AE220029003000FEF74FFE05A8AD
:1072A000407BF02101400120084305A9487305A84F
:1072B000407B0007000F1021014305A8417305A87A
:1072C000807BF02101400120084305A9887305A8AF
:1072D000807B0007000F1021014305A8817305A8DA
:1072E000C07BF021014005A8C17305A8C07B000741
:1072F000000F05A9C87305A8007CF02101400120FA
:10730000084305A9087405A8007C0007000F102198
:10731000014305A8017400200590012005A908710A
:1073200000200790642005A9087305A9A34800F070
:10733000D8FC07003E00002E05D09F4A8821890016
:107340003000FFF751FD402500240BAE220029003C
:107350003000FEF7F3FD9A490BA802F0BDFD0BA823
:107360003C300078F0210140012008430BA93C315A
:1073700008700BA83C3000780007000F1021014373
:107380000BA83C3001700BA83D300078F021014083
:107390000BA83D3001700BA83D3000780007000FAE
:1073A0000BA93D3108700BA802F0B6FE07003E00A5
:1073B000002E04D0804AB9493000FFF715FD1BB0FC
:1073C000F0BD0000ECCD010041030000F8CD01004C
:1073D00038B50022802149028448006802F0A2F9F1
:1073E00004002500002D04D0734A81492800FFF7CE
:1073F000FBFC0022802109027E48006802F092F91D
:1074000004002500002D04D06B4A7B492800FFF7BB
:10741000EBFC0022A249A348006802F083F90400B3
:107420002500002D04D0644A9F492800FFF7DCFCAA
:107430000022A0218902AB48006802F073F9040021
:107440002500002D05D05C4A9B2189002800FFF70C
:10745000CBFC31BD38B56846FFF753FC040025006E
:10746000002D04D0544AA0492800FFF7BDFC009825
:10747000002803D001209D4908700DE0144873DFF7
:1074800004002500002D04D04B4ACE492800FFF708
:10749000ABFC0820FFF786FC31BD70B504002078F6
:1074A00000280CD13B219248008876DF0600350089
:1074B000002D04D0404ACA492800FFF795FC70BD52
:1074C00010B504003C4AC7492000FFF78DFC10BDF1
:1074D0009C250020F0B587B01C2500246E462200B4
:1074E00029003000FEF72AFD00200090A020800235
:1074F0000190F0200003029003206946087324489D
:1075000080896946C881002069460874B64805909C
:10751000B6480690684602F045FF07003E00002E80
:1075200005D0254AAF2189003000FFF75DFC07B088
:10753000F0BD00000E02000070B504002088102885
:1075400004D011280CD0192810D020E00920FFF712
:1075500029FC0820FFF72BFCA0886549088016E06D
:107560000920FFF724FCFFF775FF10E0A079002841
:107570000CD10820FFF71BFC34DF06003500002D7E
:1075800004D00D4AB8492800FFF72EFCFFE770BD74
:107590009824002010B504002000801E012809D87E
:1075A00052480078002804D0002050490870FFF7A6
:1075B00051FFFFE710BD00004CCA010084250020E8
:1075C0009CCD010010B504002000FEF705FA210053
:1075D000A64801F0F9F82100A54800F04AFA200079
:1075E00002F0B4FF2000FFF7A7FF10BDAC2600207B
:1075F00063020000B02600206602000010B50400FF
:107600002000FEF7B2FD2000FFF7C4FF10BDF0B56B
:1076100083B0002350229749082003F022F80190FC
:1076200001980500002D05D0324ACB2189002800A1
:10763000FFF7DAFB012600276D463A0031002800EB
:10764000FEF77CFC68460078FE2101406846017028
:10765000684660DF04002500002D05D0254ACD21B5
:1076600089002800FFF7C0FB834803F01FF80400DF
:107670002500002D04D01F4A80492800FFF7B4FBE5
:107680007F4803F01EF804002500002D04D0194A9D
:107690007C492800FFF7A8FBF7BD00002B02000083
:1076A00066260000B42600206902000080B503228F
:1076B00000210020FFF76AFB032200210120FFF7D1
:1076C00065FB01BDF8B506000D0014002700002F72
:1076D00005D06D4AD62189003800FFF785FB0020D0
:1076E000F2BD0000B82600207A020000E826002043
:1076F0004C2000204CCA0100F0B585B0FEF7B2FF67
:1077000006003400002C04D05F4A60492000FFF7D7
:107710006BFB0120FFF750FB002803D101206946D5
:10772000087302E000206946087303A8FDF7C8FF4C
:1077300006003400002C04D0534A55492000FFF7BE
:1077400053FB062500246F46BF1D22002900380088
:10775000FEF7F4FB1E206946C8806846007A0121C6
:107760000143684601726846007AFD21014068467F
:1077700001726846007AE32101400C200843694603
:1077800008726846007ADF210140684601720720CE
:10779000694648721020694688723E480090012070
:1077A0006946087169463C48FEF706F8060037004E
:1077B000002F05D0344ADF2189003800FFF714FB81
:1077C00005B0F0BD8302000038B540DF040025009D
:1077D000002D04D02C4A31492800FFF705FB31BDAC
:1077E0009A020000A50200009B740100C174010010
:1077F00080B5FFF7BBFBFFF759FFFFF7C2FBFFF7B1
:1078000006FFFFF779FFFFF713FCFFF76DFCFFF7AB
:10781000D9FCFFF75FFE03F0AFF8682003F075F9BD
:10782000012003F0A8FD00F0CBFA1D4803F05EFE36
:1078300080B200F0CEFA1B4803F058FE80B200F090
:10784000C8FA182000F0F1FD022000F0F7FE322007
:1078500000F06DFB052000F0CFFDFFF7B9FDFFF74D
:10786000F9FDFFF7B1FFFCE7DF02000098240020DC
:1078700084250020E8240020C5750100390300009C
:10788000FD7501003D0300004CCA010067030000C4
:107890006D030000C5760100E72600208503000087
:1078A0002C20002038200020F446002804D449422F
:1078B00000F013F8404260474042002905D45FD0F1
:1078C00000F00BF8404249426047494200F005F899
:1078D0004942604703460B43E6D40022030A8B4229
:1078E0000BD203098B4219D243088B422ED2411A84
:1078F00000D20146524110467047FF2209023FD094
:1079000012068B4205D3121209028B4201D31212C6
:10791000090203098B4219D300E0090AC3098B420B
:1079200001D3CB01C01A524183098B4201D38B0191
:10793000C01A524143098B4201D34B01C01A524134
:1079400003098B4201D30B01C01A5241C3088B4279
:1079500001D3CB00C01A524183088B4201D38B0064
:10796000C01A524143088B4201D34B00C01A524106
:10797000884200D3401A5241CFD201461046704788
:1079800008B503F0CBFD08BD10B50279002A0FD071
:107990008A684B6804681B1B9A4204D202688B6891
:1079A000D218026013E04A680260002202710EE001
:1079B0008A6803680C681B1B9A4204D202688B68B1
:1079C000D21A026003E00A680260012202710068B4
:1079D00010BD30B4012100220368001D002B0BD024
:1079E0000468001D0C4202D04D466D1E64192260D1
:1079F000241D1B1FF0D0FAE730BC70470178407897
:107A00000002084380B2704710B504002000FFF761
:107A1000F5FF01000800C007C00F10BD8A88428230
:107A20007047C04A4282704770B582B004000D00B2
:107A3000207D00281CD02E00B61D30886189884228
:107A400016D1308B022813D12068002810D03000C6
:107A50001A30FFF7D9FF002803D0002069460870CC
:107A600002E00120694608706946200022689047BC
:107A700073BD38B505000C002088102804D01128EB
:107A800007D050280AD00EE021002800FFF7C6FFDB
:107A900009E021002800FFF7C4FF04E021002800CE
:107AA000FFF7C2FFFFE731BDF2B594B00400207DBF
:107AB000002823D00325002601AF3200290038001A
:107AC000FEF73CFA68460079F021014001200843A6
:107AD00069460871684600790007000F10210143CC
:107AE000684601711498407B01A9487001A880780C
:107AF000F92101400220084301A988701C250026B5
:107B00000CAF320029003800FEF718FA0CA80078F4
:107B1000022101430CA80170207D0CA90978EF22F5
:107B20000A4000011021084010430CA908700020F1
:107B30000D9000200F9000201090207D002802D092
:107B400001A8119001E00020119000201290012066
:107B500003A9887096486946888103200590002013
:107B600006906D46069A05992800FEF7E7F91498E5
:107B7000807B694608701498C07B694648706846E7
:107B80008078F921014002200843694688706846E0
:107B90008078F72101406846817068468078EF213F
:107BA00001406846817068468078FE210140684641
:107BB00081701498007B694648721425002607AF2F
:107BC000320029003800FEF7B9F903A8079068468B
:107BD0000890012007A90881002007A948810120F9
:107BE00007A9888102A8401C0B9023009B1D07AAAF
:107BF0000CA9A088A2DF04900498002801D0049862
:107C00006DE014988068002866D0012003A9887070
:107C100068486946888103200690002005906D46DB
:107C2000059A06992800FEF789F91498007C6946A0
:107C3000087068464078F021014068464170684607
:107C400040780007000F6946487068468078F9213F
:107C50000140022008436946887068468078F72111
:107C600001406846817068468078EF21014068468F
:107C7000817068468078FE210140684681701498C2
:107C8000816802A8801C02F007F969460872142571
:107C9000002607AF320029003800FEF74FF903A88D
:107CA0000790684608906846007A07A90881002076
:107CB00007A9488107A8008907A9888102A8801C14
:107CC0000B9022000E3207A9E088A3DF04900498ED
:107CD000002803D0049802E00020E081002015B0C5
:107CE000F0BD70B582B004000D00286820600D481A
:107CF000608228792075FF202074012069468870F1
:107D00002D48694608802200121D69460120A0DF27
:107D10000600002E01D0300003E029002000FFF70C
:107D2000C3FE76BDFFFF0000F2B586B0040000255B
:107D30006846007E217C884236D001206946088052
:107D40006846007E207406AB6A460021E088A4DF06
:107D50000500002D01D0280027E0608A17498842DD
:107D600020D0207D00281DD010200190002602AFD9
:107D7000320001993800FEF7E1F8012069460880D9
:107D8000E08869460881012002A98870002002A9C4
:107D900088806846049006A8059002A9608AA6DF3C
:107DA000050001E008200500280007B0F0BD000034
:107DB000192A0000082900000F180000FFFF00002A
:107DC00080B5C823754802887549764803F06EFA75
:107DD00002BDF0B589B0040003A873490A680260C7
:107DE00002A872490A68026005A871490A6802601F
:107DF00004A870490A68026003A8A4B2A107890F09
:107E0000405C6946087103A8A4B22100C910890723
:107E1000890F405C01A9487003A8A4B22100891110
:107E20008907890F405C01A9887002A8A4B2A10744
:107E3000890F405C6946087002A8A4B22100C910ED
:107E40008907890F405C6946487002A8A4B22100E6
:107E500089118907890F405C6946887001AA03214E
:107E6000554803F0B1F9002802D00020C0435CE07F
:107E70006A460321514803F0A7F9002802D00020E8
:107E8000C04352E00320079005A8069001AD079A71
:107E900006992800FEF724F8032504AE6F462A0051
:107EA00031003800FEF71CF860070BD568460079F2
:107EB00001210143684601716846007801210143B0
:107EC00068460170A0060BD501A840780121014346
:107ED00001A841706846407801210143684641701D
:107EE000E0050BD501A880780121014301A881702C
:107EF00068468078012101436846817001AA032108
:107F00002F4803F061F9002802D00020C0430CE0A4
:107F10006A4603212B4803F057F9002802D00020BD
:107F2000C04302E028480481002009B0F0BD30B50C
:107F300085B0040002A88A492CC92CC00C390C3821
:107F4000A4B2C92C02DB0020C04325E0C820A4B2A3
:107F50002100FFF7BFFC401E0500280080B2000A88
:107F6000694608702800694648706A4602217D48C3
:107F700003F02AF9002802D00020C0430CE002AA36
:107F80000C21794803F020F9002802D00020C043DA
:107F900002E00D488481002005B030BD268C010030
:107FA000ECBC0100F90B00001CCE010020CE01004A
:107FB00024CE010028CE0100260400002A0400007F
:107FC0005604000034040000B0250020F0B583B052
:107FD00004000E00600703D0B6B26448864202DB9C
:107FE0000020C043BBE0B6B2300003F0A5FA604900
:107FF00003F0B1FA050001A8801C02F0FFFE6846FC
:108000008079022806D0042815D0082824D010280A
:1080100033D043E08D20C005290003F0F1FA03F0CE
:1080200049FB69468880D248290003F0E9FA03F049
:1080300041FB070035E08C20C005290003F0E0FA81
:1080400003F038FB69468880CA48290003F0D8FA53
:1080500003F030FB070024E08B20C005290003F06B
:10806000CFFA03F027FB69468880C348290003F054
:10807000C7FA03F01FFB070013E08A20C0052900A0
:1080800003F0BEFA03F016FB69468880BB4829005E
:1080900003F0B6FA03F00EFB070002E00020C04335
:1080A0005DE06846808880B2000A694608706846CC
:1080B000808869464870380080B2000A6946887036
:1080C00038006946C870E00716D56A460221EA20E2
:1080D000400003F079F8002802D00020C0433EE0C1
:1080E0006A46921C02219220400003F06DF800289D
:1080F00002D00020C04332E0A00716D56A46022114
:10810000EC20400003F060F8002802D00020C043BB
:1081100025E06A46921C02219420400003F054F8A6
:10812000002802D00020C04319E0600716D56A4637
:108130000221EE20400003F047F8002802D0002082
:10814000C0430CE06A46921C02219620400003F0D6
:108150003BF8002802D00020C04300E00020FEBD14
:10816000E0CD010016020000C40A00004106000034
:108170000000484310B582B0040000206946087032
:10818000E00705D568460078302101436846017054
:10819000A00705D5684600780C21014368460170A8
:1081A000600705D5684600780321014368460170E1
:1081B0006A460121A420400003F006F816BD10B560
:1081C00082B00400E4B2002C02D10120040004E0DB
:1081D000E4B2052C01DB04200400601E694608702F
:1081E0006A460121FF20503002F0EEFF16BD38B57F
:1081F0000400A4B220000521FFF76CFB0500280055
:1082000080B2000A694608702800694648706A46CC
:108210000221EF20400002F0D7FF32BD38B5040044
:10822000A4B220000521FFF755FB0500280080B20D
:10823000000A694608702800694648706A460221AB
:10824000ED20400002F0C0FF32BD70B582B00600E4
:108250000D003000FA218900FFF73CFB0400ADB2AD
:108260006C4320000016694608702000001469461F
:108270004870200000126946887020006946C87066
:108280006A460421AE20400002F09EFF76BD10B584
:1082900082B00400A4B220000521FFF71BFB0400FC
:1082A000200080B2000A69460870200069464870C4
:1082B0006A460221AD20400002F086FF16BD10B5CF
:1082C00082B00400A4B220000521FFF703FB0400E4
:1082D000200080B2000A6946087020006946487094
:1082E0006A460221AC20400002F06EFF16BD01B5C7
:1082F000684600784006400E694608706A460121CB
:10830000A520400002F060FF02BD38B50400200047
:10831000002103F0EDF904D32000A44903F0FCF997
:1083200002D80020C04321E0B248210003F068F9E0
:1083300003F006FA9C21C90503F062F903F0BAF9CB
:1083400005002800001669460870280000146946D8
:108350004870280000126946887028006946C87075
:108360006A460421F420400002F02EFF32BD0000D6
:10837000000040460000C045000040450000C044E9
:1083800010B582B00400A4B220000521FFF7A2FAC4
:108390000400200080B2000A694608702000694687
:1083A00048706A460221FD20400002F00DFF16BD14
:1083B00010B582B00400002C02D10020C0431AE0A6
:1083C0006A460421D820800002F03CFF002802D039
:1083D0000020C0430FE068460078000669464978EF
:1083E0000904014368468078000208436946C97859
:1083F00001432160002016BD10B582B004002000AA
:10840000000E694608702000000C69464870200084
:10841000000A6946887020006946C8706A460421CF
:10842000D820800002F0D0FE16BD10B584B0040044
:10843000022069460870CA2069464870E3206946F0
:10844000887009206946C8706A460421682002F0D5
:10845000BBFEA32069460870C02069464870C8204A
:1084600069468870C2206946C870C4206946087190
:10847000CC2069464871C62069468871A3206946A8
:10848000C871A32069460872A320694648726A46EB
:108490000A219E4802F098FEA00703D020206946DA
:1084A000087002E0D820694608706A4601219848A1
:1084B00002F08AFEE00723D5F820694608706A4674
:1084C0000121944802F080FEFA210720FFF77EFD8B
:1084D0000720FFF74FFE0120FFF771FE6420FFF732
:1084E00086FEFA204000FFF799FEC8218A48FFF770
:1084F000ACFE2820FFF7CBFE0A20FFF7E0FE07E0E6
:10850000D820694608706A460121824802F05CFE64
:10851000A00715D5F82069460870F820694648700C
:108520006A4602217D4802F04FFE7D48FFF7EDFECE
:10853000FA204000FFF724FF7F20FFF7D8FE0AE073
:10854000D82069460870D820694648706A460221DA
:10855000724802F039FE600703D5012000F028F8C8
:1085600002E0002000F024F8E00603D5012000F02E
:1085700043F802E0002000F03FF86A48847202F0FD
:1085800075FB0C20674988731420044204D06548A9
:10859000807B103063498873A00704D06148807BDA
:1085A000001D60498873002004B010BD0100B44272
:1085B000F8B50400E4B2002C0CD0C0206946087065
:1085C000C22069464870C42069468870C620694642
:1085D000C87007E004258B266F463200290038005A
:1085E000FDF7ACFC6A4604214F4802F0EDFD02F0B5
:1085F0003DFBF2BD2EFA8E3CF8B50400E4B2002C2F
:108600000CD0202069460870282069464870302028
:108610006946887038206946C87007E00425A3269B
:108620006F46320029003800FDF788FC6A460421B5
:108630003E4802F0C9FD02F019FBF2BD10B584B04E
:108640000400B12069468870B9206946C870F320DB
:10865000694608718B2069464871A3206946887174
:1086600091206946C871B62069460872B4206946EF
:108670008872E4B22000012802D002280DD019E04F
:10868000DA2069460870DA2069464870DA206946BF
:108690004872DA206946C8720FE0D820694608702F
:1086A000D82069464870092069464872D920694631
:1086B000C87202E00020C04326E06A460C211C4834
:1086C00002F082FD002802D00020C0431CE0FE2002
:1086D00069460870F22069464870AB206946887088
:1086E000C4206946C870AA2069460871F12069460D
:1086F0004871DF2069468871DF206946C8716A4683
:1087000008210C4802F060FD04B010BDAB0A000067
:10871000B90A00001E08000009E3CA02E5090000CA
:1087200000007042B02500209D0A0000A30A00004E
:10873000860A0000C40A0000020010000870100041
:1087400080B2000A48700220704701784078000229
:10875000084380B2704710B504002000FFF7F5FF12
:1087600001000800C007C00F10BD8A88028470474E
:10877000DA4A0284704738B504000D00288B0228BD
:1087800013D12068002810D028001A30FFF7E3FF2B
:10879000002803D000206946087002E001206946E5
:1087A0000870694620002268904731BD70B504000A
:1087B0000D002E00B61D3088A189884203D13100FA
:1087C0002000FFF7D8FF70BD38B505000C002088E9
:1087D000102804D0112807D050280AD00EE021001C
:1087E0002800FFF7C2FF09E021002800FFF7C0FFC3
:1087F00004E021002800FFF7D9FFFFE731BDF6B5FF
:1088000083B00700002601247879002802D03000C8
:10881000042606432220385C002802D030000226BD
:10882000064368468089FF280CDD30000126064398
:108830000498E4B2011968468089FFF77DFF20188B
:10884000040005E0684680890499E4B20855641C78
:108850004C20385A002802D0300010260643002051
:1088600005004C20385A854226DAE4B22000801CEC
:10887000152814D34C20385A401B0221484302903B
:1088800002206843381824300190380024300090CA
:10889000029A0199009802F059FF00980CE00498A0
:1088A000E4B20119022068433818808CFFF744FFB6
:1088B000201804006D1CD4E74C20385A2900401AB7
:1088C0004C217852049806702000C0B205B0F0BD6B
:1088D000F0B59BB004000D00032009900020089023
:1088E00001AE089A09993000FDF728FB6846007927
:1088F000F02101400120084369460871684600796B
:108900000007000F1021014368460171287B01A96F
:10891000487001A88078F92101400220084301A98C
:1089200088701C200790002006900FAE069A0799C9
:108930003000FDF703FB0FA80078102101430FA8BA
:10894000017000201090002012900020139001A8C8
:10895000149000201590012002A98870AC48694647
:10896000088103200590002004906E46049A059922
:108970003000FDF7E3FA687B69460870A87B69461A
:10898000487068468078F921014002200843694612
:10899000887068468078F721014068468170684693
:1089A0008078EF2101406846817068468078012117
:1089B0000143684681701420039000260AAF3200FC
:1089C00003993800FDF7BAFA02A80A9068460B909E
:1089D00016AA00212000FFF712FF0AA90881002033
:1089E0000AA9488114200AA9888116A80E9023009C
:1089F00008330AAA0FA9E088A2DF1BB0F0BDF0B5CA
:108A000093B004000D001C200690002005900CAED1
:108A1000059A06993000FDF791FA0CA8007802211A
:108A200001430CA8017000200D9000200F90002041
:108A300010900020119000201290012001A9887050
:108A400074486946888003200490002003906E4695
:108A5000039A04993000FDF771FAE87B69460870C3
:108A6000287C6946487068468078F92101400220D8
:108A700008436946887068468078F7210140684657
:108A8000817068468078EF210140684681706846B1
:108A90008078FE21014068468170142002900026F3
:108AA00007AF320002993800FDF748FA01A8079095
:108AB00068460890012007A90881002007A948817D
:108AC000012007A98881A8680B902300103307AA0A
:108AD0000CA9E088A2DF13B0F0BD0000FFFF00008A
:108AE00070B582B004000E0030682060307960718B
:108AF0004948208400202221605400204C216052EB
:108B00000120694688704548694608802200921D08
:108B100069460120A0DF0500002D01D0280015E0E6
:108B200031002000FFF7D4FE0500002D01D0280001
:108B30000CE0B068002808D031002000FFF75FFF8C
:108B40000500002D01D0280000E0002076BDF2B520
:108B50008CB00400208C3049884230D006AA684688
:108B6000018E2000FFF74BFE69464880684640882A
:108B7000694608801025002602AF3200290038001F
:108B8000FDF7DCF9208969460881012002A9887077
:108B9000002002A988806846049006A8059002A9D2
:108BA000208CA6DF0190019800280AD16846008831
:108BB00069464988884204D00C20019001E00820D1
:108BC000019001980DB0F0BDF8B504000D004C20E7
:108BD000205A14280FD12626200026300090270086
:108BE000243732000099380002F0B0FD4C20205AA2
:108BF000401E4C2160524C20205A0100491C4C223E
:108C0000A15280B20221414360188584F1BD000069
:108C1000372A0000382A0000FFFF00000D1800006E
:108C2000222281547047000401B4401E00BF00BFDF
:108C300000BF00BF00BF00BF00BF00BF00BF00BF3C
:108C400000BF00BFF1D101B0704701B50098002806
:108C500006D00098401E00900248FFF7E5FFF5E7B8
:108C600001BD0000E703000000B5800701D101202D
:108C700000E00020C0B200BD0121C206D20E91402A
:108C8000B04A116070470121C206D20E9140AE4A2F
:108C9000116070470121C206D20E9140AB4A1160AB
:108CA00070470121C206D20E9140A94A1160704757
:108CB000F0B540B2002822D5A64C40B20207120FF0
:108CC000083A1500AD0804225543A24A40B20307F2
:108CD0001B0F083B9B0804267343D258FF238607CB
:108CE000B60F08277E43B3409A438B01DBB2860759
:108CF000B60F08277E43B340134363511CE0C24ABA
:108D000040B203009B0804246343D258FF23840726
:108D1000A40F08256C43A3409A438B01DBB2840760
:108D2000A40F08256C43A3401343B74A40B2040084
:108D3000A40804256C431351F0BD00B540B20028CF
:108D400012D5844940B20207120F083A9208042350
:108D50005A4389588007800F08225043C1400800B9
:108D600080098007800F0FE0A74940B202009208F7
:108D700004235A4389588007800F08225043C1407A
:108D8000080080098007800F00BD000001B4401E6C
:108D900000BF00BF00BF00BF00BF00BF00BF00BFDB
:108DA00000BF00BF00BF00BFF1D101B0704738B5B0
:108DB000A8480068C505ED0D002D07D02C00103C1B
:108DC000200040B2FFF7B9FFC0B200E0042032BD7E
:108DD00010B50400C548046003211120FFF768FFA7
:108DE00010BD80B5802040029B4908608020400271
:108DF0009A4908601120FFF754FF1120FFF73CFF4C
:108E00000120BB4908602F20FFF7C0FF0120B949AE
:108E1000087001BD80B51120FFF735FF80204002AA
:108E2000B549086080204002B44908600120B44977
:108E300008602F20FFF7AAFF0120B2490860002038
:108E4000B14908602F20FFF7A1FF0020A949087051
:108E500001BDC54800687047401A0002000A70470B
:108E6000C24908607047F0B5C149096824224243ED
:108E70008918C04A12680023DB439A4202D1BD4AD6
:108E800010605EE0BA4A1268BA4B1B682424634340
:108E9000D21852684B689A4217D3B54A1268B54B3C
:108EA0001B6824246343D21852684B68D21AB04B13
:108EB0001B68B04C246824256C431B195A60AD4ACA
:108EC00012680A62AB4A10603BE04D682C00A94D65
:108ED0002D682A00A74D2D682B000025ED43AB42DD
:108EE00016D0A34D2D6824265E43AD196D68A542AA
:108EF0000ED29F4D2D6824265E43AD196D68641B0C
:108F00001A009B4D2D6824267343EB181B6AE4E777
:108F10000025ED43AB420CD0954D2D6824265E43D1
:108F2000AD196D682D1B924E366824275F43F619E4
:108F300075604C600B628E4D2D6824267243AA1812
:108F40001062F0BD00E100E080E100E000E200E03E
:108F500080E200E01CED00E0F8B504008548006800
:108F600005002E000020C043864209D0A64207D04B
:108F700035007F48006824214E438019066AF1E7D6
:108F80000020C04386423ED0B54211D178480068E7
:108F900078490968242251434018006A75490860DD
:108FA000744800680021C943884201D1FFF732FFAD
:108FB0006F480068242171434018406807006C48DE
:108FC0000068242171434018006A69490968242215
:108FD0006A4389180862664800682421694340187A
:108FE000006A06000020C04386420CD0604800683A
:108FF0002421714340184068C0195D490968242242
:10900000724389184860F1BD00E400E080B511208A
:10901000FFF740FE01BD80B51420FFF73BFE01BD08
:1090200070B504009C48006800280FD0E169A06971
:10903000994A1268904705002E00002E05D0974AE5
:10904000FF2164313000FDF7CFFE02E0E069A16945
:10905000884770BD04ED00E0441301400413014053
:10906000F8B5444800680021C94388423CD000203C
:109070000500FFF7EEFE24490968FFF7EDFE040046
:109080003C48006807000020C043874212D038489F
:10909000006824217943401806007068844209D38F
:1090A0007068241A70682D18306A07003000FFF7C6
:1090B000B7FFE8E77A480078C049097888420BD1C1
:1090C000BE480078401CBD490870BC4800780228A2
:1090D00002D10020B9490870B948B849097804227A
:1090E00051434550FFF797FFF1BD000008150140BF
:1090F00000100140E22600204813014008130140FF
:1091000004100140081001409426002000B5010021
:1091100063480078A94A1278904220D060480078CD
:10912000401C5F4A10705E480078022802D100207F
:109130005B4A1070A2485A4A127804235A43805856
:109140000860C24800680A688018C04A1060BF48BA
:1091500000680002000ABD4A1060012002E0002001
:109160000860002000BD00000415014040150140CA
:109170008826002090260020F0B583B0CB480068F8
:109180000190B348007804002000441EC0B20028BB
:1091900043D0B0480068E4B20821614347183D78E5
:1091A0007878EDB28542EFD07868EDB21821694346
:1091B00046186D1CB878EDB2854201D1002005003B
:1091C0003078022802D0032812D025E03548006804
:1091D000716824225143401800900098007D0028B7
:1091E00005D07068FFF7B8FE002000990875D7E732
:1091F000AE4800680021C94388420CD02948006865
:10920000AA49096824225143401800210175006AC7
:10921000A6490860ECE7C3E7C2E7A44800680199E3
:10922000884201D0012000E00020C0B2FEBDF0B5B0
:1092300000239E4C24680025ED43AC422BD0194EF0
:109240003668B446994E3768242677436646F61941
:1092500034006668B04203D26668361A66601AE067
:109260006668801B66689B19002666600026267566
:109270008E4E36683500266A8C4F3E602669002E79
:10928000D7D0CE183602360AA6602669E660166880
:1092900026621560CDE7F0BD98260020DCCB0100EA
:1092A000E026002088260020FEB506007F480068E2
:1092B00002906748007807003800471EC0B20028B7
:1092C00072D064480068FFB2082179434418002036
:1092D000C043864203D1207861788842ECD00020D8
:1092E000C04386420AD00096AE4800680099242206
:1092F000514340180500286A060025E0606821787F
:109300001822514340182178491C21702178A278F5
:10931000914201D10021217041680091A149096861
:10932000009A24235A4389180D000178012902D19B
:10933000297D002900D0CAE78168A960C168E96079
:10934000016929614069E861A86840490968401AD3
:109350000002000A9449884208D23C480168A86883
:10936000FFF77AFDE9684018686010E0A96837489F
:109370000068FFF771FD01900198E968884204D206
:10938000E8680199401A686001E0002068600020E8
:10939000A8600020E860012028750020C0432862F2
:1093A0000098FFF760FD92E7404800680299884204
:1093B00001D0012000E00020C0B2FEBDE126002067
:1093C00008260020F1B582B0384800680021C94362
:1093D000884237D0734800683449096824225143D1
:1093E000401840680090FFF734FD060017480468F5
:1093F00021003000FFF730FD0500ED1CBF4800786C
:10940000002801D1FFF7EDFC0098854201D20098B9
:1094100000E0280024182402240A2000FFF720FD81
:10942000FFF717FD019031002000FFF715FD070041
:1094300031000198FFF710FDC01C874204D2FFF7EE
:10944000E5FD01E0FFF7E6FCF7BD000094260020F3
:10945000DF2600208C260020F0B583B00020C0431A
:10946000009052480068050010480068060001A8F6
:10947000FFF74CFE0700FFF77FFE0400FFB2002F4E
:1094800006D06A4629000198FFF7D1FE01200400AA
:109490000098FFF709FF002801D001200400E4B282
:1094A000002C02D03000FFF78DFFF7BD9026002082
:1094B0000A004270704770B502005078401C0300EB
:1094C0009078834201D1002003001078834201D1BB
:1094D000002007E00B605068557818267543401946
:1094E0000400200070BDFEB504000F00089E694610
:1094F000B2480068082262438018FFF7DCFF0500CD
:10950000002D01D1042015E0012028706F60FFF7C5
:10951000A0FCA8600198E860029828616E6100993B
:10952000A6480068082262438018FFF7C1FFFFF7D2
:1095300072FD0020FEBD70B582B004000E006946C9
:109540009F480068082262438018FFF7B4FF0500B7
:10955000002D01D104200DE0022028706E600099DA
:1095600097480068082262438018FFF7A1FFFFF7C1
:1095700052FD002076BD80B5002092490860002091
:1095800091490860002091490860002090490860D6
:1095900000209049086000208F490860FFF760FDB7
:1095A00001BD000088260020FFFF7F0094260020D8
:1095B00080B5FFF751FF01BDF5B581B00E001C006D
:1095C000089F2000FFF750FB002801D107205DE035
:1095D000002C01D1072059E0FFF71CFC7F480760F1
:1095E0007F4806707F48046000200500F6B2B5424F
:1095F0000EDA00207B49096824226A43885400203F
:109600007849096824226A43891808756D1CEDE7BA
:10961000F6B2242070432418032073490870674869
:109620000460183400200500032D13DA6348006835
:1096300008216943401800210170002141706946EA
:10964000097A817044606946097A18225143641886
:109650006D1CE9E70020C0436449086000206449AC
:1096600008700020634908701420FFF71AFB0321DB
:109670001420FFF71DFB1420FFF7FEFA0198FFF7F7
:10968000A7FBFFF7E6FB5C4908600020FEBD70B554
:10969000030054480068002801D108202DE0100084
:1096A000002801D1072028E0002B01D1072024E069
:1096B000002004004A48007884421DDA49480068C6
:1096C00024256543405D002814D10120454D2D68B7
:1096D00024266643A855434800682425654340195D
:1096E00041704048006824256543401982611C6030
:1096F000002002E0641CDDE7042070BDE2260020AB
:1097000010B5FFF754FB012802D0032803D005E071
:109710000020040004E00120040001E00220040015
:10972000200010BDF8B504000E0017002D48006899
:10973000002801D1082023E029480078844201D282
:10974000052E01D207201BE0264800682421614332
:10975000405C012801D0082012E022480068242142
:10976000614340184078012801D1350000E0002510
:10977000FFF7C6FF00972B0032002100FFF7B3FE72
:10978000F2BD10B5040017480068002801D1082078
:1097900013E013480078844201D307200DE01148FC
:1097A000006824216143405C012801D0082004E0C6
:1097B000FFF7A6FF2100FFF7BEFE10BD8C2600209C
:1097C0008C26002040110140441101404811014005
:1097D0004C11014000110140041101409826002065
:1097E000DE26002088260020DF260020902600208C
:1097F000E0260020E1260020942600200200100030
:109800000870100080B2000A487002207047F8B556
:1098100003000C0010780700FFB23800801C2028DD
:1098200003DA5878801C202801DB0C203FE01D2043
:10983000FFB2C01B0600684606806946FFB2E01909
:10984000801C7DDF0500002D01D028002FE0187856
:1098500002280BD168460088B6B2864206D309209A
:109860006946887068460088060010E0082069464E
:1098700088705878002807D05878B6B280B28642EF
:1098800002D35878060002E06846008806003000DF
:10989000401CFFB2E0557F1C68468078FFB2E0555F
:1098A0007F1C10783100891C401810700020F2BD18
:1098B00070B582B004000D002878001D202801DB5F
:1098C0000C201EE0684679DF0600002E01D0300033
:1098D00017E028780100491C29700321C0B22154E7
:1098E00028780100491C29701921C0B22154287818
:1098F000211868460088FFF781FF2978081828702A
:10990000002076BDF2B582B0040015001E0060682C
:10991000002801D1072027E0307821884018801CDA
:10992000202801DB0C201FE030780100491C317039
:109930002188491CC0B2295430780100491C31707B
:109940006946097AC0B22954208801906068009065
:1099500030782F18019A00993800FCF7C1FA307856
:109960002188401830700020FEBD10B5030010782B
:10997000C01C202801DB0C2014E010780400641CBB
:1099800014700224C0B20C5410780400641C1470CB
:109990000A24C0B20C5410780400641C1470C0B2C5
:1099A0000B54002010BDFFB583B00C9B0025187828
:1099B00069464870002004000398008884424BDA0E
:1099C00001A8039949680422624389180A88028021
:1099D0004A8842800022694601A865DF0600002E01
:1099E00001D0300045E0684600786946097D88422C
:1099F00030D1EDB2002D01D0002700E00227187809
:109A0000694609784018FFB2C019202801DB0C20F4
:109A10002FE0EDB2002D0DD11878401C1870187889
:109A20000100491C19706946097C069AC0B211549C
:109A300001200500069819784218694601A865DFDB
:109A40000600002E01D0300013E01878694609782E
:109A500040181870641CAFE7EDB2002D08D01878DC
:109A600069464978401A401E06996A4652788854D9
:109A7000002007B0F0BDFBB505001700089C00945E
:109A8000029B0222684601792800FFF78CFF06003E
:109A9000002E01D030000DE00094029B102239000E
:109AA000C9B22800FFF77FFF0600002E01D030006A
:109AB00000E00020FEBD00B501000888062807DB95
:109AC0000888134A904205DB0888124A904201D068
:109AD00007201BE04888062807DB48880C4A90428C
:109AE00005DB48880B4A904201D007200EE0088829
:109AF000084A904209D04888064A904205D04888D2
:109B00000A88904201D2072000E0002000BD00003A
:109B1000810C0000FFFF0000F8B506000C001500E6
:109B20002878801D202801D30C2026E03000FFF784
:109B3000C2FF0700002F01D038001EE02878010086
:109B4000491C29700521C0B2215428780100491C04
:109B500029701221C0B22154287821183088FFF7CB
:109B60004DFE297808182870287821187088FFF78A
:109B700045FE2978081828700020F2BDF2B582B0A1
:109B800005001400AE88B61C2078F6B28019801C3F
:109B9000202801DB0C2032E020780100491C2170D4
:109BA0003100491C029AC0B2115420780100491CAE
:109BB0002170FF21029AC0B21154029821784118F5
:109BC0002888FFF71BFE217808182070A888002835
:109BD00014D0A868002801D1072010E0A8880190BF
:109BE000A8680090029821784718019A00993800D7
:109BF000FCF776F92078A988401820700020FEBD77
:109C0000F3B583B015000398006B002801D107203D
:109C100048E000200600039834300078F6B286420F
:109C20003FD20398006BF6B20C2171434018040038
:109C30006846A188891C017028780100491C297098
:109C400069460978491C049AC0B211542878010069
:109C5000491C29701621049AC0B21154049829781D
:109C600041182088FFF7CAFD297808182870A088B5
:109C7000002814D0A068002801D1072012E0A08895
:109C80000290A0680190049829784718029A0199D7
:109C90003800FCF725F92878A18840182870761C30
:109CA000B9E7002005B0F0BDF8B505000F001600BB
:109CB0000024002030702878002809D032003900B4
:109CC0002800FFF7A4FD0400002C01D0200082E052
:109CD000A878002808D031003800FFF7E9FD04001B
:109CE000002C01D0200076E0A88800280BD033009B
:109CF0003A0001212800001DFFF704FE0400002C9B
:109D000001D0200067E0E86800280BD0320039005D
:109D1000E8680023C056FFF728FE0400002C01D09D
:109D2000200058E0288A00280CD000963B0006222C
:109D3000022128001030FFF79EFE0400002C01D005
:109D4000200048E0288B00280CD000963B0007221A
:109D5000032128001830FFF78EFE0400002C01D0EC
:109D6000200038E0288C00280CD000963B001522FB
:109D7000142128002030FFF77EFE0400002C01D0C3
:109D8000200028E0A86A002809D032003900A86A1B
:109D9000FFF7C2FE0400002C01D020001BE0E86A9F
:109DA000002809D032003900E86AFFF7E7FE040016
:109DB000002C01D020000EE03420285C002809D0BF
:109DC000320039002800FFF71BFF0400002C01D0EF
:109DD000200000E02000F2BD00B5010088880028C6
:109DE00006D08868002803D088680078400701D42E
:109DF000072000E0002000BD00B501008888002891
:109E000001D0072000E0002000BDF0B593B00600AF
:109E10000D00002069464870002069460870002E39
:109E200015D03000FFF7D8FF0400002C01D020002F
:109E30002FE000AA521C0AA93000FFF735FF0400EA
:109E4000002C01D0200024E00AA8019001E00020AD
:109E50000190002D14D02800FFF7CEFF0400002C45
:109E600001D0200015E06A4602A92800FFF71CFF78
:109E70000400002C01D020000BE002A8070001E044
:109E800000200700684603783A0068464178019848
:109E900072DF13B0F0BDFEE7F8B507000E00002436
:109EA0003078E4B23855641C7078E4B23855641CDC
:109EB000E4B2022C01D1012500E00025EDB2002D15
:109EC00004D1044A20210020FCF78EFF2000C0B2FC
:109ED000F2BD0000B4CA010038B505000C00200036
:109EE00001F047FC28806C6031BDFEE702001000E5
:109EF0000870100080B2000A48700220704770B5E8
:109F000006000D00002D01D0012400E00024E4B281
:109F1000002C04D17F4A33210020FCF765FF002E7E
:109F200001D0012400E00024E4B2002C04D1794ADD
:109F300034210020FCF758FF03CD083D307003CDDD
:109F4000083D80B2000A707003CD083D000CB0706F
:109F500003CD083D000EF07003CD083D3171A868B7
:109F60007071A868000AB071A868000CF07170BD2B
:109F7000F8B507000E000024002E01D0012500E0F6
:109F80000025EDB2002D04D1624A4B210020FCF7E0
:109F90002BFF002F01D0012500E00025EDB2002DA0
:109FA00004D15C4A4C210020FCF71EFF3078E4B25B
:109FB0003855641CE4B239197088FFF797FF2018F0
:109FC0000400E4B23919B088FFF790FF20180400AC
:109FD000E4B23919F088FFF789FF20180400E4B2D1
:109FE000072C01D1012500E00025EDB2002D04D1A0
:109FF000484A54210020FCF7F7FEF1BDFFB591B0AF
:10A000001298002801D0012400E00024E4B2002CC2
:10A0100004D1404A6D210020FCF7E6FE13A8008819
:10A02000002801D0012400E00024E4B2002C04D177
:10A03000384A6E210020FCF7D7FE1C200490002037
:10A0400003900AAC039A04992000FBF777FF0AA853
:10A050000078022101430AA8017000200B90002023
:10A060000D9000200E9000200F90002010900120F5
:10A0700001A9887011A80088694688800320029091
:10A0800000246D46220002992800FBF757FF149820
:10A0900000786946087014984078694648706846A8
:10A0A0008078F9210140022008436946887068469B
:10A0B0008078F72101406846817068468078EF21FA
:10A0C00001406846817068468078FE2101406846FC
:10A0D00081701425002605AF320029003800FBF7F7
:10A0E0002DFF01A805906846069013A8008805A9D1
:10A0F0000881002005A9488113A8008805A9888146
:10A10000129809901A9B05AA0AA960480088A2DF44
:10A1100015B0F0BD7CCB010030B587B00400012044
:10A1200001A988705A4869468880584A01A90120C7
:10A13000A0DF0500002D01D02800A4E02088002821
:10A140000DD05448009023003C3322886168524867
:10A15000FFF754FF0500002D01D0280093E020896F
:10A1600000280DD04D48009023003C332289E1683F
:10A170004B48FFF743FF0500002D01D0280082E087
:10A18000208A00280DD04748009023003C33228AC3
:10A1900061694548FFF732FF0500002D01D0280016
:10A1A00071E0208B00280DD04048009023003C3304
:10A1B000228BE1693E48FFF721FF0500002D01D009
:10A1C000280060E0208C00280DD03A480090230041
:10A1D0003C33228C616A3848FFF710FF0500002DE0
:10A1E00001D028004FE0208D00280DD0334800908A
:10A1F00023003C33228DE16A3148FFF7FFFE050062
:10A20000002D01D028003EE0206B002811D0216BEA
:10A2100004A8FFF774FE2B48009023003C3308226B
:10A2200004A92948FFF7EAFE0500002D01D0280007
:10A2300029E0606B002810D02448009023003C33B4
:10A24000606B027992B2606B01682148FFF7D6FE1D
:10A250000500002D01D0280015E0A06B002811D0CA
:10A26000A16B02A8FFF784FE1A48009023003C333C
:10A27000072202A91848FFF7C1FE0500002D01D0F2
:10A28000280000E0002007B030BD0000D6260020E6
:10A290000A18000020260020292A00002826002075
:10A2A000242A000030260020252A0000382600201D
:10A2B000272A000040260020262A000048260020E9
:10A2C000282A000050260020232A000058260020BB
:10A2D0002A2A000060260020502A000001784078D9
:10A2E0000002084380B2704710B504002000FFF759
:10A2F000F5FF01000800C007C00F10BD00B5010048
:10A300004888A14A1288904206D39F4840884A88CC
:10A31000904201D3012000E0002000BD38B50400C8
:10A3200086480088864988423BD086480078401C91
:10A33000844908709548007B8249097888420FD388
:10A3400081497E48008875DF0500002D29D08F489F
:10A350008069002825D028008C498969884720E039
:10A360000020784908708948007C00280ED03B21E5
:10A370007248008876DF0500002D07D08348806989
:10A38000002803D028008149896988477F484069AF
:10A39000002806D000206946087068467B49496954
:10A3A000884731BD38B50400784821001C22FBF7EE
:10A3B000ABFD002076490870206800280BD0624869
:10A3C00021680822FBF78CFD5F487ADF0500002D2D
:10A3D00008D0280011E05C487BDF0500002D01D08B
:10A3E00028000AE056485549088000205549087061
:10A3F000684A00216848FFF74AF932BD30B583B09A
:10A400006648FFF77BFF00282CD1614800780028C0
:10A410000BD05E48406900282FD0002069460871A3
:10A4200001A85A494969884727E04648007800282A
:10A4300003D156484068050002E054488068050092
:10A440000022290054480068FFF76CF90400002C32
:10A4500013D04E48806900280FD020004B498969ED
:10A4600088470AE049484069002806D0012069462B
:10A470000870684645494969884700204449087082
:10A4800037BD10B50400A0882C490880434821003E
:10A490000E310822FBF724FD00202A4908703B48B2
:10A4A000C089002801D1FFF7A9FF10BD38B504000D
:10A4B0002348224908800020224908703648006855
:10A4C000FFF75FF90500002D07D0304880690028AC
:10A4D00003D028002D498969884731BD70B5050032
:10A4E0002C00A41D20882949C98988421AD1208BB3
:10A4F000022817D120001A30FFF7F6FE002802D0FC
:10A50000FFF77CFF0EE024480068FFF73AF90600E9
:10A51000002E07D01D488069002803D030001B4959
:10A520008969884770BD10B504001C482100891D49
:10A530000822FBF7D5FCFFF761FF10BDD4260020F1
:10A54000FFFF0000E32600201026002010B50400C5
:10A550002088102806D0112808D012280ED05028A4
:10A5600008D00FE02000FFF78CFF0BE02000FFF782
:10A570009DFF07E02000FFF7B1FF03E02000FFF799
:10A58000D2FFFFE710BD0000102600203825002074
:10A59000E42600201DA301009C2600201826002090
:10A5A00000B5800701D1012000E00020C0B200BD4D
:10A5B00070B505000C0016003100200080B2FCF7D9
:10A5C0004FFC70BD7CB54F480078002848D04E48FD
:10A5D0000068002801D1012500E000254B480068F3
:10A5E000002801D1012400E00024EDB2002D13D198
:10A5F00001A851DF0600052E02D1012005000BE065
:10A60000002E05D0424A69213000FCF7EDFB03E043
:10A6100001983D4909688847E4B2002C1AD13D48A9
:10A6200000886946088069463B48006861DF06008B
:10A63000052E02D1012004000CE0002E05D0344A82
:10A6400080213000FCF7D0FB04E0334800682F493C
:10A6500009688847EDB2002DC7D0E4B2002CC4D001
:10A6600073BDF4B505000C001F00002C01D10720BC
:10A670001BE02000FFF794FF002801D1072014E021
:10A6800025480460684600882249088023480760FE
:10A690002349280010DF0600002E01D0300004E01E
:10A6A000012018490870162026DFF2BD00B5010010
:10A6B0000800002801D10E2002E0144801600020AB
:10A6C00000BD00B501000800002801D10E2002E005
:10A6D0000D480160002000BD38B510480068002812
:10A6E0000DD00E480068804704002500002D05D0DD
:10A6F000074A992149002800FCF776FB01E0FFF7A3
:10A7000061FF31BDED260020D0260020CC260020A0
:10A7100018CB0100DC260020C8260020C42600201B
:10A72000B1A5010001B4401E00BF00BF00BF00BFC3
:10A7300000BF00BF00BF00BF00BF00BF00BF00BF21
:10A74000F1D101B07047F8B504000D001700864E36
:10A75000EDB2002D01D1002048E020788349086047
:10A76000641C01208249086082480068002806D1E4
:10A7700094480068002802D1761E002EF4D1002EE5
:10A7800003D090480068002815D000208D4908604B
:10A790000020A249086000208B4908600520FFF7CF
:10A7A000C1FF01208849086005209C49086000F02D
:10A7B000E3F800201AE000206E4908606D1EEDB23B
:10A7C000002D03D1FFB2002F05D10EE0207867499C
:10A7D0000860641CC8E70020914908600120914985
:10A7E00008608F4800680028FBD00120F2BDF8B552
:10A7F00004000D0017005C4EEDB2002D01D10020C9
:10A800005CE0EDB2012D03D186488749086002E083
:10A8100086488549086001208549086000208549EF
:10A82000086001208449086082480068002806D139
:10A8300064480068002802D1761E002EF4D1002062
:10A840007C490860002E03D05E480068002815D0BF
:10A8500000205C49086000207049086000205A49C7
:10A8600008600520FFF75EFF0120574908600520BA
:10A870006A49086000F080F800201FE06F48006817
:10A880002070641C6D1EEDB2012D02D16548664931
:10A890000860EDB2002D06D01420FFF743FF012021
:10A8A00067490860C0E75E4800680028FBD00020C8
:10A8B0005B4908600120634908600120F2BDF8B5DA
:10A8C0005648006800900020544908605E480068BF
:10A8D00007005E485C4908605D48006805005B4809
:10A8E0005B49086008205B490860042059490860FA
:10A8F0000420FFF717FF5848006801000907C90F37
:10A90000002909D05448006801004907C90F0029EF
:10A9100002D0012004001CE00020040012200600E8
:10A920003000461E002814D004204C490860042042
:10A93000FFF7F8FE0420474908600420FFF7F2FE05
:10A940004548006801000907C90F0029E8D0012027
:10A9500004003D4807603E48056000982F490860A4
:10A960002000C0B2F2BD0000204E00001C45004097
:10A97000084000401C41004080B539483249086019
:10A9800037483349086000202A49086000203549CB
:10A990000860022034490860032034490860CC2054
:10A9A0004004334908603348334908601F481E4952
:10A9B0000860012023490860052018490860FFF756
:10A9C0007EFF02BD24410040FC4F0040F8B5070067
:10A9D0000E0015000024EDB2002D1CD0FFF76FFF14
:10A9E000002818D03800C0B24008C0B2234908601F
:10A9F000F80708D5684602782900C9B23000FFF789
:10AA0000F6FE040007E0684602782900C9B230006B
:10AA1000FFF799FE04002000C0B2F2BD00450040DF
:10AA2000044100401440004014F501401C40004027
:10AA300004F5014008410040004000401845004036
:10AA40002040004008F50140080700500D060000B6
:10AA50000C07005008050050100500500C05005070
:10AA60000C0600001C410040084500400C45004019
:10AA7000244500403841004010F501408845004021
:10AA800038B5050075480078002816D0EDB2002DC5
:10AA900002D00220040001E0002004002100C9B21D
:10AAA0006F480068407C00F0C1FC002802D0002004
:10AAB000C04329E06A48447425E06948807A002848
:10AAC00002D10020C0431FE0EDB2002D05D0644844
:10AAD000407C002801D0002016E0EDB2002D02D00D
