:020000040001F9
:1060000030370020BD610100D7610100D961010076
:106010000000000000000000000000000000000080
:10602000000000000000000000000000DB61010033
:106030000000000000000000DD610100DF610100E0
:10604000E1610100E1610100E1610100E161010044
:10605000E161010000000000A9940100E16101007C
:10606000E1610100E1610100E1610100E161010024
:10607000E1610100E1610100E1610100E161010014
:10608000E161010053890100E1610100E16101006A
:1060900075890100E1610100F3900100E1610100F7
:1060A000E1610100E161010000000000000000006A
:1060B00000000000000000000000000000000000E0
:1060C00000F002F800F03EF80CA030C808382418A0
:1060D0002D18A246671EAB4654465D46AC4201D120
:1060E00000F030F87E460F3E0FCCB6460126334214
:1060F00000D0FB1AA246AB46334318474C3A000087
:106100006C3A0000103A02D378C878C1FAD8520726
:1061100001D330C830C101D504680C60704700005D
:106120000023002400250026103A01D378C1FBD8B3
:10613000520700D330C100D50B6070471FB51FBD9B
:1061400010B510BD03F0B7FC1146FFF7F7FF00F0E4
:10615000AEFB03F0CFFC03B4FFF7F2FF03BC03F088
:10616000D3FC0000401E00BF00BF00BF00BF00BF47
:1061700000BF00BF00BF00BF00BF00BF00BFF1D124
:106180007047000070B505460C46164602E00FCC7D
:106190000FC5103E102EFAD2082E02D303CC03C531
:1061A000083E042E07D301CC01C5361F03E0217839
:1061B0002970641C6D1C761EF9D270BD03210C4839
:1061C00002680A4302600B4802680A4302600A48F8
:1061D00080470A480047FEE7FEE7FEE7FEE7FEE7E6
:1061E000FEE7000006480749074A084B70470000D1
:1061F0002405004054050040B5620100C160010063
:106200003027002030370020302F0020302F002092
:1062100032483349086070473248008CC0B20128C8
:1062200012D13048808C0007000F00280CD12D4877
:10623000806AF0210840402806D12A48C06A0840F8
:10624000002801D1012070470020FCE72548008C80
:10625000C0B201282CD12348808C0007000F0028F1
:1062600026D12048806AF0210840002806D11D4828
:10627000C06A0840002801D1012070471948806A8F
:10628000F0210840102806D11648C06A08400028AE
:1062900001D10120F1E71348806AF021084030283D
:1062A00006D11048C06A0840002801D10120E4E767
:1062B0000020E2E710B5FFF7C9FF002805D00A4823
:1062C0000A494860C8130A498861FFF7A5FF0028FA
:1062D00002D001200749886010BD00000024F400AE
:1062E00000200020C00F00F0DFFF07C000050040C5
:1062F000006C0040000600400F2000F00BFB00BFC8
:10630000BFF34F8FF948FA49C860BFF34F8F00BF02
:1063100000BFFEE704460D462A462146F548FFF732
:10632000EBFF10B5082000F0ECFA092000F0E9FAC4
:106330000F2000F0E6FA10BD38B500BFEE48EF4B75
:10634000052202210090002002F018FB044600BF45
:106350002546002D05D000BFE9A2BB212846FFF746
:10636000CBFF00BF00BF38BD3EB500BF6846007818
:1063700001090901491C009168460078F021884311
:106380001030009000BF0F22E0A168467CDF044679
:1063900000BF2546002D05D000BFD9A2D621284632
:1063A000FFF7AAFF00BF002001900290FF2191316A
:1063B000684681804900C18000210181FF2191311F
:1063C000418101A87ADF044600BF2546002D05D093
:1063D00000BFCBA2E4212846FFF78EFF00BF3EBDE1
:1063E00030B591B005210291CC4800680190CC48AD
:1063F000817C68468171382103A803F0AAFA022142
:106400006846017301218173018202A9059101216E
:10641000818401A90A91002103A801F035FD0446F9
:1064200000BF2546002D06D000BFB5A2FF210231D6
:106430002846FFF761FF00BF11B030BD38B569468F
:10644000B74800F0BEFB044600BF2546002D06D02D
:1064500000BFABA2FF2111312846FFF74DFF00BF5F
:1064600038BD1E20AF4908800846807840084000AB
:10647000401C88700846807802218843A9498870AA
:10648000084680781C2188430C30A649887008464D
:10649000807820218843A34988700720C870102085
:1064A0000871704770B505462878002810D13B2147
:1064B0009D48008876DF044600BF2646002E06D0A1
:1064C00000BF8FA2FF2134313046FFF715FF00BF18
:1064D00070BD044600BF8AA2FF213F312046FFF76E
:1064E0000BFF30B587B01C21684603F032FA00205C
:1064F00000900520C00301900F20000402900321AA
:10650000684601730021C18101748848059088485C
:106510000690684602F017FC044600BF2546002D91
:1065200006D000BF76A2FF2156312846FFF7E4FED1
:1065300000BF07B030BD704730B585B01421684644
:1065400003F007FA002168460170002001906846B8
:10655000017240210182B421418273DF044600BFF1
:106560002546002D06D000BF65A2FF2177312846C1
:10657000FFF7C2FE00BF082000F0CCF905B030BD27
:10658000F8B50546288814284ED006DC10280BD014
:10659000112813D0132872D11AE017283ED01928D9
:1065A0006FD05228F7D126E0092000F0B3F9082077
:1065B00000F0B5F9A8885C49088088E0092000F05F
:1065C000AEF90020C04358490880FFF7B5FF7EE0D0
:1065D000544A0021544800887FDF044600BF274604
:1065E000002F06D000BF46A2FF21AA313846FFF790
:1065F00083FE00BF6BE0002211464B480088A9DFF4
:10660000044600BF2746002F06D000BF3CA2FF2152
:10661000AF313846FFF770FE00BF58E03222A91DA7
:10662000444803F037F952E0424EB61D3188E889FC
:10663000814211D1002231463B48008881DF044667
:1066400000BF2746002F06D000BF2DA2FF21BB317F
:106650003846FFF751FE11E000221146324800880B
:1066600081DF044600BF2746002F06D000BF24A2CA
:10667000FF21C1313846FFF73FFE00BF27E025E08C
:10668000FFE7A879002820D1082000F048F9002071
:10669000014603220092009A12048B001A4305233C
:1066A0001B0707273F02DB198700DA5100BF34DFE1
:1066B000044600BF2746002F06D000BF10A2FF21CE
:1066C000D1313846FFF718FE00BF00E000BF00BF21
:1066D000F8BD10B504462046FFF752FF204602F0F1
:1066E00006FC21460E4800F0BCF910BD0400FA0576
:1066F00000ED00E0EFBEADDE29690100D4200020EE
:106700002E2E5C6D61696E2E630000004E6F726408
:1067100069635F54656D706C61746500349B010042
:10672000B8200020042000200A200020A5640100D9
:10673000D3640100EC22002010B50446204600F08E
:1067400024FD10BDF8B500BF002350229A4908204F
:1067500002F087FC054600BF2E46002E06D000BF83
:10676000964A812189003046FFF7C6FD00BF00BF71
:10677000002000900090684660DF044600BF254678
:10678000002D05D000BF8D4A8D492846FFF7B4FD86
:1067900000BF8C4802F09BFC044600BF2546002D3C
:1067A00006D000BF854A8649091D2846FFF7A4FD8B
:1067B00000BF854802F094FC044600BF2546002D2A
:1067C00006D000BF7D4A7E4908312846FFF794FD78
:1067D00000BFF8BD70B500BF7C4A0A21082001F057
:1067E0009BFB044600BF2546002D06D000BF734A20
:1067F000734910312846FFF77FFD00BF00BF70BD11
:1068000070B500BF7249012002F0CEFE044600BF01
:106810002546002D06D000BF684A8F2189002846F2
:10682000FFF76AFD00BF00BF70BD70B500BF694BC8
:10683000694A0121694802F02CFD044600BF254643
:10684000002D06D000BF5D4A5D4942312846FFF762
:1068500053FD00BF00BF70BD70B540DF044600BFF0
:106860002546002D06D000BF544A55494F312846D1
:10687000FFF742FD00BF70BD70B505462946584878
:1068800000F0D0F90446002C10D0564884420DD0B8
:10689000082C0BD000BF2646002E06D000BF474A6A
:1068A00047495B313046FFF727FD00BF70BDFFF75A
:1068B00038FDFFF741FDFFF7A3FFFFF7B6FFFFF736
:1068C00041FFFFF787FFFFF74FFDFFF789FDFFF758
:1068D000B5FDFFF706FEFFF7C4FDFFF72CFEFFF73F
:1068E0002BFE002400BF01F0D9FBFFF7B5FF2046C7
:1068F000FFF7C2FFFF2C01D10024F4E7601CC4B2F3
:10690000F1E703210522120707231B02D218830097
:10691000D150704701218140334A91607047012175
:106920008140314AD16070477CB504460D460094E1
:1069300001952E4A0821684601F00FFB7CBD7CB50D
:1069400004460D4616460094684605714671284A6D
:10695000082101F002FB7CBDF8B504460D46264631
:1069600000BF082D01D1012000E000200746002FC4
:1069700005D100BF1FA2FF211B31FFF7BDFC00BFE7
:10698000316870688847F8BDF8B505460E462C4654
:1069900000BF082E01D1012000E000200746002F93
:1069A00004D100BF1FA2A821FFF7A6FC00BF617998
:1069B000207922689047F8BD20230020006701005D
:1069C0000B020000D366010039670100702300202C
:1069D000202400203F690100660600000C200020F2
:1069E000B820002002300000000500505969010065
:1069F000896901002E2E5C2E2E5C2E2E5C2E2E5CC4
:106A00002E2E5C496E636C7564655C6170705F63AB
:106A10006F6D6D6F6E5C6170705F74696D65722E05
:106A2000680000002E2E5C2E2E5C2E2E5C2E2E5C1E
:106A30002E2E5C496E636C7564655C6170705F637B
:106A40006F6D6D6F6E5C6170705F627574746F6E88
:106A50002E6800008A88828270470022D243828298
:106A6000704770B505460C462088102804D01128C0
:106A700007D050280BD109E021462846FFF7EAFF4E
:106A800006E021462846FFF7E8FF01E000E000BFEE
:106A900000BF70BD30B58FB004460D460020079092
:106AA00000BF6846007F01090901491C684601775B
:106AB000007FF021884310306946087700BF00BF8F
:106AC0006846407F01090901491C68464177407FBB
:106AD000F021884310306946487700BF6846807FC0
:106AE00006218843811C684681771C2108A802F092
:106AF00030FF08A8007802218843811C08A8017093
:106B0000007810218843411808A8017000200990DE
:106B10000B900C9007A80D9000200E90A17C684669
:106B200081714C4981800020009000BF6846007848
:106B300001090901491C684601700078F021884369
:106B400010306946087000BF00BF684640780109F0
:106B50000901684641704078F021884369464870D1
:106B600000BF6846807806218843811C6846817092
:106B7000807808218843014668468170807810211A
:106B8000884301466846817080784108490068461C
:106B90008170142102A802F0DCFE01A80290684670
:106BA0000390012101820021418201218182002084
:106BB0000690208823460A3302AA08A9A2DF0FB054
:106BC00030BD70B586B004460E460020C043A0829A
:106BD0003068A061204B0FCB01AD0FC521461231AB
:106BE00001A863DF0546002D02D0284606B070BD1F
:106BF000A17C684681751749491E8182224605A9F4
:106C00000120A0DF0546002D01D02846EEE73146E1
:106C10002046FFF73FFF0546002D01D02846E5E757
:106C20000020E3E713B586B004460121019100205E
:106C300002900390049005906846817261890181F9
:106C400007A8059001A80490A08A02A9A6DF08B0B1
:106C500010BD000024150000389B01000023142102
:106C60004143FC4A53541421414389184B80022369
:106C70001421414389188B60002314214143891852
:106C8000CB601421414389180B61142141438918B9
:106C90008B80704710B50020EF490880EF490870DD
:106CA000EC49091F087048708870002403E02046F2
:106CB000FFF7D4FF641C1E2CF9D310BDFFB583B0C1
:106CC00004460F4615460326E448007800280BD1F9
:106CD000002D06D10698002803D10220DF49087054
:106CE00002E00120DD490870DC480078030002F072
:106CF00012FF07FD05314E84BAD7FD00D848406920
:106D0000401C002808D001221207126991B2D44A0F
:106D1000506902F020FE02E0012000074069401E99
:106D200001210907096989B248430290012000073F
:106D300000690004820C01200007006980B27843DA
:106D40000146029821DF0646002E02D10220C349E7
:106D50000870D0E0384620DF0646002E16D1002D00
:106D600011D1069800280AD12078042803D10720E1
:106D7000BA4908700AE00520B849087006E0042006
:106D8000B649087002E00320B4490870B3E0B44883
:106D90004069401C002808D001221207126991B2F4
:106DA000AF4A506902F0D7FD02E0012000074069B8
:106DB000401E01210907096989B2484301210907D9
:106DC0000290096989B2794308462A46029921DF6F
:106DD0000646002E10D1069800280AD120780428F3
:106DE00003D106209D49087006E005209B490870E4
:106DF00002E00420994908707DE099484069401CF0
:106E0000002808D001221207126991B2944A5069F1
:106E100002F0A1FD02E0012000074069401E0121AF
:106E20000907096989B24843A900401861884018D8
:106E3000012109070290096989B27943AA008918DA
:106E400062888818069A029921DF0646002E09D129
:106E50002078042803D106208049087002E005202C
:106E60007E49087047E001200007006980B278433E
:106E7000AB00C0180290608882082169029821DF67
:106E80000646002E0BD1002D06D10698002803D10E
:106E900007207249087002E00620704908702AE055
:106EA0006F484069401C002808D00122120712696F
:106EB00091B26B4A506902F04EFD02E001200007DA
:106EC0004069401E01210907096989B248430190C0
:106ED00001200007006981B2019802F03CFD029098
:106EE00020DF0646002E04D1072000E002E05B49C7
:106EF000087000E000BF00BF304607B0F0BDF0B53D
:106F000085B00F275348001F00781421484351498A
:106F10004418E5682078022804D0042823D00528E6
:106F20006FD16FE0206903904B480088860260882B
:106F3000801B0490039880190390A088801945193C
:106F4000012189020498884206D2049882082846C2
:106F5000039921DF074605E0FF2201322846039905
:106F600021DF074681E0A06800013E494018008902
:106F70000490A0680001401840890390A0680001B7
:106F80004018406802900298A84205D103990498DD
:106F900048436188884202D0A06803280DD10120AF
:106FA0000007006981B2284602F0D5FC2A49098809
:106FB0004618304620DF074622E00120000700691E
:106FC00081B2284602F0C7FC06460120000700698E
:106FD00080B27043281A80080190012000070069E0
:106FE00080B2711C484361884919401A800800909A
:106FF00031462046009B019AFFF760FE074600BF1E
:1070000033E031E001200007006981B2284602F038
:10701000A2FC0646A088411901200007006980B241
:107020007043081A80080490A088401961884218AB
:1070300001200007006980B2711C4843801A800853
:10704000039031462046039B049AFFF737FE07461C
:107050000BE00000382400201C2000201F2000200E
:10706000001000109026002000BF00BF002F02D1AA
:107070000120F9498870384605B0F0BDFFB581B0F0
:10708000064617460024F44840781E2837D0F248B8
:107090000078F14949784018C4B21E2C02DB204622
:1070A0001E38C4B214206043EB49091D0E5414204D
:1070B000604340180761142060434118029805C8D6
:1070C000CA60886014206043E34A121D8018049946
:1070D00041801420604380180A9981800025101F88
:1070E0008078002805D1FFF70AFF0546112D00D151
:1070F0000025D9484078401CD749487000E0042555
:10710000284605B0F0BD10B50024D34840780028CB
:1071100007DDFFF7F4FE0446002C02D0112C00D14D
:107120000024204610BDF8B50446CB480078142151
:107130004843C949091D0E5C081F007814214843C3
:10714000C549091D401880680001C4490D58C2484E
:10715000007814214843C049091D40184088091F80
:107160000090097814225143BB4A121D89180B69FB
:10717000111F097814225143B74A121D8918084675
:10718000083022463146A847F8BDFEB50546002620
:10719000B148807801287DD10020AF498870B0487F
:1071A0000078082811D1022D03D10020AC490870C5
:1071B00002E00020AB490870FFF7A5FF0646002E4D
:1071C00002D03046FFF7AFFFFEBD022D02D0032DE7
:1071D00079D174E0A0480078142148439E49091DE4
:1071E0004418A1480088401C9F4908802078022844
:1071F00007D10846008880026188884201DB0120AF
:1072000000E0002007462078052805D19448007842
:10721000072801D1012000E00020029020780428F6
:1072200005D18F480078072801D1012000E0002017
:107230000190207804280BD18B4800888002618857
:10724000884205DB86480078002801D1012000E053
:10725000002000900298002807D10198002804D14E
:107260000098002801D1002F1FD000207C49087011
:107270003046FFF758FF78490878FFF7EFFC002009
:107280007949088074484078401E73494870084620
:10729000007800E01AE0401C0870084600781E28BC
:1072A00003DB084600781E380870FFF72CFF0646FF
:1072B000002E02D03046FFF736FF05E003E00D2038
:1072C000FFF731FF00E000BF00BF00BF00BF7BE75A
:1072D00070B5FFF7DFFC002064490880644840690E
:1072E000401C002808D001221207126991B2604A9E
:1072F000506902F030FB02E0012000074069C01E27
:1073000001210907096989B248435A4908600020E8
:107310005549088000BF0DE0002102014F4B9950F4
:107320000201D21811810201D21891810201D218F2
:107330005181401C0228EFD30820494908704C486D
:107340004069401C002808D001221207126991B23E
:10735000474A506902F0FFFA02E001200007406945
:10736000401E01210907096989B2484306460120E8
:107370000007006981B2304602F0EDFA054620DFD1
:107380000446002C04D10120334988703549087027
:10739000204670BDF8B504460D4600BF3148007860
:1073A000002801D10820F8BD00BF002C01D10E201B
:1073B000F9E7002D01D10E20F5E72068002801D162
:1073C0000E20F0E7A08801210907096989B28842E7
:1073D00002DCA088102801DA0720E4E7E088002812
:1073E00030D023484069401C002808D001221207F1
:1073F000126991B21E4A506902F0ADFA02E0012012
:1074000000074069401E01210907096989B2484304
:10741000E188A2885143174A12688918884211D31B
:10742000E088A188484301210907096989B2884297
:107430000ADDA18801221207126990B202F095FAC2
:10744000002901D00720AEE720798007800F0028AF
:1074500012D00720A7E70000342400209026002047
:107460001F2000201E2000201C20002014200020AF
:107470000010001018200020FE480088022801D1CA
:10748000042090E7FB4800882860FB48006868609B
:10749000F84909880901F94A891868684860F54976
:1074A0000988090120685050A088F249098809011B
:1074B00089180881E088EF490988090189184881FD
:1074C0000027A688E1884E4300BF781C87B20120C0
:1074D0000007006980B2B04205D2012000070069B0
:1074E00080B2361A00E0002601200007006980B251
:1074F000E14909684018E049086001200007006977
:1075000080B2B042E1D9DB4800880001DB49401875
:107510008781D8480088401CD6490880002042E76F
:107520003CB5034600BFD6480078002801D10820AA
:107530003CBD00BF002B01D10E20F9E7002A01D18C
:107540000E20F5E71868022805D218680001CB4C18
:107550002058002801D10720EAE75C6818680194E8
:107560000090019C18680001C44D401900894843EF
:1075700020180190009800012C4600194089009CB9
:107580002401641924896043009C240164196468FF
:107590000019019CA04201D80720C9E7019C00986E
:1075A000546010600020C3E7F8B504460E46154647
:1075B0001F4600BFB2480078002801D10820F8BD5E
:1075C00000BF002E01D10E20F9E7002C01D10E20C2
:1075D000F5E72068022805D220680001A74908586D
:1075E000002801D10720EAE720680001A3494018DC
:1075F000408921680901A14A8918098948432168FD
:1076000009018918496840186168884201D8072033
:10761000D5E7002D06D02068000198494018008960
:10762000A84201DA0720CAE7E81921680901934A4C
:1076300089180989884201DD0720C0E7304600F03B
:107640005CF9002804D0384600F057F9002801D131
:107650001020B4E7606800F050F9002801D1102034
:10766000ADE72B463246214602200097FFF706FD84
:10767000A5E7F8B504460E4615461F4600BF8048EC
:107680000078002801D10820F8BD00BF002E01D1EC
:107690000E20F9E7002C01D10E20F5E72068022822
:1076A00005D22068000175490858002801D107203B
:1076B000EAE7206800017149401840892168090102
:1076C0006E4A89180989484321680901891849685F
:1076D00040186168884201D80720D5E7002D06D000
:1076E00020680001654940180089A84201DA072096
:1076F000CAE7E81921680901604A8918098988429E
:1077000001DD0720C0E7304600F0F7F8002804D07C
:10771000384600F0F2F8002801D11020B4E7606884
:1077200000F0EBF8002801D11020ADE72B463246DF
:10773000214605200097FFF7A1FCA5E7FFB581B022
:107740000C4615461E4600BF4D480078002802D161
:10775000082005B0F0BD00BF002C01D10E20F8E7D5
:107760000198002801D10E20F3E72068022805D2F5
:107770002068000141490858002801D10720E8E7A6
:10778000206800013D4940184089216809013B4AB1
:1077900089180989484321680901891849684018EE
:1077A0006168884201D80720D3E7002D06D0206801
:1077B0000001324940180089A84201DA0720C8E7D1
:1077C000A819216809012D4A89180989884201DD13
:1077D0000720BEE7019800F090F8002804D030465A
:1077E00000F08BF8002801D11020B2E7606800F0AB
:1077F00084F8002801D11020ABE7606881192A467F
:10780000019802F047F80095206800011B490F58C5
:10781000002203212046019BB847002099E7F8B5D4
:1078200004460D4600BF16480078002801D1082004
:10783000F8BD00BF002C01D10E20F9E72068022816
:1078400005D2206800010D490858002801D1072001
:10785000EEE72068000109494018408921680901C4
:10786000064A891809894843216809018918496825
:10787000401807E014200020182000209026002047
:107880001E2000206168884201D80720D0E7606888
:1078900000F033F8002801D11020C9E723681B014C
:1078A0001A4FDB1962685B68D01A226812013B46E6
:1078B000D218118902F04FF8002901D00720B7E74C
:1078C00000202B460246214600900420FFF7D6FBFD
:1078D00006463046ACE7014600BF0D480078002858
:1078E00001D10820704700BF002901D10E20F9E71F
:1078F0000848407808600020F4E701468807800FB8
:10790000002801D1012070470020FCE790260020CC
:107910001E20002034240020F7B584B004460F4612
:1079200006980678B01C1F2803DC6078801C1F288E
:1079300002DD0C2007B0F0BD1F20801B801E85B229
:107940000295B11C781802A97DDF039003980028E6
:1079500001D00398EEE72078022808D16846008914
:10796000A84204DC09200190684605890BE0082044
:1079700001906078002804D06078A84201DC657826
:1079800001E068460589681CC2B23046711CCEB25F
:107990003A543046721CD6B201993954069801788F
:1079A000A81C0818C1B2069801700020C2E7F8B5FB
:1079B00005460C462078001D1F2801DD0C20F8BD6F
:1079C000684679DF0646002E01D03046F7E70321EE
:1079D0002278501C2070A95419212278501C207044
:1079E000A954207841196846008800F08AFA217865
:1079F000401820700020E2E7F8B505460F4616460D
:107A00001C466868002801D10720F8BD2078801C3A
:107A1000298840181F2801DD0C20F6E72878401C33
:107A2000C1B22278501C2070B1542178481C2070BB
:107A300077542A8823789819696801F02BFF2078F9
:107A40002978401820700020DFE730B50346107811
:107A5000C01C1F2801DD0C2030BD02241578681CD5
:107A600010704C550A241578681C10704C55157808
:107A7000681C10704B550020EEE7FFB587B0064636
:107A80001D46109C0020069020780590002747E0B6
:107A9000B900706841180A886846028149884181A6
:107AA000002203A902A865DF04900498002802D0F0
:107AB00004980BB0F0BD6846017B099881422ED135
:107AC0000698002801D0002000E0022001902078D4
:107AD0006946097B4118019808181F2801DD0C2010
:107AE000E7E70698002809D12078401C207022780A
:107AF000511C08982170A854012006902078421942
:107B000003A902A865DF04900498002801D0049816
:107B1000CFE720786946097B4018207000BF7F1CA2
:107B20003088B842B4DC0698002806D02178059841
:107B3000401C081AC1B2059829540020B9E7FFB5C6
:107B400081B0074615460A9E009602223846049BDD
:107B50000299FFF792FF0446002C02D0204605B0A0
:107B6000F0BD0096102229463846049BFFF785FF9A
:107B70000446002C01D02046F1E70020EFE7014643
:107B80000888062808DB08881922D201904205DD02
:107B90000888E04A904201D00720704748880628AC
:107BA00008DB48881922D201904205DD4888D94A6D
:107BB000904201D00720F0E70888D64A904208D0CA
:107BC0004888904205D008884A88904201DD072005
:107BD000E3E70020E1E7F8B506460D4614462078B5
:107BE000801D1F2801D90C20F8BD3046FFF7C7FFC4
:107BF0000746002F01D03846F6E705212278501CB1
:107C00002070A95412212278501C2070A954227887
:107C10005119308800F075F92178401820702278C9
:107C20005119708800F06DF92178401820700020FB
:107C3000DAE7F8B505460E4614462879801CC7B227
:107C40002078801CC0191F2801DD0C20F8BD781C8D
:107C5000C1B22278501C2070B154FF212278501CF0
:107C60002070B15422789119288800F04AF92178BF
:107C700040182070A88800280EDDA868002801D1CF
:107C80000720E3E7AA8823789819A96801F002FE83
:107C900020782979401820700020D7E7FEB50746E4
:107CA0000E461446386B002801D10720FEBD002087
:107CB000019032E0396B0C22019850430D1828795D
:107CC000801CC0B200900098401CC1B22278501CA9
:107CD0002070B15416212278501C2070B1542278A3
:107CE0009119288800F00DF9217840182070A88893
:107CF00000280EDDA868002801D10720D6E7AA8851
:107D000023789819A96801F0C5FD207829794018D1
:107D100020700198401CC0B201903420C15D0198D0
:107D20008142C7DC0020C1E7F8B504460F4616467D
:107D30000025002030702078002809D032463946CE
:107D40002046FFF7E9FD0546002D01D02846F8BD85
:107D5000A078002808D031463846FFF728FE0546AF
:107D6000002D01D02846F2E7A08800280ADD33461E
:107D70003A460121201DFFF73FFE0546002D01D0A8
:107D80002846E4E7E06800280BD00020E1680856A8
:107D900032463946FFF759FE0546002D01D02846E8
:107DA000D5E7208A00280CDD3B460622022120462A
:107DB00010300096FFF7C3FE0546002D01D028467F
:107DC000C5E7208B00280CDD3B4607220321204617
:107DD00018300096FFF7B3FE0546002D01D0284667
:107DE000B5E7208C00280CDD3B46152214212046E7
:107DF00020300096FFF7A3FE0546002D01D028464F
:107E0000A5E7A06A002809D032463946A06AFFF7E4
:107E1000E2FE0546002D01D0284698E7E06A0028DA
:107E200009D032463946E06AFFF703FF0546002DC8
:107E300001D028468BE73420005D002809DD32465A
:107E400039462046FFF72AFF0546002D01D0284677
:107E50007DE728467BE701468888002808D08868A7
:107E6000002805D08868007804221040002801D13D
:107E7000072070470020FCE701468888002801DDC4
:107E8000072070470020FCE7F3B593B00D460021B2
:107E9000129111911398002814D01398FFF7DBFF6B
:107EA0000446002C02D0204615B0F0BD12AA09A944
:107EB0001398FFF739FF0446002C01D02046F3E762
:107EC00009AE00E00026002D13D02846FFF7D4FFAE
:107ED0000446002C01D02046E6E711AA01A9284655
:107EE000FFF722FF0446002C01D02046DCE701AF5B
:107EF00000E0002710A803793A46017A304672DF85
:107F0000D2E702460A70FF200002104000124870BB
:107F100002207047FFFF000030B50346481CC00434
:107F2000040C10468507AD0F002D01D1012500E09E
:107F30000025002D01D1072030BD7A4802601019BC
:107F4000794D28600020794D2870794D2870794846
:107F50000380794801800020EEE7F7B584B00C4635
:107F60007448008884426BDC744D0020039000F05C
:107F7000A4F802900298012814D003A82EDF074627
:107F8000022F01D172B60CE000BF0197019F002FB4
:107F900006D000BF6AA259210198FEF7ADF900BFD3
:107FA00000BF00BF6148007800F0B1F8604909786F
:107FB000884206D05D480578007800F0A8F85B4953
:107FC00008700298012814D062B66846007B2FDF43
:107FD0000746022F0CD000BF0197019F002F06D04B
:107FE00000BF57A261210198FEF786F900BF00BFCC
:107FF00000BF5248854221D0E9004A4A06981268DB
:1080000050500498002811D0002C0FDD49490988F0
:108010006943454A126888182246049901F03AFCDF
:10802000E800404909684018848005E00020E90024
:108030003C4A126889188880002600E0042600E087
:108040000926304607B0F0BDF8B505460E4617467E
:1080500005200090354800783549097888421BD0C2
:1080600033480478007800F052F8314908703148FC
:10807000008860432C49096840182860E0002949BD
:108080000968401880883080E0002649096808584F
:1080900038600020009000BF0098F8BD0EB504E0E5
:1080A00068468188009A029890476A4601A902A80A
:1080B000FFF7CAFF0028F3D00EBD10B52D48406869
:1080C000C105C90D002920D00A46103A50B2002837
:1080D0000DDA284B1C330407240F083CA408A40025
:1080E0001B598407E40EE3401B069B0F0BE0224B59
:1080F000032424021B198408A4001B598407E40EDE
:10810000E3401B069B0FD8B210BD0420FCE70146DC
:1081100009480088814201DA481C00E00020C0B212
:10812000704700002020002024200020292000206B
:10813000282000202A2000202C200020FFFF000003
:108140002E2E5C2E2E5C2E2E5C2E2E5C2E2E5C5344
:108150006F757263655C6170705F636F6D6D6F6E7C
:108160005C6170705F7363686564756C65722E63C3
:108170000000000000ED00E000E100E010B5002884
:1081800019DAFB4A03071B0F083B9B089B00D258D8
:108190008307DC0EFF23A3409A438B071B0E840743
:1081A000E40EA3401A43F24B0407240F083CA40832
:1081B000A4001A5118E0EF4A03231B02D2188308C7
:1081C0009B00D2588307DC0EFF23A3409A438B0702
:1081D0001B0E8407E40EA3401A43E64B032424023B
:1081E0001B198408A4001A5110BD10B50446E248BA
:1081F000846003211120FFF7C1FF10BD10B50120DD
:108200000004DE494860DD4940394860112000F033
:10821000F5FC112000F0E4FC0120D94908602F2072
:10822000FDF7A0FF0120D749087010BD10B511203F
:1082300001218140CF4A8032116000BF012000043B
:10824000CE498860CD49403988600120CC494860DA
:108250002F20FDF787FF0120C94988600020CA4907
:1082600008602F20FDF77EFF0020C649087010BD72
:10827000F0B5024624205043C44B1B68C118C448C3
:108280000068401C002802D1C148026059E0C04883
:108290004B68006824246043BC4C24680019406883
:1082A000834217D8BA48006824235843B74B1B6849
:1082B000C01840684B68C31AB5480068242460435E
:1082C000B24C246800194360B14800680862B048A5
:1082D000026036E04B68AE4D2C6828680DE024251E
:1082E0004543AA4E3668AD196D685B1B04462425CC
:1082F0004543A64E3668AD19286A451C002D07D0A7
:1083000024254543A14E3668AD196D689D42E6D3DC
:10831000451C002D0CD0242545439C4E3668AD19D4
:108320006D68EE1A24254543984F3F68ED196E603D
:108330004B60086224256543944E3668AD192A6265
:1083400000BFF0BDF8B50646914805682C4609E027
:10835000B44200D109E02546242060438B490968D6
:108360004018046A601C0028F2D100BF601C00287D
:1083700000D1F8BDA54210D18548006824214843AA
:10838000824909684018006A814908600846006807
:10839000401C002801D1FFF749FF242060437B499E
:1083A00009684018476824206043784909684018E4
:1083B000016A24206843754A1268801801622420EB
:1083C0006843724909684018046A601C00280CD090
:1083D000242060436D49096840184068C119242071
:1083E00060436A4A12688018416000BFC1E710B557
:1083F000112000F0FCFB10BD10B5142000F0F7FBBD
:1084000010BD70B5044663480068002813D0614A67
:10841000E169A06912689047054600BF2E46002E0C
:1084200007D000BF5CA2FF2164313046FDF764FF36
:1084300000BF00BF02E0A169E069884770BDF8B5E0
:1084400053480068401C00283AD0002700F008FC80
:1084500004464D480168204600F005FC06464C489D
:10846000056811E024206843484909684418606899
:10847000B04200D90BE06068361A6068C719256AF7
:108480002046FFF7BEFF00BF681C0028EAD100BFEE
:108490004D4800784D490978884209D14B48007809
:1084A000401CC0B249490870022801D10020087060
:1084B00046480078800046490F50FFF79DFF00BFF7
:1084C000F8BD014640480078404A127890421DD0DD
:1084D0003D480078401C3C4A107010460078022845
:1084E00001D100201070384800788000384A1058B8
:1084F0000860254A086812688018234A10601046F0
:1085000000680002000A1060012070470020086027
:1085100000BFFAE7FEB51E48006801902D480078BC
:10852000009076E00098C0002B490968441825782F
:108530006BE01820684361680F18681CC5B2A0780A
:10854000A84200D100253878022802D0032859D14A
:1085500044E02421786848430C4909684618307D76
:10856000002804D07868FFF7EDFE002030754AE05F
:108570001CED00E000E100E0001501404013014067
:10858000001001405820002044200020342000200A
:1085900040200020542000202E2E5C2E2E5C2E2EFB
:1085A0005C2E2E5C2E2E5C536F757263655C617061
:1085B000705F636F6D6D6F6E5C6170705F74696D1D
:1085C00065722E6300000000502000205120002022
:1085D00048200020382000203C2000200CE0F849F2
:1085E000096824225143F74A12688818002101754E
:1085F000F34A016A116000BFF1480068401C00287E
:10860000EDD100E000BF00BF00BF6078A84290D16C
:1086100000BF0098411EC9B20091002882D1E848ED
:1086200001680198814201D00120FEBD0020FCE7D5
:10863000F0B50346002426E0E14E366824277E4349
:10864000E04F3F68F01946689E4203D94668F61A23
:1086500046601DE046689B1B46683419002646604C
:108660000675D74E3568D64F066A3E600669002EFD
:1086700008D00E193602360A86600669C66016688A
:108680000662156000BFCE480068401C0028D3D1A8
:1086900000BFF0BDFEB50746C94800680290CA4851
:1086A000007801906BE00198C000C849096845183E
:1086B0005DE0781C002807D03E4624207043C14965
:1086C00009684418276A23E02978182359436A68FF
:1086D00050182978491C29702978AA78914201D12B
:1086E00000212970466824217143B64A12688C180B
:1086F0000178012902D1217D002900D037E081686D
:10870000A160C168E160016921614169E16100BF67
:10871000AF49A0680968401A0002000AAD498842C2
:1087200008D2AB49A068096800F09DFAE1684018DA
:10873000606011E0A648A168006800F094FA00901B
:10874000E1680098814204D9E1680098081A6060E5
:1087500001E00020606000BF0020A060E060012018
:108760002075801E20623046FFF782FD00BF781C16
:1087700000289ED12878697888429AD100BF019854
:10878000411EC9B2019100288DD18D48016802981F
:10879000814201D00120FEBD0020FCE7FEB58848E3
:1087A0000068401C002834D08548006824214843D4
:1087B000844909684018456800F052FA01908448DD
:1087C00004682146019800F04EFAC61C82480078E1
:1087D000002801D1FFF712FDAE4201D2284600E089
:1087E000304604192402240A20467C49086000BF50
:1087F00000F036FA00900199009800F034FAC71C96
:108800002046019900F02FFA874201D9FFF7EFFDCA
:1088100001E0FFF70BFDFEBDFEB50020C043019057
:108820006B480468664807686846FFF74AFE0546D5
:10883000FFF770FE0646002D05D001AA21460098DC
:10884000FFF7F6FE01260198FFF724FF002800D06D
:108850000126002E02D03846FFF7A0FFFEBD417072
:10886000704770B502460B465078411C907888429C
:1088700000D100211078884201D1002070BD19601C
:1088800050781826704355682C182046F6E7FFB537
:1088900081B005460E461746E9004C4A1268881812
:1088A0006946FFF7DEFF0446002C02D1042005B024
:1088B000F0BD01202070666000F0D2F9A060E76092
:1088C000049820610A986061E900404A126888189B
:1088D0000099FFF7C4FFFFF78FFD0020E7E7F8B529
:1088E00004460E46E100394A126888186946FFF7C7
:1088F000B8FF0546002D01D10420F8BD02202870E4
:108900006E60E100314A126888180099FFF7A7FFEE
:10891000FFF772FD0020F0E738B50446E1002B4A6E
:10892000126888186946FFF79CFF0546002D01D1A3
:10893000042038BD03202870001F6860E100234A2E
:10894000126888180099FFF78AFFFFF755FD00208D
:10895000EFE710B50020224908600021204841605F
:108960008160C16000201E49403908604860FFF7FF
:1089700066FD10BD10B5FFF74FFF10BDFFB581B00C
:108980000E4617461C4620468107890F002901D153
:10899000012100E00021002902D1072005B0F0BD2F
:1089A000002C01D10720F9E7FFF740FC0D490A9898
:1089B00008600D48067003480460002523E00000AD
:1089C0004020002034200020382000203C200020BF
:1089D00044200020FFFF7F00582000204015014068
:1089E000401101405420002030200020002124208C
:1089F00068439F4A12681154242068439C4A1268B5
:108A0000801801756D1CB542F0DB242070430419F9
:108A100003209849087098480460183400250CE039
:108A2000E900954A1268881800210170417087702A
:108A30004460182179430C196D1C032DF0DB0020D4
:108A4000C0438E49086000208D4908708D49087028
:108A5000142000F0D3F803211420FFF78FFB14201B
:108A600000F0BEF80198FFF7C0FB00F0F9F8864966
:108A70000860002092E770B503460C467C48006809
:108A8000002801D1082070BD002A01D10720FAE793
:108A9000002B01D10720F6E700211CE024204843E9
:108AA000734D2D68285C002814D1012524204843EB
:108AB0006F4E36683554242048436D4D2D6840195B
:108AC0004470242048436A4D2D6840198261196022
:108AD0000020D8E7491C6D4800788142DEDB042085
:108AE000D1E710B500F092F8012802D0032804D194
:108AF00001E0002403E0012401E0022400BF00BFE4
:108B0000204610BDFEB504460D461646584800687E
:108B1000002801D10820FEBD5C480078844201D2C3
:108B2000052D01D20720F6E724206043504909684B
:108B3000085C012801D00820EDE7242060434C495F
:108B4000096840184078012801D1284600E000203B
:108B50000746FFF7C6FF3B462A462146009601908E
:108B6000FFF795FED7E770B5044641480068002836
:108B700001D1082070BD45480078844201D3072008
:108B8000F8E7242060433A490968085C012801D0CD
:108B90000820EFE7FFF7A5FF05462146FFF79FFEF8
:108BA000E8E710B532480068002801D1082010BD60
:108BB000FFF797FF0446FFF7AFFEF8E710B504464E
:108BC00000F04EF82060002010BD70B505460E463E
:108BD00014463146284600F046F82060002070BD5B
:108BE000C206D20E01219140294A11607047C20687
:108BF000D20E01219140274A11607047C206D20E61
:108C000001219140234A80321160704710B52248FB
:108C10004068C105C90D002920D00A46103A50B25B
:108C200000280DDA1C4B1C330407240F083CA40851
:108C3000A4001B598407E40EE3401B069B0F0BE0C6
:108C4000134B032424021B198408A4001B59840716
:108C5000E40EE3401B069B0FD8B210BD0420FCE7D6
:108C60000E48406870470246501A0002000A7047DA
:108C700034200020382000203C200020402000200C
:108C800050200020512000204420002030200020CF
:108C900000E100E000E200E000ED00E0001501402E
:108CA00001464888B74A1288904206DB4888B54A90
:108CB0005288904201DC012070470020FCE738B563
:108CC0000546B1480088B14988423BD0B048007899
:108CD000401CAF490870AF48007B097888420FDB21
:108CE000A849A948008875DF0446002C07D0A94888
:108CF0008069002803D0A74881692046884721E081
:108D00000020A3490870A348007C00280FD03B2115
:108D10009D48008876DF0446002C07D09D48806976
:108D2000002803D09B4881692046884700BF9948A6
:108D30004069002806D000200090964841696846A6
:108D4000884700BF38BD70B505461C2229469148AA
:108D5000FDF718FA002090490870286800280BD009
:108D600008228848296800F095FD86487ADF044685
:108D7000002C08D0204670BD82487BDF0446002CC2
:108D800001D02046F7E70020C0437F49088000203B
:108D90007F490870814A00218148FFF76CFEEAE7AD
:108DA00010B57F480068FFF7DEFE10BD38B57D487E
:108DB000FFF776FF002829D17748007800280AD0ED
:108DC00074484069002820D0002000907148416913
:108DD0006846884719E06E480078002802D16D483F
:108DE000456801E06B488568002229466C480068A8
:108DF000FFF788FE0446002C07D0664880690028EB
:108E000003D064488169204688470AE06148406988
:108E1000002806D0012000905E48416968468847D6
:108E200000BF00205C49087038BD10B50446A0881A
:108E300055490880082221460E315A4800F02AFD83
:108E40000020534908705348C089002801D1FFF71A
:108E5000ADFF10BD70B505460020C0434A490880EB
:108E600000204B4908704E480068FFF77CFE04461E
:108E7000002C07D047488069002803D04548816905
:108E80002046884770BD70B50546AC1D2088414915
:108E9000C989884220D1208B02281DD100BF00BF84
:108EA000A17EE27E120211430846C107C90F0029C4
:108EB00002D0FFF77BFF0FE039480068FFF753FE51
:108EC0000646002E07D033488069002803D0314879
:108ED00081693046884700BF70BD10B5044608223E
:108EE000A11D304800F0D6FCFFF760FF10BD10B5A3
:108EF00004462088102806D0112808D012280ED049
:108F0000502810D107E02046FFF78FFF0CE02046E5
:108F1000FFF7A0FF08E02046FFF7B5FF04E020467A
:108F2000FFF7DBFF00E000BF00BF10BD38B504460F
:108F300008222146134800F0ADFC12487ADF0546AE
:108F4000002D1CD11748FFF7ABFE00280BD10120E4
:108F5000114908700B490C48008875DF054601204F
:108F60000B4908700BE00B484069002806D001202F
:108F70000090084841696846884700BF0025284698
:108F800038BD00005C20002066200020FFFF0000AC
:108F900064200020B026002074200020BF8C010037
:108FA000702000206820002070B506460C4615464B
:108FB00029462046FDF7AEF970BDF8B55A4800784D
:108FC000002800D1F8BD59480068002801D10120CF
:108FD00000E00020054656480068002801D1012025
:108FE00000E00020064600BF002D14D1684651DF86
:108FF0000446052C01D101250CE0002C06D000BF51
:109000004CA269212046FDF777F903E04749009813
:109010000968884700BF002E1AD154480088009084
:1090200069465348006861DF0446052C01D10126DA
:109030000DE0002C06D000BF3EA280212046FDF7A7
:109040005BF904E04A48006839490968884700BF6D
:10905000002D02D0002E00D000E0C5E700BF00BF09
:10906000B0E7FFB581B00C4616461F46002C02D172
:10907000072005B0F0BD20468107890F002901D1E6
:10908000012100E00021002901D10720F1E7384843
:10909000046036480680374807603749019810DF7A
:1090A0000546002D01D02846E3E701201E4908703F
:1090B000162026DFDDE710B511DF0446002C01D0B5
:1090C000012000E0002018490870204610BD01462C
:1090D000002901D10E207047154801600020FAE7F1
:1090E0000146002901D10E20704710480160002080
:1090F000FAE770B51F480068002811D01D480068C5
:109100008047044600BF2546002D07D000BF09A2B6
:10911000FF2133312846FDF7EFF800BF00BF01E023
:10912000FFF74BFF70BD0000822000208820002048
:10913000842000202E2E5C2E2E5C2E2E5C2E2E5C8B
:109140002E2E5C536F757263655C73645F636F6D25
:109150006D6F6E5C736F66746465766963655F6876
:10916000616E646C65722E63000000008020002038
:109170007C20002078200020A98F0100F8B504464B
:109180000D4694480068002813D0EAB22178914B2C
:1091900060681B689847064600BF3746002F06D018
:1091A00000BF8DA228213846FDF7A6F800BF00BFFA
:1091B0000CE0012D04D1207801216268904705E080
:1091C000002D03D12078002162689047F8BDF8B5E2
:1091D000074669468C48007800F0F7FA0646002EEC
:1091E00000D0F8BD002534E0E8008849096844183B
:1091F00087480068227801219140084000280FD05C
:10920000606800280CD06078012804D10021204635
:10921000FFF7B4FF1BE001212046FFF7AFFF16E088
:109220007B484068227801219140084000280ED0F8
:10923000606800280BD06078012804D10121204605
:10924000FFF79CFF03E000212046FFF797FF681C13
:10925000C5B2704800788542C6DB00BFC1E770B573
:1092600004460D466C480068FFF77DFC0646002E5C
:1092700000D070BD66484460056020462843024621
:109280006648016864480068FFF73CFC064600BF7A
:10929000EFE7FFB583B006460C461746052F02D20E
:1092A000072007B0F0BD594806605A4804705B4873
:1092B0000760484906980860002515E0E100881914
:1092C00002780092817801910199890005221207A4
:1092D00007231B02D318009A9200995000BF02780E
:1092E000012191400D4300BF2046611ECCB20028F1
:1092F000E4D14B4B2A462946434800F08FF90290AF
:109300000298002801D00298CBE7464A0021424843
:10931000FFF7B1FBC5E710B53C480068002801D154
:10932000082010BD3848007800F0BDF9F9E710B505
:1093300036480068002801D1082010BD3248007866
:1093400000F022FA0446002C01D02046F5E732480E
:109350000068FFF708FCF0E7F8B506460C462D4814
:109360000078864201DD0720F8BDF0002749096832
:10937000451826480068002801D10820F4E769460E
:109380002148007800F021FA0746002F01D0384626
:10939000EAE7687800280CD129780098C840C0070F
:1093A000C00F002802D00020207011E001202070A2
:1093B0000EE0687801280BD129780098C840C007D2
:1093C000C00F002802D00120207001E00020207092
:1093D0000020C9E7982000202E2E5C2E2E5C2E2E19
:1093E0005C2E2E5C2E2E5C536F757263655C617013
:1093F000705F636F6D6D6F6E5C6170705F627574CE
:10940000746F6E2E630000009C2000208C200020D2
:10941000A420002090200020A020002094200020E4
:109420005F920100CF910100F0B502460C4600208A
:1094300037E001238340194623460B40002B2FD0F1
:10944000D5680D40002D05D101235B04D5680D437F
:10945000D56004E003231B04D5688D43D560052542
:109460002D0707263602AD198600AD5903263604AE
:10947000B5430526360707273F02F6198700F55141
:1094800005252D0707263602AD198600AD591D4367
:109490000526360707273F02F6198700F55100BF5A
:1094A000401C2028C5D3F0BDF0B585B0EF48056954
:1094B0000020EF49C86300263FE014207043ED49C7
:1094C000096844180120B040EB49096808400028A9
:1094D00031D0E068C04368402168084007463946FB
:1094E0002046FFF7A1FFE148006968400390039818
:1094F00000280ED003980543E068C0436840216807
:109500000840009020460099FFF78EFF009807431F
:1095100000BFA068A84338400190606828403840E8
:109520000290019902980843002803D0226901990A
:109530000298904700BF701CC6B2D048007886429F
:10954000BBDB05B0F0BD10B50146002029E01422B8
:109550004A43C84B1B689A58012383401A40002A8B
:109560001ED00522120707231B02D2188300D258EF
:1095700003231B049A4305231B07072424021B19FA
:1095800084001A510522120707231B02D2188300F8
:10959000D25805231B07072424021B1984001A51E3
:1095A000401C2028D3D310BD70B505460C46002CB6
:1095B00001D1072070BD20468107890F002901D104
:1095C000012100E00021002901D10720F2E7A9488C
:1095D0000460AB4805700020A8490870A6490860DF
:1095E000A7480078142250430146A248006800F0C2
:1095F000B0F90020C043A3498860062001218140C2
:10960000A14A116000BF012100F0F9F806200121F4
:1096100081409E4A116000BF0020CBE7F8B50446A8
:109620000D4616461F4693480068002801D10820C1
:10963000F8BD002F01D10720FAE790480078904943
:109640000978884201DB0420F2E7284630438B4941
:10965000097814225143874A12685050874800788D
:1096600014214843834909684018456083480078BD
:10967000142148437F490968401886607F48007874
:10968000142148437B490968401807617B480078EA
:1096900020707A480078401C784908702078FFF7DD
:1096A00052FF0020C4E7F0B5024672480068002867
:1096B00001D10820F0BD71480078824201DB07200B
:1096C000F8E700206A4BD863684804696A48006874
:1096D000002802D158066B4B586001209040664B21
:1096E0001B681843644B1860002314205043614DDD
:1096F0002D684019C360002142E001238B401846C9
:10970000142353435B4D2D68EB580340002B36D098
:1097100025460540002D02D003231B040EE0012343
:109720005B0414255543534E3668AD19ED68054367
:10973000142656434F4F3F68F619F56005252D074F
:1097400007263602AD198E00AD5903263604B543FF
:109750000526360707273F02F6198F00F551052524
:109760002D0707263602AD198E00AD591D4305267B
:10977000360707273F02F6198F00F55100BF491C35
:109780002029BAD3002095E710B50446394800686F
:10979000002801D1082010BD38480078844201DB40
:1097A0000720F8E72046FFF7CEFE0120A04032490F
:1097B00009688143304801600068002803D1012016
:1097C000C007304988600020E5E710B50246294807
:1097D0000068002801D1082010BD28480078824286
:1097E00001DB0720F8E714205043224C24680319BA
:1097F0001E4800691C68204008600020ECE710B596
:10980000002819DA224A03071B0F083B9B089B001C
:10981000D2588307DC0EFF23A3409A438B071B0E0D
:109820008407E40EA3401A43194B0407240F083C95
:10983000A408A4001A5118E0144A03231B02D218EA
:1098400083089B00D2588307DC0EFF23A3409A4372
:109850008B071B0E8407E40EA3401A430B4B032413
:1098600024021B198408A4001A5110BD00050050E1
:1098700040610040B4200020AC200020B120002036
:10988000B02000200063004080E200E000E100E042
:109890001CED00E0F8B5042A2CD3830712D00B7816
:1098A000491C0370401C521E83070BD00B78491CC7
:1098B0000370401C521E830704D00B78491C0370B0
:1098C000401C521E8B079B0F05D0C91ADF002023B6
:1098D000DE1B08C90AE0FCF755FCF8BD1D4608C9A7
:1098E000FD401C46B4402C4310C0121F042AF5D280
:1098F000F308C91A521EF0D40B78491C0370401C9F
:10990000521EEAD40B78491C0370401C012AE4D48F
:1099100009780170F8BD01E004C0091F0429FBD2D9
:109920008B0701D50280801CC90700D002707047E8
:1099300000290BD0C30702D00270401C491E022927
:1099400004D3830702D50280801C891EE3E700222E
:10995000EEE70022DFE7002203098B422CD3030A43
:109960008B4211D300239C464EE003460B433CD46C
:10997000002243088B4231D303098B421CD3030AD4
:109980008B4201D394463FE0C3098B4201D3CB0104
:10999000C01A524183098B4201D38B01C01A524134
:1099A00043098B4201D34B01C01A524103098B4238
:1099B00001D30B01C01A5241C3088B4201D3CB0023
:1099C000C01A524183088B4201D38B00C01A524106
:1099D00043088B4201D34B00C01A5241411A00D2B6
:1099E00001465241104670475DE0CA0F00D049421F
:1099F000031000D34042534000229C4603098B428F
:109A00002DD3030A8B4212D3FC22890112BA030A16
:109A10008B420CD3890192118B4208D38901921198
:109A20008B4204D389013AD0921100E08909C3091D
:109A30008B4201D3CB01C01A524183098B4201D31F
:109A40008B01C01A524143098B4201D34B01C01A0A
:109A5000524103098B4201D30B01C01A5241C30882
:109A60008B4201D3CB00C01A524183088B4201D3F1
:109A70008B00C01A5241D9D243088B4201D34B000C
:109A8000C01A5241411A00D20146634652415B104E
:109A9000104601D34042002B00D54942704763462F
:109AA0005B1000D3404201B50020C046C04602BD55
:109AB000704770477047754600F022F8AE460500C3
:109AC00069465346C008C000854618B020B5FCF76B
:109AD00089FB60BC00274908B6460026C0C5C0C542
:109AE000C0C5C0C5C0C5C0C5C0C5C0C5403D490092
:109AF0008D4670470446C046C0462046FCF72BFB07
:109B000000487047CC26002001491820ABBEFEE774
:109B100026000200704730B47446641E2578641C29
:109B2000AB4204D3635D5B00E31830BC18471D46AD
:109B3000F8E700002315000023D1BCEA5F78231565
:109B4000DEEF121200000000689B010000200020E0
:109B5000B800000004610100209C0100B820002032
:109B600078160000206101000024F40000000000CD
:109B70000000FFFF000000000000000000000000E7
:109B800000000000000000000000000000000000D5
:109B900000000000000000000000000000000000C5
:109BA00000000000000000000000000000000000B5
:109BB00000000000000000000000000000000000A5
:109BC0000000000000000000000000000000000095
:109BD0000000000000000000000000000000000085
:109BE0000000000000000000000000000000000075
:109BF0000000000000000000000000000000000065
:109C00000000000000000000000000000000000054
:109C10000000000000000000000000000000000044
:04000005000160C1D5
:00000001FF
