:020000040001F9
:10500000B02E002099A10100F78201002795010030
:105010000000000000000000000000000000000090
:105020000000000000000000000000007B9501006F
:105030000000000000000000B79D0100EF9D01008E
:1050400037A2010043A20100C1A20100C3A20100D6
:10505000C5A2010000000000C7A20100C9A2010012
:10506000CBA20100CDA20100CFA20100D1A201007C
:10507000D3A20100D5A20100D7A20100D9A201004C
:10508000DBA20100078C0100DDA20100DFA201000C
:10509000418C01006DA10100699D0100E1A20100A8
:1050A000E3A20100E5A201000000000000000000F2
:1050B00000000000000000000000000000000000F0
:1050C00088490968012282409143864A11607047ED
:1050D00084490968C1400800C007C00F704700211B
:1050E000B74A0C234343D1500021B54A0C23434314
:1050F000D2189172704770B503000825280000256A
:105100002C00002C1AD1AF4D0C266643AD19AD7A98
:10511000294211D09BB2AC4DAB4207D0A94D0C2611
:105120006643AD192D899BB2AB4203D114600025B3
:10513000280003E005252800641CE2E770BDF8B5EF
:1051400004000D00A148060000200700072F32D2FE
:10515000BA481C2179434018807EFF2829D128783D
:10516000022815D0B5481C2179434018817EFD20C6
:105170000840B2491C227A4389188876AF481C211E
:105180007943401810302900072200F0A9FE0BE0F7
:10519000AA481C2179434018817EFE200840A74977
:1051A0001C227A4389188876380020700020060077
:1051B00001E07F1CCAE73000F2BDF0B583B0040007
:1051C00006200190002000909C481C216143451856
:1051D0001135009A0199280000F0B0FE1026002534
:1051E00096481C21614347182A003100380000F01E
:1051F000A5FEFF2091491C22624389180874FF20F4
:105200008E491C226243891888766F488B491C227C
:105210006243891808832000FFF752FFF7BDF8B5F5
:1052200005000F0016000520009000200400072C48
:105230001CD2002D07D181481C2161434018008BEE
:10524000B6B286420CD0002D0ED0072229007B4832
:105250001C236343C018103000F09AFE002803D1CD
:105260003C600020009001E0641CE0E70098F2BD83
:10527000F8B505000F0016005148046832003900E7
:105280002800A047F1BDF8B50400012090490C2288
:105290006243891888724C488D490C2262438918F0
:1052A0000881FF208A490C2262438918C8720725A9
:1052B000002687480C216143471832002900380036
:1052C00000F03CFEF1BD10B50400814821680C22BD
:1052D00051434018807A012802D02068FFF7D3FF9D
:1052E00010BD00006426002010B40400002010BC93
:1052F0007047020000207047F1B588B00C00142000
:10530000694608806A4603A92E4863780C256B43DA
:10531000C0180089AADF0190019800284DD1684685
:10532000028803A96B48637818256B43C018001DD9
:1053300000F02EFE002814D1224861780C2251433F
:105340004018807A800738D4182500266148617893
:1053500018225143471832002900380000F0EEFDB2
:105360002BE05C486178182251434058002802D055
:105370005948029001E05948029068460088554912
:10538000627818235A4388506846068803AD51480E
:1053900061781822514347183F1D32002900380018
:1053A00000F09EFD342318224A486178182779437B
:1053B00041180898029FB8470190002009B0F0BD3D
:1053C000B4250020A8250020FFFF00004380000036
:1053D00002000020704770B504000E00310020006C
:1053E000FFF78AFF0500002D04D131002000FFF7F0
:1053F000EFFF0500280070BD020000207047F8B5DF
:1054000005000C00342318222900AC4866781827C0
:105410007E43801901F091FB00280ED1A7496278E4
:1054200018235A4389580022D243914205D10021C2
:10543000A24A637818267343D150F2BD8C23002012
:1054400002000020704770B504000E0031002000FB
:10545000FFF7D5FF0500002D04D131002000FFF734
:10546000EFFF0500280070BD01000020704770B5F7
:1054700003000021002217485D7818267543405923
:10548000002816D012485D780C2675434019807AA2
:1054900060250540402D0CD10E485D7818267543D7
:1054A0004019001D01000B485D78182675434059CE
:1054B000020092B2064E5D780C20454370190089B7
:1054C000A9DF0400002C01D0B7480400200070BD03
:1054D000A825002024250020516A01005D690100F3
:1054E00001000020704738B504002000FFF7BFFF1F
:1054F0000500002D03D12000FFF7F2FF0500280072
:1055000032BDF7B58CB01D00149FA8480068002874
:1055100000D1D1E0512F00D3CEE00126684600F043
:1055200095F9059005980400002C04D0A04AA149E3
:10553000200001F059FC00206946087000206946EF
:105540000872079506970024072C15D20AAA210095
:1055500089B2B14801F0ACF905900598002809D14D
:1055600008220AA90C9800F013FD002802D1684611
:10557000847001E0641CE7E768468078FF2800D16A
:105580009AE00DA80078042809D1502F03D12020DB
:10559000694608726AE040206946087266E09F48E2
:1055A000281A1C2102F0AFF901900198072815D2A2
:1055B00006A803900E98002808D168468078FFF767
:1055C00087FD002802D1002006004FE06846807861
:1055D000FFF776FD20206946087247E09048281AB8
:1055E000182102F090F90190019800280FD106A827
:1055F00003902020694608720198694648708748E0
:10560000694689781C225143401807902EE02B48A8
:10561000281A182102F077F901900198002820D16A
:105620003020694608720198694648700120694631
:10563000C8707C4801990C2251434018807A800739
:1056400014D418200990002008901C486946497815
:10565000182251434418089A0999200000F06EFC62
:1056600004E000200600402069460872F6B2002ED1
:1056700022D00DA80078042806D16846007A0321BC
:1056800001436846017210E00DA80078032806D196
:105690006846007A012101436846017205E06846C8
:1056A000007A022101436846017206A803900E9A0F
:1056B00002A96846FFF7DCFD0FB0F0BD24250020ED
:1056C000F1B586B00698002801D157486AE000205D
:1056D0000400002C04D12000FFF701FD641CF8E752
:1056E00000200400002C04D12000FFF7CCFD641C36
:1056F000F8E71820029000264C4F3200029938003B
:1057000000F01CFC00200400072C07D22000FFF74B
:1057100054FDFF2046490855641CF5E750206946B2
:10572000888007206946C880424800903A49684608
:1057300001F006F80500002D33D101203E49087024
:1057400006980078002822D100200400072C28D2D7
:1057500003AA210089B2304801F0AAF80500002D03
:1057600011D100231C2203A92C481C266643801952
:1057700001F0E3F90500002D03D000202E49087048
:105780000FE0641CE2E700202B49087009E068463E
:1057900081886846C088414389B21F4801F056FAA3
:1057A0000500280007B0F0BD41800000B4250020AE
:1057B000E09E0100C304000070B504000D001E4807
:1057C0000078002801D11D4824E0002C01D11648A2
:1057D00020E0002D01D114481CE02868002801D1E8
:1057E000114817E016480068002810D128681449AD
:1057F000086014482900891D062200F071FB2879F1
:105800000F498872002020700020060001E00E4839
:105810000600300070BD0000202600208C230020F0
:105820000C250020A82500200E8000002425002043
:105830002826002003550100A22600200880000031
:10584000B4250020B82500200480000000B5010028
:10585000002901D1574808E0FF200870FF20487058
:10586000FF208870FF20C870002000BD0000FEB53A
:1058700004000D0001AAA17889B24F4801F018F880
:105880000700002F55D14D4861780C225143401834
:10589000807A800602D4EDB2022D02D1484806007B
:1058A00007E0EDB2012D02D14648060001E046486E
:1058B000060000231C2221488446A1781C20414375
:1058C0006046411801A8B0470700002F1CD1EDB277
:1058D000022D19D0394861780C22514340183749BC
:1058E00062780C235A438918897ADF220A4082722F
:1058F0001C231822354884466178182041436046AD
:10590000411801A8B0470700EDB2022D11D02100C7
:1059100001A80090084B2E48844622780C20424370
:1059200060468018827A042042439A580098904733
:105930000700F7BD000000006CA201008C230020CE
:1059400038B505002A000121C748FFF7D4FB040041
:10595000002C07D1022019492A680C235A438918C0
:10596000887201E004200400200032BDF0B583B04D
:1059700005006A46A97889B20F4800F099FF040033
:10598000002C14D11C231822694610486E78182761
:105990007E43801901F0D1F80400290068460D4AC1
:1059A0000B4B9B7A04267343D25890470400F7BDF3
:1059B000000000000E80000020260020A825002006
:1059C000516A01005D690100E95201000C250020C7
:1059D000B42500207CA20100F0B58BB004000026A5
:1059E000FF200290BF480078002800D166E2BE4840
:1059F0000068002800D161E201A8FFF727FF050039
:105A00002F00002F04D0B94AB949380001F0ECF951
:105A10000020049000200390002005002000001DBD
:105A20000690342005A90881FF2001A98870002074
:105A300069460871002000902088102812D06A461C
:105A40000221A088FFF757FB0500002D0AD1A948C5
:105A500000990C2251434018C07A01A9887000981F
:105A600001A948702088102811D0112872D013285D
:105A700000D1EAE0142800D1A7E0172800D13BE1CB
:105A8000182800D1DEE1522800D1FEE107E2684685
:105A9000FFF756FF0500002D5BD101200600112005
:105AA00069460875009801A94870A0889149009A34
:105AB0000C235A438918088102208E49009A0C232E
:105AC0005A43891888728B4800990C225143401818
:105AD0002100891D072200F003FA607B0100C9073D
:105AE000C90F002911D0D648617BC9B24908C9B293
:105AF000405CFF2810D0D248617BC9B24908C9B2C6
:105B0000405C02900020050006E0574A02A92000F0
:105B1000801DFFF784FB0500002D1AD102987549FE
:105B2000009A0C235A438918C872724800990C22B3
:105B300051434018817A082008436E49009A0C238B
:105B40005A4389188872029801A9887001A8FFF742
:105B50000DFFA4E1674800990C2251434018817A57
:105B6000FD2008406349009A0C235A438918887223
:105B7000604800990C2251434018807A00070CD5E8
:105B80005C4800990C2251434018807A40060FD59A
:105B9000002101A8FFF76BFE0AE001A88078FF282A
:105BA00006D001A88078FFF708FBFF2001A98870C4
:105BB00010205049009A0C235A43891888720120FA
:105BC000060012206946087569E14A4800990C22CE
:105BD00051434018C07AFF2822D1E28902A900204F
:105BE000FFF71DFB0500002D1AD102984149009ACC
:105BF0000C235A438918C8723E4800990C2251431D
:105C00004018817A082008433A49009A0C235A43E5
:105C100089188872029801A9887001A8FFF7A6FE6A
:105C2000344800990C2251434018C07AFF2806D00E
:105C3000A3480099182251434018001D04900022E7
:105C40000499A08881DF050029E1132069460875C1
:105C50009C4A0021A0887FDF0500002D06D0039517
:105C6000002006003CE000BFFFFF00002148009933
:105C70000C2251434018817A042008431D49009AA0
:105C80000C235A438918887201200600194800998C
:105C90000C2251434018C07AFF2821D00120060071
:105CA000162069460875142009900020089086483F
:105CB00000991822514347183F1D089A0999380046
:105CC00000F03CF90B4800990C2251434018817AAE
:105CD000202008430749009A0C235A4389188872E8
:105CE000DDE000BFA2260020B4250020E09E0100D8
:105CF00037090000A8250020744800990C22514360
:105D00004018817AFB2008407049009A0C235A43BE
:105D10008918887214206946087501200600A07948
:105D2000002802D0A079039089E0E07A6449009AC3
:105D300018235A4389188870A07A6149009A182359
:105D40005A43891848705E480099182251434018F8
:105D5000001D21000C31142200F0C2F85B480099AC
:105D60000C2251434018807A400668D55748009964
:105D70000C2251434018817A082008435349009A65
:105D80000C235A4389188872504800990C225143B9
:105D90004018C07AFF2840D14C4800990C2251434A
:105DA000411802A8FFF7CBF90500002D33D1029866
:105DB00001A9887002984549009A0C235A43891812
:105DC000C872A0894249029A1C235A438918088341
:105DD000E07A01004907C90F002917D03C48009913
:105DE0001C225143401821002031102200F078F885
:105DF000374800991C2251434018817EFE200840FC
:105E00003349009A1C235A4389188876012101A836
:105E1000FFF72DFD13E0039511E02C4800990C22AB
:105E200051434018817A202008432849009A0C23C6
:105E30005A4389188872002101A8FFF718FD2EE047
:105E400028260020214800990C2251434018817ACD
:105E5000402008431D49009A0C235A438918887230
:105E6000152069460875002003900120060001A84E
:105E70001849194A927A04235A43895888470500D9
:105E8000002D01D01548039009E001A81149124ADC
:105E9000927A04235A43895888470390FFE7F6B261
:105EA000002E0BD0039A05A901A8FFF7E1F9684677
:105EB000007D122802D16846FFF705FA0BB0F0BD4D
:105EC0000C250020B825002024250020A82500202E
:105ED0008C2300208CA20100B4250020418000000A
:105EE000124207D08B0706D00B78491C0370401C68
:105EF000521EF7D87047830706D00B78491C0370F1
:105F0000401C521EF9D1704770B4103A03D378C9BF
:105F1000103A78C0FBD2530701D318C918C001D575
:105F200008C908C0D20704D30B880380891C801CD1
:105F3000002A01D50B78037070BC70471206130A53
:105F40001A43130C1A4300BF094205D0830705D03A
:105F50000270401C491EF9D170470000130030B494
:105F600014001500103902D310393CC0FCD2490787
:105F700000D30CC000D504C0890002D30280801C6D
:105F8000002900D5027030BC704700000022E5E710
:105F900010B402E0401C491C521E002A09D00B78A4
:105FA00004789C42F6D002D20020C04302E00120D7
:105FB00000E0002010BC704700B5800701D101202F
:105FC00000E00020C0B200BD0021BB4A14234343BF
:105FD000D21811710021B84A14234343D218D1803A
:105FE0000121B54A14234343D218D1600021B24A9B
:105FF00014234343D21811610021AF4A14234343B1
:10600000D21851610021AC4A14234343D2181181A4
:10601000704710B50020A94908800020A8490870E1
:106020000020A54908700020A34948700020A2491B
:106030008870002004000A2C04D22000FFF7C4FF5F
:10604000641CF8E710BDFEB50400089D00269A48C0
:1060500040780A2841D098480078974949784018F4
:106060000600F6B20A2E00DB0A3E9348F6B214216F
:1060700071434018047101988F49F6B2142272439B
:1060800089184861009803C88B4AF6B214237343F9
:10609000D2180C3203C2083A684600898649F6B223
:1060A000142272438918C8808348F6B214217143C0
:1060B00040180581002007007F488078002806D11D
:1060C00000F01AFA0700112F01D1002007007A48CA
:1060D0004078401C7849487001E0042007003800EF
:1060E000FEBD10B50020040073484078002808D099
:1060F00000F002FA0400002C03D0112C01D1002082
:106100000400200010BDF8B504006B486A49097806
:1061100014225143401805796A486749664A127843
:1061200014235A438918C968102251434058060065
:10613000614861490978142251434018C088009091
:106140005D485D4909781422514340184369220093
:106150002900C9B258488446574807781420474355
:106160006046C0190C30B047F1BDF1B582B00020D7
:10617000009051488078002800D19CE000204E49D2
:1061800088704F480078082813D10298022803D15C
:1061900000204B49087002E000204B490870FFF7CF
:1061A000A0FF00900098002802D00098FFF7ABFFF6
:1061B00081E00298022802D0032878D07BE03E4894
:1061C0003D490978142251434018001D01903B4875
:1061D0000088401C394908800198007802280AD1BB
:1061E000364800888021C900414301984088814297
:1061F00001DB012700E0002701980078052805D180
:106200002F480078072801D1012400E000240198DC
:106210000078042805D12A480078072801D10125F3
:1062200000E000250198007804280ED1234800885A
:106230008021C900414301984088814205DB204804
:106240000078002801D1012600E000262800204324
:1062500030433843C0B200281FD0002018490870CE
:106260000098FFF750FF14480078FFF7ADFE0020BC
:106270001249088010484078401E0F4948700E4867
:106280000078401C0C4908700B4800780A2804DB91
:10629000094800780A3808490870FFF722FF009083
:1062A0000098002802D00098FFF72DFF03E00D2092
:1062B000FFF729FFFFE7F7BDC02200209626002048
:1062C000A726002098250020A6260020FBB5040064
:1062D000150003268548007800280AD10298284333
:1062E000002803D102208149087002E001207F4983
:1062F00008707E48007801280CD000D2F4E0032812
:106300004ED030D3052800D1B0E07BD3062800D191
:10631000C8E0E9E07648076875480068009075486D
:1063200000680021C943884207D07248006870495C
:10633000096889B201F0E7FA01E0C9480068BFB214
:106340003A0092080199009B9BB25943401E684B4A
:106350001B689BB2584321DF0600002E02D10220A9
:1063600062490870C0E0019820DF0600002E16D1B7
:10637000002D11D1029800280AD12078042803D1D9
:1063800007205A4908700AE005205849087006E0BD
:1063900004205649087002E0032054490870A3E025
:1063A000544800680021C943884207D0514800681A
:1063B0004F49096889B201F0A6FA01E0A8480068CF
:1063C0004B4909682A00401E89B2484301000198E0
:1063D000474B1B689BB2584321DF0600002E10D1AB
:1063E000029800280AD12078042803D106203F49CA
:1063F000087006E005203D49087002E004203B4992
:10640000087071E03B4800680021C943884207D00A
:10641000384800683649096889B201F074FA01E029
:106420008F48006832490968029A401E89B2484381
:106430000421694340186188411801982C4B1B685E
:106440009BB2584304236B43C0186388C01821DFF4
:106450000600002E09D12078042803D10620234904
:10646000087002E00520214908703DE060880200C4
:106470009208216901981E4B1B689BB25843042364
:106480006B43C01821DF0600002E0AD10298284372
:10649000002803D107201549087002E0062013499F
:1064A000087021E0134800680021C943884207D0E2
:1064B000104800680E49096889B201F024FA01E029
:1064C000674800680A490968401E89B2484308497C
:1064D000096889B201F017FA20DF0600002E02D108
:1064E000072002490870FFE73000FEBDA726002004
:1064F0001000001014100010F0B585B00F200090AF
:106500008B488B490978142251434018001D05001F
:10651000E86804002878022804D0042820D0052840
:106520006FD093E02969834800888022D2004243DB
:1065300016006888801B03008919A8888019241810
:106540008020C000834205D21A009208200021DF7B
:10655000009004E080225200200021DF009075E0CE
:106560007548A96810225143401807897248A968E4
:106570001022514340184089694608826E48A96834
:10658000102251434018406803900398A04206D15E
:10659000BFB26846008A78436988884202D0A868FA
:1065A00002280DD120006549096889B201F0ABF9D4
:1065B0006049098840180600300020DF00901FE085
:1065C00020005E49096889B201F09DF906005B4828
:1065D000006880B27043201A800802903000401C8E
:1065E0005649096889B24843001B6988401A8008E7
:1065F0000190019B029A31002800FFF767FE00908E
:1066000024E020004D49096889B201F07CF90600B8
:10661000A88820184949096889B27143401A80083E
:1066200001903000401C4549096889B24843001B6D
:10663000A988401A6988401A0700BF083B00019AE0
:1066400031002800FFF742FE0090FFE70098002885
:1066500002D1012036498870009805B0F0BD0000D5
:106660001400001010B5FFF7D4FC00208E490880FC
:106670008E4800680021C943884207D08B480068D3
:106680002E49096889B201F03EF901E0AF4800687F
:10669000801E2A49096889B24843AD490860002034
:1066A000244908800020002818D10021224A102304
:1066B0004343D1500021204A10234343D218118173
:1066C00000211D4A10234343D218918100211A4A08
:1066D00010234343D2185181401CE4E708209D4910
:1066E0000870724800680021C943884207D06F488B
:1066F00000681249096889B201F005F901E0934880
:1067000000680E490968401E89B248430B49096870
:1067100089B201F0F8F820DF0400002C05D1012037
:106720000349887001208C490870200010BD0000CA
:10673000C02200209626002098250020100000107E
:10674000F0B504000D0084480078002801D108202D
:10675000A9E0002C01D10E20A5E0002D01D10E20D2
:10676000A1E02068002801D10E209CE0B648006816
:10677000A18880B2884202D3A088102801DA0720BD
:1067800091E0E08800282CD0484800680021C943E7
:10679000884207D045480068AB49096889B201F0D2
:1067A000B2F801E069480068401EA749096889B24B
:1067B000484367490968E288A3885A438918884290
:1067C0000FD3A148006880B2E188A2885143884273
:1067D00009DA9D48006880B2A18801F091F800298B
:1067E00001D007205FE0A088042101F08CF8002987
:1067F00001D0072057E02C480088012801D104204F
:1068000051E029480088286051480068686069683C
:106810008E48254A128810235343C01841602068CF
:106820008A49214A128810235343C850A1888748B7
:106830001D4A128810235343C0180181E188834800
:10684000194A128810235343C018418100200600C2
:10685000A088E18848430700761C7B48006880B226
:10686000B84204D27848006880B23F1A01E00020A4
:106870000700374800687449096889B240183449EC
:1068800008607148006880B28742E5D26F480649C7
:10689000098810224A438018868103480088401CDA
:1068A000014908800020F0BD94260020141000103B
:1068B000FCB503000C0028480078002801D108200E
:1068C00043E0002B01D10E203FE0002A01D10E2031
:1068D0003BE01868002806D15C4819681025694318
:1068E0004058002801D107202FE003CB083B6D461C
:1068F00003C5083D0198A4B254491D68102675438C
:1069000049190989614340180190019D4F48009938
:1069100010267143401846684C4800991027794367
:1069200040184789494884460099102041436046F1
:10693000401800894743F019854201D3072004E03D
:10694000684603C803C2083A0020F6BD14000010D0
:106950007C260020A7260020A6260020F8B50400EB
:106960000F0016001D00B8480078002801D108204B
:1069700068E0002F01D10E2064E0002C01D10E2030
:1069800060E02068002806D1304821681022514379
:106990004058002801D1072054E0606800902B483F
:1069A00021681022514340184268284B216810206A
:1069B00041435818438925488446216810204143A3
:1069C0006046401800894343D1180098884201D39B
:1069D000072037E0B6B2002E08D01C4821681022EC
:1069E000514340180089B6B2B04201D2072029E0D5
:1069F000164821681022514340180089B6B2ADB242
:106A00007119884201DA07201CE03800FFF7D4FA38
:106A1000002805D0ADB22800FFF7CEFA002801D13A
:106A200010200FE06068FFF7C7FA002801D110209E
:106A300008E0ADB2009533009BB23A00210002207D
:106A4000FFF701FBF2BD00001000001098250020A8
:106A5000F8B504000F0016001D007B4800780028E0
:106A600001D1082068E0002F01D10E2064E0002C45
:106A700001D10E2060E02068002806D1A9482168D5
:106A8000102251434058002801D1072054E060688B
:106A90000090A44821681022514340184268A14B3D
:106AA000216810204143581843899E488446216834
:106AB000102041436046401800894343D118009894
:106AC000884201D3072037E0B6B2002E08D095489F
:106AD00021681022514340180089B6B2B04201D259
:106AE000072029E08F48216810225143401800896F
:106AF000B6B2ADB27119884201DA07201CE0380045
:106B0000FFF75AFA002805D0ADB22800FFF754FA73
:106B1000002801D110200FE06068FFF74DFA00282F
:106B200001D1102008E0ADB2009533009BB23A00CD
:106B300021000520FFF787FAF2BDFEB506000C0024
:106B4000150041480078002801D108207AE0002C87
:106B500001D10E2076E0002E01D10E2072E02068D7
:106B6000002806D16F482168102251434058002860
:106B700001D1072066E062686A4821681023594302
:106B800040184368674821681027794340184789AF
:106B900064488446216810204143604640180089BB
:106BA0004743D819824201D307204BE0ADB2002DF4
:106BB00008D05C4821681022514340180089ADB2CA
:106BC000A84201D207203DE05648216810225143D7
:106BD00040180089ADB2694609896918884201DA0E
:106BE00007202FE03000FFF7E7F9002805D06846BE
:106BF0000089FFF7E1F9002801D1102022E0606848
:106C0000FFF7DAF9002801D110201BE0ADB260686F
:106C100069460989401801902A0001993000FFF760
:106C20005FF9ADB20095330000220321200004007B
:106C30003C4884462768102047436046C7592000D7
:106C4000B8470020FEBD0000A6260020F8B50400CD
:106C50000D0035480078002801D1082050E0002CB4
:106C600001D10E204CE02068002806D12D48216873
:106C7000102251434058002801D1072040E06268AB
:106C80002848216810235943401843682548216843
:106C900010277943401847892248844621681020EC
:106CA00041436046401800894743D819824201D3C6
:106CB000072025E06068FFF77FF9002801D1102048
:106CC0001EE060681749226810235A4389184968F2
:106CD000401A1449226810235A438918098900F080
:106CE00012FE002901D007200AE0002000902B00AE
:106CF0009BB2002221000420FFF7A5F90600300016
:106D0000F2BD00B5010008480078002801D1082034
:106D100007E0002901D10E2003E004484078086014
:106D2000002000BD98250020A6260020C0220020BB
:106D300000B540B2002812D5874940B20207120FB1
:106D4000083A920804235A4389588007800F082282
:106D50005043C140080080098007800F0FE0AD4913
:106D600040B20200920804235A4389588007800FDA
:106D700008225043C140080080098007800F00BDF1
:106D80000321A54A04234343D150704730B4D2B203
:106D90001304C9B28C001C439F4B042545435C512E
:106DA00030BC704701218140C14A11607047012108
:106DB0008140C04A11607047BF490968C14008005E
:106DC000C007C00F704738B5BC480068C505ED0D59
:106DD000002D07D02C00103C200040B2FFF7A8FF88
:106DE000C0B200E0042032BDF1B584B00F0016003F
:106DF000002069460872FFF7E6FF0500012D10D05C
:106E000002A82EDF00900098022801D172B608E097
:106E100000980400002C04D0A94AA5212000FFF707
:106E2000E3FF0A20FFF7ACFF0A20FFF7BBFF0124B6
:106E3000002CFDD1012D11D062B66846007A2FDFFB
:106E400001900198022809D001980090009800282C
:106E500004D09B4AB1210098FFF7C6FF05B0F0BDF2
:106E600038B504000D002A00A4B22100BF48FFF786
:106E7000BBFF31BD38B59349934800F0A9FD05002B
:106E80002900C9B2914800F073FF0400002C0CD017
:106E9000082C0AD08E48844207D08E48844204D001
:106EA000B34AD8212000FFF79FFF31BD10B5040081
:106EB000FFF7E0FF10BD70B50400AE49AE4800F02A
:106EC00087FD0600AD480068401CAC4908603100F1
:106ED00089B2AB4801F0A3F90500002D0DD0082DB3
:106EE0000BD07B48854208D07A48854205D0744A49
:106EF000FF21891D2800FFF777FFA04800680321C4
:106F000000F001FD002903D001209E49087002E035
:106F100000209C49087070BD38B50400994800787D
:106F2000002809D09849994800F052FD0500290031
:106F300089B2934801F0B0F931BD10B5040094480E
:106F400000780121414092480170914801788C48B5
:106F500001F0CEF910BD00001CED00E080B5082066
:106F6000FFF70EFF0920FFF70BFF0F20FFF708FFC9
:106F700001BD70B582B000200090864B052206212D
:106F8000002001F061FE06003500002D05D0784A92
:106F9000A62149002800FFF727FF7F4A01217F48EB
:106FA00001F0BDFE04002500002D05D0704AA92186
:106FB00049002800FFF718FF794A0121794801F0BC
:106FC000AEFE04002500002D05D0694AFF2158318E
:106FD0002800FFF709FF744A0121744801F09FFE61
:106FE00004002500002D05D0614AAE21490028008B
:106FF000FFF7FAFE6E4A01216E4801F090FE040090
:107000002500002D05D05A4AFF2162312800FFF7E4
:10701000EBFE73BD00E400E000070050FEB5012068
:1070200069460870684600780007000F1021014388
:10703000684601700A22604968467CDF040025002A
:10704000002D05D04A4AFF2176312800FFF7CCFEFB
:10705000DA4878DF04002500002D05D0444ABC2121
:1070600049002800FFF7C0FE0826002701AD3A00BE
:1070700031002800FEF762FFC82040006946888082
:10708000C820800001A94880002001A98880C8206C
:10709000400001A9C88001A87ADF04002500002D66
:1070A00005D0334AC12149002800FFF79DFEF7BDF6
:1070B000080500500C0500501005005004ED00E0DC
:1070C000B89F010068250020302600203C250020C4
:1070D0000430000001340000F0B593B0062069468A
:1070E000087001A8D0491CC91CC00C390C383825BF
:1070F000002404AE220029003000FEF71FFF02200A
:1071000069460874012004A98870012004A98880B8
:1071100068460690032004A9088301A80B9000216B
:1071200004A802F0BAF907003E00002E05D0104A6C
:10713000FF21A4313000FFF757FE14240025DC4E58
:107140002A0021003000FEF7F9FE0020D84908701F
:107150000020D74948600020D54908722820D4492A
:107160000882B420D249488213B0F0BDEFBEADDE34
:10717000B89F0100782500203826002078260020BE
:1071800050240020062000208825002040260020D2
:10719000A526002008200020AD6E010068260020F2
:1071A000B76E01006C260020196F010070260020C8
:1071B0003B6F0100742600209CA20100F0B59BB03B
:1071C00003200AA90870142500246E462200290015
:1071D0003000FEF7B3FE00200090012069460871E0
:1071E0000AA802906846007BF02101400120084374
:1071F000694608736846007B0007000F10210143B1
:10720000684601736846407BF0210140684641733F
:107210006846407B0007000F694648736846807BDC
:10722000F0210140684681736846807B0007000FAB
:10723000694688736846C07BF021014001200843FD
:107240006946C8736846C07B0007000F10210143E0
:107250006846C1736846007CF021014068460174AD
:107260006846007C0007000F694608746946AC4810
:1072700000F09EFF07003E00002E05D0C54AFF210A
:10728000F6313000FFF7B0FD1425002405AE2200D2
:1072900029003000FEF752FE05A8407BF021014096
:1072A0000120084305A9487305A8407B0007000F8B
:1072B0001021014305A8417305A8807BF0210140FE
:1072C0000120084305A9887305A8807B0007000FEB
:1072D0001021014305A8817305A8C07BF02101405E
:1072E00005A8C17305A8C07B0007000F05A9C873D6
:1072F00005A8007CF02101400120084305A908747D
:1073000005A8007C0007000F1021014305A80174A7
:1073100000200590012005A9087100200790642035
:1073200005A9087305A99C4800F0FFFC07003E0072
:10733000002E04D0974A99493000FFF755FD4025AB
:1073400000240BAE220029003000FEF7F7FD94491F
:107350000BA802F009F90BA83C300078F02101409D
:10736000012008430BA93C3108700BA83C30007881
:107370000007000F102101430BA83C3001700BA83F
:107380003D300078F02101400BA83D3001700BA882
:107390003D3000780007000F0BA93D3108700BA8A5
:1073A00002F002FA07003E00002E04D0794AA749F5
:1073B0003000FFF719FD1BB0F0BD000041030000D5
:1073C00080B55120964908606420954948600120A5
:1073D0009349886001209249087391499C4800F0C4
:1073E000E9FA8C209B490860962040009949486042
:1073F0000A20984988600020964908739549964864
:1074000000F0D8FA642095490860FA2040009349BA
:1074100048600120914988600020904908738F4995
:10742000BD4800F0C7FA01BDA8A2010038B500228E
:10743000802149028A48006801F0BCFC0400250054
:10744000002D04D0534A87492800FFF7CDFC0022C5
:10745000802109028448006801F0ACFC040025008A
:10746000002D04D04B4A81492800FFF7BDFC0022C3
:107470007F498048006801F09DFC04002500002D34
:1074800005D0444A942189002800FFF7ADFC002272
:10749000A0218902A148006801F08CFC04002500AD
:1074A000002D04D03B4AAB492800FFF79DFC31BDBD
:1074B0005425002038B56846FFF723FC040025005A
:1074C000002D04D0334AA4492800FFF78DFC009812
:1074D000002803D00120A14908700DE0A04873DF07
:1074E00004002500002D04D02A4A9E492800FFF7F9
:1074F0007BFC0820FFF756FC31BD70B504002078F6
:1075000000280CD13B219848008876DF0600350022
:10751000002D04D01F4AC8492800FFF765FC70BD44
:107520005024002010B50400CD4AA321890020007A
:10753000FFF75AFC10BDF0B587B01C2500246E463D
:10754000220029003000FEF7F9FC00200090A02066
:1075500080020190F0200003029003206946087326
:10756000B64880896946C881002069460874B448D5
:107570000590BC480690684602F05CFA07003E00A1
:10758000002E04D0034AB8493000FFF72DFC07B0A5
:10759000F0BD0000B89F01003C250020070200005C
:1075A00058A2010070B504002088102804D01128CA
:1075B0000CD0192810D020E00920FFF7F3FB082099
:1075C000FFF7F5FBA0886849088016E00920FFF75F
:1075D000EEFBFFF76FFF10E0A07900280CD1082028
:1075E000FFF7E5FB34DF06003500002D04D09C4A90
:1075F0009E492800FFF7F8FBFFE770BD10B50400B7
:107600002000801E012809D854480078002804D0A2
:10761000002052490870FFF74DFFFFE710BD000042
:107620006825002010B504002000FEF7D5F92100E0
:10763000824800F031FC21008D4800F03EFA200025
:1076400002F0CCFA2000FFF7ADFF10BD12020000DF
:1076500030260020782500203826002088250020AC
:10766000682600204A0200006C2600204D0200001F
:10767000662600007026002010B504002000FEF7EA
:1076800074FD2000FFF7BAFF10BDF0B583B00023F2
:1076900050227849082002F02CFB01900198050047
:1076A000002D04D06E4A74492800FFF79DFB012687
:1076B00000276D463A0031002800FEF73FFC68467F
:1076C0000078FE21014068460170684660DF0400D2
:1076D0002500002D04D0624A68492800FFF784FB8A
:1076E000674802F02BFB04002500002D05D05C4A02
:1076F000C82189002800FFF777FB624802F029FBC8
:1077000004002500002D05D0554AC9218900280014
:10771000FFF76AFBF7BD000040260020742600201A
:1077200080B5032200210020FFF730FB0322002157
:107730000120FFF72BFB01BDF8B506000D0014007A
:107740002700002F04D0464A4F493800FFF74CFB72
:107750000020F2BD5302000061020000A4260020B8
:10776000542500206A02000004200020F0B585B0F6
:10777000FEF778FF06003400002C04D0384A434955
:107780002000FFF731FB0120FFF716FB002803D193
:1077900001206946087302E000206946087303A8C7
:1077A000FDF78EFF06003400002C05D02C4AD521B1
:1077B00089002000FFF718FB062500246F46BF1D37
:1077C000220029003800FEF7B9FB1E206946C88058
:1077D0006846007A01210143684601726846007AD2
:1077E000FD210140684601726846007AE3210140AC
:1077F0000C200843694608726846007ADF21014080
:1078000068460172072069464872102069468872EE
:107810001F48009001206946087169461D48FDF720
:10782000CBFF06003700002F04D00D4A1A4938005C
:10783000FFF7DAFA05B0F0BD810200005024002005
:10784000FB74010038B540DF04002500002D05D091
:10785000034ADB2189002800FFF7C6FA31BD00008A
:10786000B89F010025750100A3020000C6020000B8
:107870003C250020A0240020130300001B0300006F
:1078800025760100797601003F0300004E030000D9
:1078900039770100A32600206303000080B5FFF7BD
:1078A0005DFBFFF73DFFFFF764FBFFF7EEFEFFF721
:1078B0005DFFFFF7B3FBFFF70FFCFFF77FFCFFF760
:1078C0007FFDFFF738FEFFF7B1FDFFF7F3FDFFF790
:1078D000B9FFFCE7F446002804D4494200F013F84D
:1078E000404260474042002905D45FD000F00BF8C9
:1078F000404249426047494200F005F8494260472A
:1079000003460B43E6D40022030A8B420BD2030941
:107910008B4219D243088B422ED2411A00D2014623
:10792000524110467047FF2209023FD012068B4297
:1079300005D3121209028B4201D312120902030964
:107940008B4219D300E0090AC3098B4201D3CB0152
:10795000C01A524183098B4201D38B01C01A524194
:1079600043098B4201D34B01C01A524103098B4298
:1079700001D30B01C01A5241C3088B4201D3CB0083
:10798000C01A524183088B4201D38B00C01A524166
:1079900043088B4201D34B00C01A5241884200D3A6
:1079A000401A5241CFD201461046704708B502F046
:1079B00001FA08BD00B50A7B002A04D04A680260BB
:1079C0000022027103E00A6802600122027100BD18
:1079D00010B50279002A0FD08A684B6804681B1B17
:1079E0009A4204D202688B68D218026013E04A6897
:1079F0000260002202710EE08A6803680C681B1B9B
:107A00009A4204D202688B68D21A026003E00A68C4
:107A1000026001220271006810BD30B40121002211
:107A20000368001D002B0BD00468001D0C4202D01F
:107A30004D466D1E64192260241D1B1FF0D0FAE70D
:107A400030BC7047017840780002084380B270472C
:107A500010B504002000FFF7F5FF01000800C00783
:107A6000C00F10BD8A8842827047C04A4282704768
:107A700070B582B004000D00207D00281CD02E00BF
:107A8000B61D30886189884216D1308B022813D107
:107A90002068002810D030001A30FFF7D9FF0028E6
:107AA00003D000206946087002E001206946087092
:107AB000694620002268904773BD38B505000C0068
:107AC0002088102804D0112807D050280AD00EE0B2
:107AD00021002800FFF7C6FF09E021002800FFF77A
:107AE000C4FF04E021002800FFF7C2FFFFE731BD1B
:107AF000F2B594B00400207D002823D00325002691
:107B000001AF320029003800FEF718FA6846007904
:107B1000F021014001200843694608716846007958
:107B20000007000F10210143684601711498407B43
:107B300001A9487001A88078F9210140022008437A
:107B400001A988701C2500260CAF320029003800DE
:107B5000FEF7F4F90CA80078022101430CA801708B
:107B6000207D0CA90978EF220A400001102108406D
:107B700010430CA9087000200D9000200F900020E9
:107B80001090207D002802D001A8119001E0002073
:107B9000119000201290012003A988709648694630
:107BA000888103200590002006906D46069A05996D
:107BB0002800FEF7C3F91498807B69460870149872
:107BC000C07B6946487068468078F92101400220F0
:107BD00008436946887068468078F7210140684606
:107BE000817068468078EF21014068468170684660
:107BF0008078FE210140684681701498007B6946B8
:107C000048721425002607AF320029003800FEF71D
:107C100095F903A8079068460890012007A90881F4
:107C2000002007A94881012007A9888102A8401CDB
:107C30000B9023009B1D07AA0CA9A088A2DF04902B
:107C40000498002801D004986DE0149880680028FA
:107C500066D0012003A9887068486946888103209E
:107C60000690002005906D46059A06992800FEF7BB
:107C700065F91498007C6946087068464078F021E0
:107C8000014068464170684640780007000F694629
:107C9000487068468078F92101400220084369460F
:107CA000887068468078F721014068468170684690
:107CB0008078EF2101406846817068468078FE2117
:107CC0000140684681701498816802A8801C01F008
:107CD0002BFC694608721425002607AF32002900E4
:107CE0003800FEF72BF903A807906846089068460D
:107CF000007A07A90881002007A9488107A8008900
:107D000007A9888102A8801C0B9022000E3207A9C7
:107D1000E088A3DF04900498002803D0049802E0D0
:107D20000020E081002015B0F0BD70B582B00400E5
:107D30000D00286820600D48608228792075FF209A
:107D400020740120694688702D4869460880220009
:107D5000121D69460120A0DF0600002E01D0300070
:107D600003E029002000FFF7C3FE76BDFFFF0000FF
:107D7000F2B586B0040000256846007E217C88426A
:107D800036D00120694608806846007E207406AB24
:107D90006A460021E088A4DF0500002D01D02800FC
:107DA00027E0608A1749884220D0207D00281DD016
:107DB00010200190002602AF320001993800FEF732
:107DC000BDF8012069460880E088694608810120E5
:107DD00002A98870002002A988806846049006A83D
:107DE000059002A9608AA6DF050001E008200500D1
:107DF000280007B0F0BD0000192A00000829000083
:107E00000F180000FFFF00000200100008701000B3
:107E100080B2000A48700220704701784078000262
:107E2000084380B2704710B504002000FFF7F5FF4B
:107E300001000800C007C00F10BD8A880284704787
:107E4000DA4A0284704738B504000D00288B0228F6
:107E500013D12068002810D028001A30FFF7E3FF64
:107E6000002803D000206946087002E0012069461E
:107E70000870694620002268904731BD70B5040043
:107E80000D002E00B61D3088A189884203D1310033
:107E90002000FFF7D8FF70BD38B505000C00208822
:107EA000102804D0112807D050280AD00EE0210055
:107EB0002800FFF7C2FF09E021002800FFF7C0FFFC
:107EC00004E021002800FFF7D9FFFFE731BDF6B538
:107ED00083B00700002601247879002802D0300002
:107EE000042606432220385C002802D030000226F7
:107EF000064368468089FF280CDD300001260643D2
:107F00000498E4B2011968468089FFF77DFF2018C4
:107F1000040005E0684680890499E4B20855641CB1
:107F20004C20385A002802D030001026064300208A
:107F300005004C20385A854226DAE4B22000801C25
:107F4000152814D34C20385A401B02214843029074
:107F50000220684338182430019038002430009003
:107F6000029A0199009801F027FF00980CE004980C
:107F7000E4B20119022068433818808CFFF744FFEF
:107F8000201804006D1CD4E74C20385A2900401AF0
:107F90004C217852049806702000C0B205B0F0BDA4
:107FA000F0B59BB004000D0003200990002008905C
:107FB00001AE089A09993000FDF7C0FF68460079C4
:107FC000F0210140012008436946087168460079A4
:107FD0000007000F1021014368460171287B01A9A9
:107FE000487001A88078F92101400220084301A9C6
:107FF00088701C200790002006900FAE069A079903
:108000003000FDF79BFF0FA80078102101430FA857
:10801000017000201090002012900020139001A801
:10802000149000201590012002A98870AC48694680
:10803000088103200590002004906E46049A05995B
:108040003000FDF77BFF687B69460870A87B6946B6
:10805000487068468078F92101400220084369464B
:10806000887068468078F7210140684681706846CC
:108070008078EF2101406846817068468078012150
:108080000143684681701420039000260AAF320035
:1080900003993800FDF752FF02A80A9068460B903A
:1080A00016AA00212000FFF712FF0AA9088100206C
:1080B0000AA9488114200AA9888116A80E902300D5
:1080C00008330AAA0FA9E088A2DF1BB0F0BDF0B503
:1080D00093B004000D001C200690002005900CAE0B
:1080E000059A06993000FDF729FF0CA800780221B7
:1080F00001430CA8017000200D9000200F9000207B
:1081000010900020119000201290012001A9887089
:1081100074486946888003200490002003906E46CE
:10812000039A04993000FDF709FFE87B694608705F
:10813000287C6946487068468078F9210140022011
:1081400008436946887068468078F7210140684690
:10815000817068468078EF210140684681706846EA
:108160008078FE210140684681701420029000262C
:1081700007AF320002993800FDF7E0FE01A8079032
:1081800068460890012007A90881002007A94881B6
:10819000012007A98881A8680B902300103307AA43
:1081A0000CA9E088A2DF13B0F0BD0000FFFF0000C3
:1081B00070B582B004000E003068206030796071C4
:1081C0004948208400202221605400204C21605224
:1081D0000120694688704548694608802200921D42
:1081E00069460120A0DF0500002D01D0280015E020
:1081F00031002000FFF7D4FE0500002D01D028003B
:108200000CE0B068002808D031002000FFF75FFFC5
:108210000500002D01D0280000E0002076BDF2B559
:108220008CB00400208C3049884230D006AA6846C1
:10823000018E2000FFF74BFE694648806846408863
:10824000694608801025002602AF32002900380058
:10825000FDF774FE208969460881012002A9887013
:10826000002002A988806846049006A8059002A90B
:10827000208CA6DF0190019800280AD1684600886A
:1082800069464988884204D00C20019001E008200A
:10829000019001980DB0F0BDF8B504000D004C2020
:1082A000205A14280FD126262000263000902700BF
:1082B000243732000099380001F07EFD4C20205A0E
:1082C000401E4C2160524C20205A0100491C4C2277
:1082D000A15280B20221414360188584F1BD0000A3
:1082E000372A0000382A0000FFFF00000D180000A8
:1082F000222281547047FEE700B5800701D101209A
:1083000000E00020C0B200BD0121C206D20E9140A3
:10831000B04A116070470121C206D20E9140AE4AA8
:10832000116070470121C206D20E9140AB4A116024
:1083300070470121C206D20E9140A94A11607047D0
:10834000F0B540B2002822D5A64C40B20207120F69
:10835000083A1500AD0804225543A24A40B203076B
:108360001B0F083B9B0804267343D258FF23860744
:10837000B60F08277E43B3409A438B01DBB28607D2
:10838000B60F08277E43B340134363511CE0C24A33
:1083900040B203009B0804246343D258FF238407A0
:1083A000A40F08256C43A3409A438B01DBB28407DA
:1083B000A40F08256C43A3401343B74A40B20400FE
:1083C000A40804256C431351F0BD00B540B2002849
:1083D00012D5844940B20207120F083A92080423CA
:1083E0005A4389588007800F08225043C140080033
:1083F00080098007800F0FE0A74940B20200920871
:1084000004235A4389588007800F08225043C140F3
:10841000080080098007800F00BD000001B4401EE5
:1084200000BF00BF00BF00BF00BF00BF00BF00BF54
:1084300000BF00BF00BF00BFF1D101B0704738B529
:10844000A8480068C505ED0D002D07D02C00103C94
:10845000200040B2FFF7B9FFC0B200E0042032BDF7
:1084600010B50400C548046003211120FFF768FF20
:1084700010BD80B5802040029B49086080204002EA
:108480009A4908601120FFF754FF1120FFF73CFFC5
:108490000120BB4908602F20FFF7C0FF0120B94928
:1084A000087001BD80B51120FFF735FF8020400224
:1084B000B549086080204002B44908600120B449F1
:1084C00008602F20FFF7AAFF0120B24908600020B2
:1084D000B14908602F20FFF7A1FF0020A9490870CB
:1084E00001BDC54800687047401A0002000A704785
:1084F000C24908607047F0B5C14909682422424367
:108500008918C04A12680023DB439A4202D1BD4A4F
:1085100010605EE0BA4A1268BA4B1B6824246343B9
:10852000D21852684B689A4217D3B54A1268B54BB5
:108530001B6824246343D21852684B68D21AB04B8C
:108540001B68B04C246824256C431B195A60AD4A43
:1085500012680A62AB4A10603BE04D682C00A94DDE
:108560002D682A00A74D2D682B000025ED43AB4256
:1085700016D0A34D2D6824265E43AD196D68A54223
:108580000ED29F4D2D6824265E43AD196D68641B85
:108590001A009B4D2D6824267343EB181B6AE4E7F1
:1085A0000025ED43AB420CD0954D2D6824265E434B
:1085B000AD196D682D1B924E366824275F43F6195E
:1085C00075604C600B628E4D2D6824267243AA188C
:1085D0001062F0BD00E100E080E100E000E200E0B8
:1085E00080E200E01CED00E0F8B50400854800687A
:1085F00005002E000020C043864209D0A64207D0C5
:1086000035007F48006824214E438019066AF1E74F
:108610000020C04386423ED0B54211D17848006860
:1086200078490968242251434018006A7549086056
:10863000744800680021C943884201D1FFF732FF26
:108640006F480068242171434018406807006C4857
:108650000068242171434018006A6949096824228E
:108660006A438918086266480068242169434018F3
:10867000006A06000020C04386420CD060480068B3
:108680002421714340184068C0195D4909682422BB
:10869000724389184860F1BD00E400E080B5112004
:1086A000FFF740FE01BD80B51420FFF73BFE01BD82
:1086B00070B504009C48006800280FD0E169A069EB
:1086C000994A1268904705002E00002E05D0974A5F
:1086D000FF2164313000FEF787FB02E0E069A16909
:1086E000884770BD04ED00E04413014004130140CD
:1086F000F8B5444800680021C94388423CD00020B6
:108700000500FFF7EEFE24490968FFF7EDFE0400BF
:108710003C48006807000020C043874212D0384818
:10872000006824217943401806007068844209D308
:108730007068241A70682D18306A07003000FFF73F
:10874000B7FFE8E77A480078C049097888420BD13A
:10875000BE480078401CBD490870BC48007802281B
:1087600002D10020B9490870B948B84909780422F3
:1087700051434550FFF797FFF1BD00000815014038
:10878000001001409E2600204813014008130140BC
:1087900004100140081001405426002000B50100DB
:1087A00063480078A94A1278904220D06048007847
:1087B000401C5F4A10705E480078022802D10020F9
:1087C0005B4A1070A2485A4A127804235A438058D0
:1087D0000860C24800680A688018C04A1060BF4834
:1087E00000680002000ABD4A1060012002E000207B
:1087F0000860002000BD0000041501404015014044
:108800004826002050260020F0B583B0CB480068F1
:108810000190B348007804002000441EC0B2002834
:1088200043D0B0480068E4B20821614347183D785E
:108830007878EDB28542EFD07868EDB218216943BF
:1088400046186D1CB878EDB2854201D100200500B4
:108850003078022802D0032812D025E0354800687D
:10886000716824225143401800900098007D002830
:1088700005D07068FFF7B8FE002000990875D7E7AB
:10888000AE4800680021C94388420CD029480068DE
:10889000AA49096824225143401800210175006A41
:1088A000A6490860ECE7C3E7C2E7A448006801995D
:1088B000884201D0012000E00020C0B2FEBDF0B52A
:1088C00000239E4C24680025ED43AC422BD0194E6A
:1088D0003668B446994E3768242677436646F619BB
:1088E00034006668B04203D26668361A66601AE0E1
:1088F0006668801B66689B190026666000262675E0
:108900008E4E36683500266A8C4F3E602669002EF2
:10891000D7D0CE183602360AA6602669E6601668F9
:1089200026621560CDE7F0BD58260020E0A00100CA
:108930009C26002048260020FEB506007F480068DF
:1089400002906748007807003800471EC0B2002830
:1089500072D064480068FFB20821794344180020AF
:10896000C043864203D1207861788842ECD0002051
:10897000C04386420AD00096AE480068009924227F
:10898000514340180500286A060025E060682178F8
:108990001822514340182178491C21702178A2786F
:1089A000914201D10021217041680091A1490968DB
:1089B000009A24235A4389180D000178012902D115
:1089C000297D002900D0CAE78168A960C168E960F3
:1089D000016929614069E861A86840490968401A4D
:1089E0000002000A9449884208D23C480168A868FD
:1089F000FFF77AFDE9684018686010E0A968374819
:108A00000068FFF771FD01900198E968884204D27F
:108A1000E8680199401A686001E000206860002061
:108A2000A8600020E860012028750020C04328626B
:108A30000098FFF760FD92E740480068029988427D
:108A400001D0012000E00020C0B2FEBD9D26002024
:108A5000C0250020F1B582B0384800680021C94324
:108A6000884237D07348006834490968242251434A
:108A7000401840680090FFF734FD0600174804686E
:108A800021003000FFF730FD0500ED1CBF480078E5
:108A9000002801D1FFF7EDFC0098854201D2009833
:108AA00000E0280024182402240A2000FFF720FDFB
:108AB000FFF717FD019031002000FFF715FD0700BB
:108AC00031000198FFF710FDC01C874204D2FFF768
:108AD000E5FD01E0FFF7E6FCF7BD000054260020AD
:108AE0009B2600204C260020F0B583B00020C04318
:108AF000009052480068050010480068060001A870
:108B0000FFF74CFE0700FFF77FFE0400FFB2002FC7
:108B100006D06A4629000198FFF7D1FE0120040023
:108B20000098FFF709FF002801D001200400E4B2FB
:108B3000002C02D03000FFF78DFFF7BD502600203B
:108B40000A004270704770B502005078401C030064
:108B50009078834201D1002003001078834201D134
:108B6000002007E00B6050685578182675434019BF
:108B70000400200070BDFEB504000F00089E694689
:108B8000B2480068082262438018FFF7DCFF050046
:108B9000002D01D1042015E0012028706F60FFF73F
:108BA000A0FCA8600198E860029828616E610099B5
:108BB000A6480068082262438018FFF7C1FFFFF74C
:108BC00072FD0020FEBD70B582B004000E00694643
:108BD0009F480068082262438018FFF7B4FF050031
:108BE000002D01D104200DE0022028706E60009954
:108BF00097480068082262438018FFF7A1FFFFF73B
:108C000052FD002076BD80B500209249086000200A
:108C1000914908600020914908600020904908604F
:108C200000209049086000208F490860FFF760FD30
:108C300001BD000048260020FFFF7F0054260020D1
:108C400080B5FFF751FF01BDF5B581B00E001C00E6
:108C5000089F2000FFF750FB002801D107205DE0AE
:108C6000002C01D1072059E0FFF71CFC7F4807606A
:108C70007F4806707F48046000200500F6B2B542C8
:108C80000EDA00207B49096824226A4388540020B8
:108C90007849096824226A43891808756D1CEDE734
:108CA000F6B22420704324180320734908706748E3
:108CB0000460183400200500032D13DA63480068AF
:108CC0000821694340180021017000214170694664
:108CD000097A817044606946097A18225143641800
:108CE0006D1CE9E70020C043644908600020644926
:108CF00008700020634908701420FFF71AFB032155
:108D00001420FFF71DFB1420FFF7FEFA0198FFF770
:108D1000A7FBFFF7E6FB5C4908600020FEBD70B5CD
:108D2000030054480068002801D108202DE01000FD
:108D3000002801D1072028E0002B01D1072024E0E2
:108D4000002004004A48007884421DDA494800683F
:108D500024256543405D002814D10120454D2D6830
:108D600024266643A85543480068242565434019D6
:108D700041704048006824256543401982611C60A9
:108D8000002002E0641CDDE7042070BD9E26002068
:108D900010B5FFF754FB012802D0032803D005E0EB
:108DA0000020040004E00120040001E0022004008F
:108DB000200010BDF8B504000E0017002D48006813
:108DC000002801D1082023E029480078844201D2FC
:108DD000052E01D207201BE02648006824216143AC
:108DE000405C012801D0082012E0224800682421BC
:108DF000614340184078012801D1350000E000258A
:108E0000FFF7C6FF00972B0032002100FFF7B3FEEB
:108E1000F2BD10B5040017480068002801D10820F1
:108E200013E013480078844201D307200DE0114875
:108E3000006824216143405C012801D0082004E03F
:108E4000FFF7A6FF2100FFF7BEFE10BD4C26002055
:108E50004C260020401101404411014048110140BE
:108E60004C1101400011014004110140582600201E
:108E70009A260020482600209B260020502600200D
:108E80009C2600209D260020542600200200100071
:108E90000870100080B2000A487002207047F8B5D0
:108EA00003000C0010780700FFB23800801C202857
:108EB00003DA5878801C202801DB0C203FE01D20BD
:108EC000FFB2C01B0600684606806946FFB2E01983
:108ED000801C7DDF0500002D01D028002FE01878D0
:108EE00002280BD168460088B6B2864206D3092014
:108EF0006946887068460088060010E008206946C8
:108F000088705878002807D05878B6B280B2864268
:108F100002D35878060002E0684600880600300058
:108F2000401CFFB2E0557F1C68468078FFB2E055D8
:108F30007F1C10783100891C401810700020F2BD91
:108F400070B582B004000D002878001D202801DBD8
:108F50000C201EE0684679DF0600002E01D03000AC
:108F600017E028780100491C29700321C0B2215460
:108F700028780100491C29701921C0B22154287891
:108F8000211868460088FFF781FF297808182870A3
:108F9000002076BDF2B582B0040015001E006068A6
:108FA000002801D1072027E0307821884018801C54
:108FB000202801DB0C201FE030780100491C3170B3
:108FC0002188491CC0B2295430780100491C3170F5
:108FD0006946097AC0B229542088019060680090DF
:108FE00030782F18019A00993800FCF779FF307813
:108FF0002188401830700020FEBD10B503001078A5
:10900000C01C202801DB0C2014E010780400641C34
:1090100014700224C0B20C5410780400641C147044
:109020000A24C0B20C5410780400641C1470C0B23E
:109030000B54002010BDFFB583B00C9B00251878A1
:1090400069464870002004000398008884424BDA87
:1090500001A8039949680422624389180A8802809A
:109060004A8842800022694601A865DF0600002E7A
:1090700001D0300045E0684600786946097D8842A5
:1090800030D1EDB2002D01D0002700E00227187882
:10909000694609784018FFB2C019202801DB0C206E
:1090A0002FE0EDB2002D0DD11878401C1870187803
:1090B0000100491C19706946097C069AC0B2115416
:1090C00001200500069819784218694601A865DF55
:1090D0000600002E01D0300013E0187869460978A8
:1090E00040181870641CAFE7EDB2002D08D0187856
:1090F00069464978401A401E06996A465278885453
:10910000002007B0F0BDFBB505001700089C0094D7
:10911000029B0222684601792800FFF78CFF0600B7
:10912000002E01D030000DE00094029B1022390087
:10913000C9B22800FFF77FFF0600002E01D03000E3
:1091400000E00020FEBD00B501000888062807DB0E
:109150000888134A904205DB0888124A904201D0E1
:1091600007201BE04888062807DB48880C4A904205
:1091700005DB48880B4A904201D007200EE00888A2
:10918000084A904209D04888064A904205D048884B
:109190000A88904201D2072000E0002000BD0000B4
:1091A000810C0000FFFF0000F8B506000C00150060
:1091B0002878801D202801D30C2026E03000FFF7FE
:1091C000C2FF0700002F01D038001EE02878010000
:1091D000491C29700521C0B2215428780100491C7E
:1091E00029701221C0B22154287821183088FFF745
:1091F0004DFE297808182870287821187088FFF704
:1092000045FE2978081828700020F2BDF2B582B01A
:1092100005001400AE88B61C2078F6B28019801CB8
:10922000202801DB0C2032E020780100491C21704D
:109230003100491C029AC0B2115420780100491C27
:109240002170FF21029AC0B211540298217841186E
:109250002888FFF71BFE217808182070A8880028AE
:1092600014D0A868002801D1072010E0A888019038
:10927000A8680090029821784718019A0099380050
:10928000FCF72EFE2078A988401820700020FEBD33
:10929000F3B583B015000398006B002801D10720B7
:1092A00048E000200600039834300078F6B2864289
:1092B0003FD20398006BF6B20C21714340180400B2
:1092C0006846A188891C017028780100491C297012
:1092D00069460978491C049AC0B2115428780100E3
:1092E000491C29701621049AC0B211540498297897
:1092F00041182088FFF7CAFD297808182870A0882F
:10930000002814D0A068002801D1072012E0A0880E
:109310000290A0680190049829784718029A019950
:109320003800FCF7DDFD2878A18840182870761CED
:10933000B9E7002005B0F0BDF8B505000F00160034
:109340000024002030702878002809D0320039002D
:109350002800FFF7A4FD0400002C01D0200082E0CB
:10936000A878002808D031003800FFF7E9FD040094
:10937000002C01D0200076E0A88800280BD0330014
:109380003A0001212800001DFFF704FE0400002C14
:1093900001D0200067E0E86800280BD032003900D7
:1093A000E8680023C056FFF728FE0400002C01D017
:1093B000200058E0288A00280CD000963B000622A6
:1093C000022128001030FFF79EFE0400002C01D07F
:1093D000200048E0288B00280CD000963B00072294
:1093E000032128001830FFF78EFE0400002C01D066
:1093F000200038E0288C00280CD000963B00152275
:10940000142128002030FFF77EFE0400002C01D03C
:10941000200028E0A86A002809D032003900A86A94
:10942000FFF7C2FE0400002C01D020001BE0E86A18
:10943000002809D032003900E86AFFF7E7FE04008F
:10944000002C01D020000EE03420285C002809D038
:10945000320039002800FFF71BFF0400002C01D068
:10946000200000E02000F2BD00B50100888800283F
:1094700006D08868002803D088680078400701D4A7
:10948000072000E0002000BD00B50100888800280A
:1094900001D0072000E0002000BDF0B593B0060029
:1094A0000D00002069464870002069460870002EB3
:1094B00015D03000FFF7D8FF0400002C01D02000A9
:1094C0002FE000AA521C0AA93000FFF735FF040064
:1094D000002C01D0200024E00AA8019001E0002027
:1094E0000190002D14D02800FFF7CEFF0400002CBF
:1094F00001D0200015E06A4602A92800FFF71CFFF2
:109500000400002C01D020000BE002A8070001E0BD
:1095100000200700684603783A00684641780198C1
:1095200072DF13B0F0BDFEE7F8B507000E000024AF
:109530003078E4B23855641C7078E4B23855641C55
:10954000E4B2022C01D1012500E00025EDB2002D8E
:1095500004D1044A20210020FDF746FC2000C0B2BF
:10956000F2BD0000549F010038B505000C0020003A
:1095700000F035FC28806C6031BDFEE70200100071
:109580000870100080B2000A48700220704770B561
:1095900006000D00002D01D0012400E00024E4B2FB
:1095A000002C04D17F4A33210020FDF71DFC002E42
:1095B00001D0012400E00024E4B2002C04D1794A57
:1095C00034210020FDF710FC03CD083D307003CDA1
:1095D000083D80B2000A707003CD083D000CB070E9
:1095E00003CD083D000EF07003CD083D3171A86831
:1095F0007071A868000AB071A868000CF07170BDA5
:10960000F8B507000E000024002E01D0012500E06F
:109610000025EDB2002D04D1624A4B210020FDF758
:10962000E3FB002F01D0012500E00025EDB2002D65
:1096300004D15C4A4C210020FDF7D6FB3078E4B21F
:109640003855641CE4B239197088FFF797FF201869
:109650000400E4B23919B088FFF790FF2018040025
:10966000E4B23919F088FFF789FF20180400E4B24A
:10967000072C01D1012500E00025EDB2002D04D119
:10968000484A54210020FDF7AFFBF1BDFFB591B072
:109690001298002801D0012400E00024E4B2002C3C
:1096A00004D1404A6D210020FDF79EFB13A80088DD
:1096B000002801D0012400E00024E4B2002C04D1F1
:1096C000384A6E210020FDF78FFB1C2004900020FB
:1096D00003900AAC039A04992000FCF72FFC0AA817
:1096E0000078022101430AA8017000200B9000209D
:1096F0000D9000200E9000200F900020109001206F
:1097000001A9887011A8008869468880032002900A
:1097100000246D46220002992800FCF70FFC1498E3
:109720000078694608701498407869464870684621
:109730008078F92101400220084369468870684614
:109740008078F72101406846817068468078EF2173
:1097500001406846817068468078FE210140684675
:1097600081701425002605AF320029003800FCF76F
:10977000E5FB01A805906846069013A8008805A996
:109780000881002005A9488113A8008805A98881BF
:10979000129809901A9B05AA0AA960480088A2DFBE
:1097A00015B0F0BD80A0010030B587B004000120E5
:1097B00001A988705A4869468880584A01A9012041
:1097C000A0DF0500002D01D02800A4E0208800289B
:1097D0000DD05448009023003C33228861685248E1
:1097E000FFF754FF0500002D01D0280093E02089E9
:1097F00000280DD04D48009023003C332289E168B9
:109800004B48FFF743FF0500002D01D0280082E000
:10981000208A00280DD04748009023003C33228A3C
:1098200061694548FFF732FF0500002D01D028008F
:1098300071E0208B00280DD04048009023003C337D
:10984000228BE1693E48FFF721FF0500002D01D082
:10985000280060E0208C00280DD03A4800902300BA
:109860003C33228C616A3848FFF710FF0500002D59
:1098700001D028004FE0208D00280DD03348009003
:1098800023003C33228DE16A3148FFF7FFFE0500DB
:10989000002D01D028003EE0206B002811D0216B64
:1098A00004A8FFF774FE2B48009023003C330822E5
:1098B00004A92948FFF7EAFE0500002D01D0280081
:1098C00029E0606B002810D02448009023003C332E
:1098D000606B027992B2606B01682148FFF7D6FE97
:1098E0000500002D01D0280015E0A06B002811D044
:1098F000A16B02A8FFF784FE1A48009023003C33B6
:10990000072202A91848FFF7C1FE0500002D01D06B
:10991000280000E0002007B030BD000092260020A3
:109920000A180000D8250020292A0000E025002080
:10993000242A0000E8250020252A0000F025002028
:10994000272A0000F8250020262A000000260020F3
:10995000282A000008260020232A000010260020C4
:109960002A2A000018260020502A0000017840789A
:109970000002084380B2704710B504002000FFF7D2
:10998000F5FF01000800C007C00F10BD00B50100C1
:109990004888A14A1288904206D39F4840884A8846
:1099A000904201D3012000E0002000BD38B5040042
:1099B00086480088864988423BD086480078401C0B
:1099C000844908709548007B8249097888420FD302
:1099D00081497E48008875DF0500002D29D08F4819
:1099E0008069002825D028008C498969884720E0B3
:1099F0000020784908708948007C00280ED03B215F
:109A00007248008876DF0500002D07D08348806902
:109A1000002803D028008149896988477F48406928
:109A2000002806D000206946087068467B494969CD
:109A3000884731BD38B50400784821001C22FCF766
:109A400063FA002076490870206800280BD062482D
:109A500021680822FCF744FA5F487ADF0500002DF0
:109A600008D0280011E05C487BDF0500002D01D004
:109A700028000AE0564855490880002055490870DA
:109A8000684A00216848FFF74AF932BD30B583B013
:109A90006648FFF77BFF00282CD16148007800283A
:109AA0000BD05E48406900282FD00020694608711D
:109AB00001A85A494969884727E0464800780028A4
:109AC00003D156484068050002E05448806805000C
:109AD0000022290054480068FFF76CF90400002CAC
:109AE00013D04E48806900280FD020004B49896967
:109AF00088470AE049484069002806D001206946A5
:109B000008706846454949698847002044490870FB
:109B100037BD10B50400A0882C49088043482100B7
:109B20000E310822FCF7DCF900202A4908703B4876
:109B3000C089002801D1FFF7A9FF10BD38B5040086
:109B400023482249088000202249087036480068CE
:109B5000FFF75FF90500002D07D030488069002825
:109B600003D028002D498969884731BD70B50500AB
:109B70002C00A41D20882949C98988421AD1208B2C
:109B8000022817D120001A30FFF7F6FE002802D075
:109B9000FFF77CFF0EE024480068FFF73AF9060063
:109BA000002E07D01D488069002803D030001B49D3
:109BB0008969884770BD10B504001C482100891DC3
:109BC0000822FCF78DF9FFF761FF10BD90260020F9
:109BD000FFFF00009F260020C825002010B50400CC
:109BE0002088102806D0112808D012280ED050281E
:109BF00008D00FE02000FFF78CFF0BE02000FFF7FC
:109C00009DFF07E02000FFF7B1FF03E02000FFF712
:109C1000D2FFFFE710BD0000C8250020F02400207F
:109C2000A0260020AD9901005C260020D025002050
:109C300000B5800701D1012000E00020C0B200BDC6
:109C400070B505000C0016003100200080B2FDF751
:109C500007F970BD7CB54F480078002848D04E48C1
:109C60000068002801D1012500E000254B4800686C
:109C7000002801D1012400E00024EDB2002D13D111
:109C800001A851DF0600052E02D1012005000BE0DE
:109C9000002E05D0424A69213000FDF7A5F803E007
:109CA00001983D4909688847E4B2002C1AD13D4823
:109CB00000886946088069463B48006861DF060005
:109CC000052E02D1012004000CE0002E05D0344AFC
:109CD00080213000FDF788F804E0334800682F4900
:109CE00009688847EDB2002DC7D0E4B2002CC4D07B
:109CF00073BDF4B505000C001F00002C01D1072036
:109D00001BE02000FFF794FF002801D1072014E09A
:109D10002548046068460088224908802348076077
:109D20002349280010DF0600002E01D0300004E097
:109D3000012018490870162026DFF2BD00B5010089
:109D40000800002801D10E2002E014480160002024
:109D500000BD00B501000800002801D10E2002E07E
:109D60000D480160002000BD38B51048006800288B
:109D70000DD00E480068804704002500002D05D056
:109D8000074A992149002800FDF72EF801E0FFF766
:109D900061FF31BDA82600208C26002088260020E7
:109DA0001CA0010098260020842600208026002088
:109DB000419C01007047FEE712420FD0814202D25F
:109DC0005318984203D310B5FCF78AF808BD8018E1
:109DD0005B1E1978401E0170521EF9D170470100B8
:109DE00000E0491C0A78002AFBD1081A7047FEE7F8
:109DF00080B500F011F8002806D0314831490860DC
:109E0000802000023049086000F03EF8002802D0AF
:109E100001202E49086001BD00B52D480078C0B270
:109E200001282FD12B4800780007000F002829D1E6
:109E300029480078F0210140002907D127480078FF
:109E4000F0210140002901D101201CE022480078C6
:109E5000F0210140102907D120480078F02101406D
:109E6000002901D101200EE01B480078F0210140BB
:109E7000302907D119480078F0210140002901D18B
:109E8000012000E0002000BD00B511480078C0B2FC
:109E9000012813D10F4800780007000F00280DD1CA
:109EA0000D480078F0210140402907D10B48007887
:109EB000F0210140002901D1012000E0002000BD77
:109EC000DFFF07C004050040186C00400806004092
:109ED000E00F00F0E40F00F0E80F00F0EC0F00F0EE
:109EE000433A5C55736572735C496D72616E5C4494
:109EF0006F776E6C6F6164735C6E726635315F7321
:109F0000646B5F76365F315F305F62326563326506
:109F1000365C6E726635313832325C536F757263FF
:109F2000655C626C655C6465766963655F6D616ED6
:109F3000616765725C6465766963655F6D616E61BA
:109F40006765725F7065726970686572616C2E63B7
:109F500000000000433A5C55736572735C496D7292
:109F6000616E5C446F776E6C6F6164735C6E726679
:109F700035315F73646B5F76365F315F305F6232BD
:109F800065633265365C6E726635313832325C53E9
:109F90006F757263655C626C655C626C655F73654E
:109FA0007276696365735C626C655F7372765F631A
:109FB0006F6D6D6F6E2E6300433A5C5573657273FF
:109FC0005C496D72616E5C446F776E6C6F61647337
:109FD0005C6E726635315F73646B5F76365F315FDE
:109FE000305F623265633265365C6E726635313879
:109FF00032325C426F6172645C6E7266363331304D
:10A000005C733131305C626C655F6170705F687287
:10A01000735C6D61696E2E6300000000433A5C550D
:10A02000736572735C496D72616E5C446F776E6CC0
:10A030006F6164735C6E726635315F73646B5F76FB
:10A04000365F315F305F623265633265365C6E72F7
:10A050006635313832325C536F757263655C736498
:10A060005F636F6D6D6F6E5C736F66746465766948
:10A0700063655F68616E646C65722E63000000004A
:10A08000433A5C55736572735C496D72616E5C44F2
:10A090006F776E6C6F6164735C6E726635315F737F
:10A0A000646B5F76365F315F305F62326563326565
:10A0B000365C6E726635313832325C536F7572635E
:10A0C000655C626C655C626C655F73657276696322
:10A0D00065735C626C655F6469732E6300000000E9
:10A0E000433A5C55736572735C496D72616E5C4492
:10A0F0006F776E6C6F6164735C6E726635315F731F
:10A10000646B5F76365F315F305F62326563326504
:10A11000365C6E726635313832325C536F757263FD
:10A12000655C6170705F636F6D6D6F6E5C617070A8
:10A130005F74696D65722E630000000030B4012108
:10A140000268001D002A0FD00368C3184468083055
:10A150000C4202D04D466D1E64191D6825601B1D02
:10A16000241D121FECD0F8E730BC704780B50848BA
:10A170000078012141400648017006480068002827
:10A1800004D00348007803490968884701BD0000EE
:10A19000A1260020602600200321064802680A4309
:10A1A0000260054802680A43026004488047044888
:10A1B000004700002405004054050040F19D0100C7
:10A1C000B5A2010010B5074979441831064C7C440A
:10A1D000163404E0081D0A68891888470100A14266
:10A1E000F8D110BD08000000280000002FD8FFFFA4
:10A1F000A4060000082000200000000041FFFFFF2F
:10A2000008000000E4000000002000200000000022
:10A2100000F00BF8002801D0FFF7D4FF0020C04663
:10A22000C046FDF73BFB00F002F80120704780B507
:10A2300000F002F801BDFEE70746384600F002F8DC
:10A24000FBE7FEE780B5C046C046024A1100182071
:10A25000ABBEFBE7260002004E6F72646963536574
:10A260006D69636F6E647563746F7200F352010001
:10A27000F9520100D1530100D7530100F9530100F5
:10A28000FF5301004154010047540100695401008B
:10A290006F540100E1540100E75401004E6F7264F5
:10A2A00069635F48524D00000D1801000F1801004E
:10A2B0000A180100C046C046C046C046FFF7A8FFC6
:10A2C000FEE7FEE7FEE7FEE7FEE7FEE7FEE7FEE766
:10A2D000FEE7FEE7FEE7FEE7FEE7FEE7FEE7FEE756
:10A2E000FEE7FEE7FEE700000024F400FFFF0100A8
:040000050001A2B59F
:00000001FF
